{
  "_format": "hh-sol-artifact-1",
  "contractName": "MenoDAOMembership",
  "sourceName": "src/MenoDAOMembership.sol",
  "abi": [
    {
      "inputs": [],
      "stateMutability": "nonpayable",
      "type": "constructor"
    },
    {
      "inputs": [],
      "name": "ERC721EnumerableForbiddenBatchMint",
      "type": "error"
    },
    {
      "inputs": [
        {
          "internalType": "address",
          "name": "sender",
          "type": "address"
        },
        {
          "internalType": "uint256",
          "name": "tokenId",
          "type": "uint256"
        },
        {
          "internalType": "address",
          "name": "owner",
          "type": "address"
        }
      ],
      "name": "ERC721IncorrectOwner",
      "type": "error"
    },
    {
      "inputs": [
        {
          "internalType": "address",
          "name": "operator",
          "type": "address"
        },
        {
          "internalType": "uint256",
          "name": "tokenId",
          "type": "uint256"
        }
      ],
      "name": "ERC721InsufficientApproval",
      "type": "error"
    },
    {
      "inputs": [
        {
          "internalType": "address",
          "name": "approver",
          "type": "address"
        }
      ],
      "name": "ERC721InvalidApprover",
      "type": "error"
    },
    {
      "inputs": [
        {
          "internalType": "address",
          "name": "operator",
          "type": "address"
        }
      ],
      "name": "ERC721InvalidOperator",
      "type": "error"
    },
    {
      "inputs": [
        {
          "internalType": "address",
          "name": "owner",
          "type": "address"
        }
      ],
      "name": "ERC721InvalidOwner",
      "type": "error"
    },
    {
      "inputs": [
        {
          "internalType": "address",
          "name": "receiver",
          "type": "address"
        }
      ],
      "name": "ERC721InvalidReceiver",
      "type": "error"
    },
    {
      "inputs": [
        {
          "internalType": "address",
          "name": "sender",
          "type": "address"
        }
      ],
      "name": "ERC721InvalidSender",
      "type": "error"
    },
    {
      "inputs": [
        {
          "internalType": "uint256",
          "name": "tokenId",
          "type": "uint256"
        }
      ],
      "name": "ERC721NonexistentToken",
      "type": "error"
    },
    {
      "inputs": [
        {
          "internalType": "address",
          "name": "owner",
          "type": "address"
        },
        {
          "internalType": "uint256",
          "name": "index",
          "type": "uint256"
        }
      ],
      "name": "ERC721OutOfBoundsIndex",
      "type": "error"
    },
    {
      "inputs": [
        {
          "internalType": "address",
          "name": "owner",
          "type": "address"
        }
      ],
      "name": "OwnableInvalidOwner",
      "type": "error"
    },
    {
      "inputs": [
        {
          "internalType": "address",
          "name": "account",
          "type": "address"
        }
      ],
      "name": "OwnableUnauthorizedAccount",
      "type": "error"
    },
    {
      "anonymous": false,
      "inputs": [
        {
          "indexed": true,
          "internalType": "address",
          "name": "owner",
          "type": "address"
        },
        {
          "indexed": true,
          "internalType": "address",
          "name": "approved",
          "type": "address"
        },
        {
          "indexed": true,
          "internalType": "uint256",
          "name": "tokenId",
          "type": "uint256"
        }
      ],
      "name": "Approval",
      "type": "event"
    },
    {
      "anonymous": false,
      "inputs": [
        {
          "indexed": true,
          "internalType": "address",
          "name": "owner",
          "type": "address"
        },
        {
          "indexed": true,
          "internalType": "address",
          "name": "operator",
          "type": "address"
        },
        {
          "indexed": false,
          "internalType": "bool",
          "name": "approved",
          "type": "bool"
        }
      ],
      "name": "ApprovalForAll",
      "type": "event"
    },
    {
      "anonymous": false,
      "inputs": [
        {
          "indexed": false,
          "internalType": "uint256",
          "name": "_fromTokenId",
          "type": "uint256"
        },
        {
          "indexed": false,
          "internalType": "uint256",
          "name": "_toTokenId",
          "type": "uint256"
        }
      ],
      "name": "BatchMetadataUpdate",
      "type": "event"
    },
    {
      "anonymous": false,
      "inputs": [
        {
          "indexed": true,
          "internalType": "address",
          "name": "to",
          "type": "address"
        },
        {
          "indexed": true,
          "internalType": "uint256",
          "name": "tokenId",
          "type": "uint256"
        },
        {
          "indexed": false,
          "internalType": "enum MenoDAOMembership.Tier",
          "name": "tier",
          "type": "uint8"
        }
      ],
      "name": "MembershipMinted",
      "type": "event"
    },
    {
      "anonymous": false,
      "inputs": [
        {
          "indexed": true,
          "internalType": "uint256",
          "name": "tokenId",
          "type": "uint256"
        },
        {
          "indexed": false,
          "internalType": "enum MenoDAOMembership.Tier",
          "name": "oldTier",
          "type": "uint8"
        },
        {
          "indexed": false,
          "internalType": "enum MenoDAOMembership.Tier",
          "name": "newTier",
          "type": "uint8"
        }
      ],
      "name": "MembershipUpgraded",
      "type": "event"
    },
    {
      "anonymous": false,
      "inputs": [
        {
          "indexed": false,
          "internalType": "uint256",
          "name": "_tokenId",
          "type": "uint256"
        }
      ],
      "name": "MetadataUpdate",
      "type": "event"
    },
    {
      "anonymous": false,
      "inputs": [
        {
          "indexed": true,
          "internalType": "address",
          "name": "previousOwner",
          "type": "address"
        },
        {
          "indexed": true,
          "internalType": "address",
          "name": "newOwner",
          "type": "address"
        }
      ],
      "name": "OwnershipTransferred",
      "type": "event"
    },
    {
      "anonymous": false,
      "inputs": [
        {
          "indexed": true,
          "internalType": "uint256",
          "name": "tokenId",
          "type": "uint256"
        },
        {
          "indexed": false,
          "internalType": "bool",
          "name": "isSoulbound",
          "type": "bool"
        }
      ],
      "name": "SoulboundStatusChanged",
      "type": "event"
    },
    {
      "anonymous": false,
      "inputs": [
        {
          "indexed": true,
          "internalType": "address",
          "name": "from",
          "type": "address"
        },
        {
          "indexed": true,
          "internalType": "address",
          "name": "to",
          "type": "address"
        },
        {
          "indexed": true,
          "internalType": "uint256",
          "name": "tokenId",
          "type": "uint256"
        }
      ],
      "name": "Transfer",
      "type": "event"
    },
    {
      "inputs": [
        {
          "internalType": "address",
          "name": "to",
          "type": "address"
        },
        {
          "internalType": "uint256",
          "name": "tokenId",
          "type": "uint256"
        }
      ],
      "name": "approve",
      "outputs": [],
      "stateMutability": "nonpayable",
      "type": "function"
    },
    {
      "inputs": [
        {
          "internalType": "address",
          "name": "owner",
          "type": "address"
        }
      ],
      "name": "balanceOf",
      "outputs": [
        {
          "internalType": "uint256",
          "name": "",
          "type": "uint256"
        }
      ],
      "stateMutability": "view",
      "type": "function"
    },
    {
      "inputs": [],
      "name": "baseExternalUrl",
      "outputs": [
        {
          "internalType": "string",
          "name": "",
          "type": "string"
        }
      ],
      "stateMutability": "view",
      "type": "function"
    },
    {
      "inputs": [
        {
          "internalType": "uint256",
          "name": "tokenId",
          "type": "uint256"
        }
      ],
      "name": "generateSVG",
      "outputs": [
        {
          "internalType": "string",
          "name": "",
          "type": "string"
        }
      ],
      "stateMutability": "view",
      "type": "function"
    },
    {
      "inputs": [
        {
          "internalType": "uint256",
          "name": "tokenId",
          "type": "uint256"
        }
      ],
      "name": "getApproved",
      "outputs": [
        {
          "internalType": "address",
          "name": "",
          "type": "address"
        }
      ],
      "stateMutability": "view",
      "type": "function"
    },
    {
      "inputs": [
        {
          "internalType": "uint256",
          "name": "tokenId",
          "type": "uint256"
        }
      ],
      "name": "getMembership",
      "outputs": [
        {
          "internalType": "enum MenoDAOMembership.Tier",
          "name": "tier",
          "type": "uint8"
        },
        {
          "internalType": "uint256",
          "name": "mintedAt",
          "type": "uint256"
        },
        {
          "internalType": "bool",
          "name": "isSoulbound",
          "type": "bool"
        },
        {
          "internalType": "address",
          "name": "owner",
          "type": "address"
        }
      ],
      "stateMutability": "view",
      "type": "function"
    },
    {
      "inputs": [
        {
          "internalType": "address",
          "name": "owner",
          "type": "address"
        }
      ],
      "name": "getTokensByOwner",
      "outputs": [
        {
          "internalType": "uint256[]",
          "name": "",
          "type": "uint256[]"
        }
      ],
      "stateMutability": "view",
      "type": "function"
    },
    {
      "inputs": [
        {
          "internalType": "address",
          "name": "owner",
          "type": "address"
        },
        {
          "internalType": "address",
          "name": "operator",
          "type": "address"
        }
      ],
      "name": "isApprovedForAll",
      "outputs": [
        {
          "internalType": "bool",
          "name": "",
          "type": "bool"
        }
      ],
      "stateMutability": "view",
      "type": "function"
    },
    {
      "inputs": [
        {
          "internalType": "uint256",
          "name": "",
          "type": "uint256"
        }
      ],
      "name": "memberships",
      "outputs": [
        {
          "internalType": "enum MenoDAOMembership.Tier",
          "name": "tier",
          "type": "uint8"
        },
        {
          "internalType": "uint256",
          "name": "mintedAt",
          "type": "uint256"
        },
        {
          "internalType": "bool",
          "name": "isSoulbound",
          "type": "bool"
        }
      ],
      "stateMutability": "view",
      "type": "function"
    },
    {
      "inputs": [
        {
          "internalType": "address",
          "name": "to",
          "type": "address"
        },
        {
          "internalType": "uint256",
          "name": "tier",
          "type": "uint256"
        }
      ],
      "name": "mint",
      "outputs": [
        {
          "internalType": "uint256",
          "name": "",
          "type": "uint256"
        }
      ],
      "stateMutability": "nonpayable",
      "type": "function"
    },
    {
      "inputs": [],
      "name": "name",
      "outputs": [
        {
          "internalType": "string",
          "name": "",
          "type": "string"
        }
      ],
      "stateMutability": "view",
      "type": "function"
    },
    {
      "inputs": [],
      "name": "owner",
      "outputs": [
        {
          "internalType": "address",
          "name": "",
          "type": "address"
        }
      ],
      "stateMutability": "view",
      "type": "function"
    },
    {
      "inputs": [
        {
          "internalType": "uint256",
          "name": "tokenId",
          "type": "uint256"
        }
      ],
      "name": "ownerOf",
      "outputs": [
        {
          "internalType": "address",
          "name": "",
          "type": "address"
        }
      ],
      "stateMutability": "view",
      "type": "function"
    },
    {
      "inputs": [
        {
          "internalType": "uint256",
          "name": "tokenId",
          "type": "uint256"
        }
      ],
      "name": "releaseSoulbound",
      "outputs": [],
      "stateMutability": "nonpayable",
      "type": "function"
    },
    {
      "inputs": [],
      "name": "renounceOwnership",
      "outputs": [],
      "stateMutability": "nonpayable",
      "type": "function"
    },
    {
      "inputs": [
        {
          "internalType": "address",
          "name": "from",
          "type": "address"
        },
        {
          "internalType": "address",
          "name": "to",
          "type": "address"
        },
        {
          "internalType": "uint256",
          "name": "tokenId",
          "type": "uint256"
        }
      ],
      "name": "safeTransferFrom",
      "outputs": [],
      "stateMutability": "nonpayable",
      "type": "function"
    },
    {
      "inputs": [
        {
          "internalType": "address",
          "name": "from",
          "type": "address"
        },
        {
          "internalType": "address",
          "name": "to",
          "type": "address"
        },
        {
          "internalType": "uint256",
          "name": "tokenId",
          "type": "uint256"
        },
        {
          "internalType": "bytes",
          "name": "data",
          "type": "bytes"
        }
      ],
      "name": "safeTransferFrom",
      "outputs": [],
      "stateMutability": "nonpayable",
      "type": "function"
    },
    {
      "inputs": [
        {
          "internalType": "address",
          "name": "operator",
          "type": "address"
        },
        {
          "internalType": "bool",
          "name": "approved",
          "type": "bool"
        }
      ],
      "name": "setApprovalForAll",
      "outputs": [],
      "stateMutability": "nonpayable",
      "type": "function"
    },
    {
      "inputs": [
        {
          "internalType": "string",
          "name": "newUrl",
          "type": "string"
        }
      ],
      "name": "setBaseExternalUrl",
      "outputs": [],
      "stateMutability": "nonpayable",
      "type": "function"
    },
    {
      "inputs": [
        {
          "internalType": "bytes4",
          "name": "interfaceId",
          "type": "bytes4"
        }
      ],
      "name": "supportsInterface",
      "outputs": [
        {
          "internalType": "bool",
          "name": "",
          "type": "bool"
        }
      ],
      "stateMutability": "view",
      "type": "function"
    },
    {
      "inputs": [],
      "name": "symbol",
      "outputs": [
        {
          "internalType": "string",
          "name": "",
          "type": "string"
        }
      ],
      "stateMutability": "view",
      "type": "function"
    },
    {
      "inputs": [
        {
          "internalType": "enum MenoDAOMembership.Tier",
          "name": "",
          "type": "uint8"
        }
      ],
      "name": "tierColors",
      "outputs": [
        {
          "internalType": "string",
          "name": "",
          "type": "string"
        }
      ],
      "stateMutability": "view",
      "type": "function"
    },
    {
      "inputs": [
        {
          "internalType": "enum MenoDAOMembership.Tier",
          "name": "",
          "type": "uint8"
        }
      ],
      "name": "tierNames",
      "outputs": [
        {
          "internalType": "string",
          "name": "",
          "type": "string"
        }
      ],
      "stateMutability": "view",
      "type": "function"
    },
    {
      "inputs": [
        {
          "internalType": "uint256",
          "name": "index",
          "type": "uint256"
        }
      ],
      "name": "tokenByIndex",
      "outputs": [
        {
          "internalType": "uint256",
          "name": "",
          "type": "uint256"
        }
      ],
      "stateMutability": "view",
      "type": "function"
    },
    {
      "inputs": [
        {
          "internalType": "address",
          "name": "owner",
          "type": "address"
        },
        {
          "internalType": "uint256",
          "name": "index",
          "type": "uint256"
        }
      ],
      "name": "tokenOfOwnerByIndex",
      "outputs": [
        {
          "internalType": "uint256",
          "name": "",
          "type": "uint256"
        }
      ],
      "stateMutability": "view",
      "type": "function"
    },
    {
      "inputs": [
        {
          "internalType": "uint256",
          "name": "tokenId",
          "type": "uint256"
        }
      ],
      "name": "tokenURI",
      "outputs": [
        {
          "internalType": "string",
          "name": "",
          "type": "string"
        }
      ],
      "stateMutability": "view",
      "type": "function"
    },
    {
      "inputs": [],
      "name": "totalSupply",
      "outputs": [
        {
          "internalType": "uint256",
          "name": "",
          "type": "uint256"
        }
      ],
      "stateMutability": "view",
      "type": "function"
    },
    {
      "inputs": [
        {
          "internalType": "address",
          "name": "from",
          "type": "address"
        },
        {
          "internalType": "address",
          "name": "to",
          "type": "address"
        },
        {
          "internalType": "uint256",
          "name": "tokenId",
          "type": "uint256"
        }
      ],
      "name": "transferFrom",
      "outputs": [],
      "stateMutability": "nonpayable",
      "type": "function"
    },
    {
      "inputs": [
        {
          "internalType": "address",
          "name": "newOwner",
          "type": "address"
        }
      ],
      "name": "transferOwnership",
      "outputs": [],
      "stateMutability": "nonpayable",
      "type": "function"
    },
    {
      "inputs": [
        {
          "internalType": "uint256",
          "name": "tokenId",
          "type": "uint256"
        },
        {
          "internalType": "uint256",
          "name": "newTier",
          "type": "uint256"
        }
      ],
      "name": "upgradeTier",
      "outputs": [],
      "stateMutability": "nonpayable",
      "type": "function"
    }
  ],
  "bytecode": "0x608034620004375760406001600160401b03828201818111848210176200037f578252601283526020907104d656e6f44414f204d656d626572736869760741b82850152825190838201828110828211176200037f57845260048252634d454e4f60e01b8383015284518181116200037f57806200007e5f546200043b565b96601f9788811162000407575b5085908883116001146200039f575f9262000393575b50508160011b915f199060031b1c1916175f555b81519081116200037f5780600192620000cf84546200043b565b87811162000344575b508490878311600114620002e0575f92620002d4575b50505f19600383901b1c191690821b1781555b3315620002bd57600b8054336001600160a01b03198216811790925593946011949091906001600160a01b03167f8be0079c531659141344cd1fd0a4f28419497f9722a3daafe3b4186f6b6457e05f80a36200015f600f546200043b565b8181116200029b575b505060387f68747470733a2f2f6170702e6d656e6f64616f2e6f72672f6e66742f0000000001600f55805f5260108252835f20620001b2620001ab82546200043b565b826200048e565b600e6611a1a21ba3199960c91b01905560025f5260108252835f20620001dd620001ab82546200043b565b600e660234330433043360cc1b01905560035f5260108252835f2062000208620001ab82546200043b565b600e660234646443730360cc1b0190555f52818152825f2062000230620001ab82546200043b565b600c6542726f6e7a6560d01b01905560025f52818152825f2062000259620001ab82546200043b565b600c6529b4b63b32b960d11b01905560035f5252805f2062000280620001ab82546200043b565b60086311dbdb1960e21b019055516129889081620004ba8239f35b620002b591600f5f52845f20910160051c81019062000476565b5f8062000168565b8251631e4fbdf760e01b81525f6004820152602490fd5b015190505f80620000ee565b90849350601f19831691845f52865f20925f5b888282106200032d575050841162000314575b505050811b01815562000101565b01515f1960f88460031b161c191690555f808062000306565b8385015186558897909501949384019301620002f3565b6200036e90855f52865f208980860160051c82019289871062000375575b0160051c019062000476565b5f620000d8565b9250819262000362565b634e487b7160e01b5f52604160045260245ffd5b015190505f80620000a1565b5f8080528781209350601f198516905b88828210620003f0575050908460019594939210620003d7575b505050811b015f55620000b5565b01515f1960f88460031b161c191690555f8080620003c9565b6001859682939686015181550195019301620003af565b62000430905f8052875f208a80860160051c8201928a871062000375570160051c019062000476565b5f6200008b565b5f80fd5b90600182811c921680156200046b575b60208310146200045757565b634e487b7160e01b5f52602260045260245ffd5b91607f16916200044b565b81811062000482575050565b5f815560010162000476565b90601f81116200049c575050565b620004b7915f52601f60205f20910160051c81019062000476565b56fe6080604090808252600480361015610015575f80fd5b5f3560e01c91826301ffc9a7146117dc5750816306fdde031461172f5781630777ed2014611704578163081812fc146116cc578163095ea7b3146115f157816318160ddd146115d357816323b872dd146115bc5781632f745c5914611594578163321621d71461154657816338fbf2c61461149057816340398d67146113af57816340c10f1914610eb357816342842e0e14610e855781634f6ccce714610e3057816360d7772214610d115781636352211e14610ce25781636dcee4ca14610cc357816370a0823114610c97578163715018a614610c3c5781638b75f27d14610bbf5781638da5cb5b14610b9757816395d89b4114610ae6578163a22cb46514610a25578163b88d4fde146109b9578163c506301d14610845578163c87b56dd1461035a578163de5f880d14610317578163e985e9c5146102c9578163f2fde38b1461023f575063f56026af1461016a575f80fd5b3461023b575f36600319011261023b578051600f549091825f61018c84611902565b808352602094600190866001821691825f146102195750506001146101d1575b50506101cd92916101be9103856119a2565b5192828493845283019061189b565b0390f35b90859250600f5f525f80516020612933833981519152915f925b82841061020157505050820101816101be6101ac565b8054848a0186015288955087949093019281016101eb565b60ff19168682015292151560051b850190920192508391506101be90506101ac565b5f80fd5b90503461023b57602036600319011261023b5761025a611a66565b90610263612516565b6001600160a01b039182169283156102b3575050600b54826001600160601b0360a01b821617600b55167f8be0079c531659141344cd1fd0a4f28419497f9722a3daafe3b4186f6b6457e05f80a3005b905f6024925191631e4fbdf760e01b8352820152fd5b823461023b578060031936011261023b576020906102e5611a66565b6102ed611a7c565b9060018060a01b038091165f5260058452825f2091165f52825260ff815f20541690519015158152f35b823461023b57602036600319011261023b5781359182101561023b576103476103426101cd936118eb565b6119c4565b905191829160208352602083019061189b565b90503461023b576020908160031936011261023b57803590815f526002835261038f60018060a01b03855f2054161515611e66565b815f52600d8352835f20918451906103a68261193a565b6103b460ff85541683611ea9565b60019260ff600260018701549688860197885201541692878101931515845251908082101561083257506103426103ea916118eb565b906103f481611f9f565b9161041a61041361040d61040785612542565b956127f3565b93612542565b9651612542565b9351156108125786885161042d81611986565b600381526259657360e81b82820152955b8951977103d913730b6b2911d101126b2b737a220a7960751b838a0152835195838501966104708160328d018a61187a565b8a016c204d656d62657273686970202360981b603282015261049b8251809387603f8501910161187a565b019461088b60f21b9586603f8201527f226465736372697074696f6e223a20224d656e6f44414f2044656e74616c204360418201527f61726520436f6f7065726174697665204d656d62657273686970204e46542e2060618201527f54686973204e4654206772616e74732061636365737320746f2064656e74616c60818201527f20636172652062656e6566697473206261736564206f6e206d656d626572736860a1820152691a5c081d1a595c8b888b60b21b60c18201527f22696d616765223a2022646174613a696d6167652f7376672b786d6c3b62617360cb82015263194d8d0b60e21b60eb82015261059b825180938760ef8501910161187a565b01918560ef840152701132bc3a32b93730b62fbab936111d101160791b60f1840152610102905f93600f54916105d083611902565b92600181169081156107f157506001146107a6575b5050505094609b9461066b8a9893956107559a95876106118b6101cd9f9a6107509d519485920161187a565b019283526e2261747472696275746573223a205b60881b60028401527f7b2274726169745f74797065223a202254696572222c202276616c7565223a206011840152601160f91b603184015251928390603284019061187a565b0162089f4b60ea1b60328201527f7b2274726169745f74797065223a20224d696e746564222c2022646973706c6160358201527f795f74797065223a202264617465222c202276616c7565223a2000000000000060558201526106d7825180938c606f8501910161187a565b01611f4b60f21b606f8201527f7b2274726169745f74797065223a2022536f756c626f756e64222c202276616c6071820152653ab2911d101160d11b609182015261072b825180938b60978501910161187a565b0161227d60f01b6097820152615d7d60f01b609982015203607b8101845201826119a2565b6127f3565b926101be603d825180967f646174613a6170706c69636174696f6e2f6a736f6e3b6261736536342c000000878301526107968151809289868601910161187a565b810103601d8101875201856119a2565b909192939450600f5f525f80516020612933833981519152905f915b8483106107dc575050500101908461066b856107556105e5565b80548484018701528e979092019181016107c2565b60ff1916838601525050811515909102010191508461066b856107556105e5565b86885161081e81611986565b60028152614e6f60f01b828201529561043e565b602190634e487b7160e01b5f525260245ffd5b3461023b5760208060031936011261023b5767ffffffffffffffff90823582811161023b573660238201121561023b576108889036906024818701359101611af0565b92610891612516565b83519283116109a657506108a6600f54611902565b601f8111610956575b50602090601f83116001146108eb575081925f926108e0575b50505f19600383901b1c191660019190911b17600f55005b0151905082806108c8565b90601f19831693600f5f525f80516020612933833981519152925f905b86821061093e5750508360019510610926575b505050811b01600f55005b01515f1960f88460031b161c1916905582808061091b565b80600185968294968601518155019501930190610908565b600f5f525f80516020612933833981519152601f840160051c8101916020851061099c575b601f0160051c01905b81811061099157506108af565b5f8155600101610984565b909150819061097b565b604190634e487b7160e01b5f525260245ffd5b3461023b57608036600319011261023b576109d2611a66565b6109da611a7c565b6044359060643567ffffffffffffffff811161023b573660238201121561023b57610a2394816024610a1193369301359101611af0565b92610a1d838383611b26565b336126a9565b005b823461023b578060031936011261023b57610a3e611a66565b906024358015159283820361023b573315610ad0576001600160a01b0316938415610ab95750610a8d90335f526005602052825f20855f52602052825f209060ff801983541691151516179055565b519081527f17307eab39ab6107e8899845ad3d59bd9653f200f220920489ca2b5937696c3160203392a3005b8251630b61174360e31b8152908101859052602490fd5b825163a9fbf51f60e01b81525f81870152602490fd5b823461023b575f36600319011261023b578051905f908260019260015493610b0d85611902565b90818452602095866001821691825f14610219575050600114610b3c5750506101cd92916101be9103856119a2565b9085925060015f527fb10e2d527612073b26eecdfd717e6a320cf44b4afac2b0732d9fcbe2b7fa0cf6915f925b828410610b7f57505050820101816101be6101ac565b8054848a018601528895508794909301928101610b69565b823461023b575f36600319011261023b57600b5490516001600160a01b039091168152602090f35b90503461023b57602036600319011261023b5760207fc3e8f137fddf52bd069912614ea1147dd6a0da5300b09693edf0ea0f99695cc7913592610c00612516565b5f8481526002835281902054610c20906001600160a01b03161515611e66565b835f52600d82526002815f200160ff198154169055515f8152a2005b3461023b575f36600319011261023b57610c54612516565b600b80546001600160a01b031981169091555f906001600160a01b03167f8be0079c531659141344cd1fd0a4f28419497f9722a3daafe3b4186f6b6457e08280a3005b823461023b57602036600319011261023b57602090610cbc610cb7611a66565b6124a6565b9051908152f35b823461023b57602036600319011261023b576103476101cd9235611f9f565b823461023b57602036600319011261023b57610d00602092356124dc565b90516001600160a01b039091168152f35b823461023b578060031936011261023b5781359060243592610d31612516565b5f838152600260205282902054610d52906001600160a01b03161515611e66565b600184101580610e25575b610d6690611ecd565b825f52600d60205260ff825f205416908085101561083257808210156108325781851115610de25750610ddf83947f352ffa825b5dbfd121a26e29681d13bc73231bf9d64f248978f460eaf2a1be3b945f52600d602052610dc981855f20611f08565b610dd584518094611ac7565b6020830190611ac7565ba2005b606490602084519162461bcd60e51b8352820152601f60248201527f43616e206f6e6c79207570677261646520746f206869676865722074696572006044820152fd5b506003841115610d5d565b90503461023b57602036600319011261023b57803590600854821015610e6a57602083610e5c84611f20565b91905490519160031b1c8152f35b905f604493519263295f44f760e21b84528301526024820152fd5b823461023b57610a2390610e9836611a92565b91925192610ea58461196a565b5f8452610a1d838383611b26565b90503461023b578160031936011261023b57610ecd611a66565b916024928335610edb612516565b600180821015806113a4575b610ef090611ecd565b600c54945f199687871461139257828701600c558551610f0f8161196a565b5f81526001600160a01b038681169690871561137d57899a888a928c5f5260209d8e916002835280865f205416151580611376575b61131d575b815f5260028352855f205416918215801596876112ed575b855f5260038352805f208d8154019055835f52600283525f20856001600160601b0360a01b8254161790558285857fddf252ad1be2c89b69c2b068fc378daa952ba7f163c4a11628f55a4df523b3ef5f80a41561127857600990600854925f52528c5f2055610fcf8d611f69565b0361122e575b50611219573b6110fd575b50818410156110eb578551610ff48161193a565b610ffe8582611ea9565b88810142815287820190858252895f52600d8b52885f209251858110156110d95791600291611031859461104c96611f08565b518784015551151591019060ff801983541691151516179055565b845f52600e8852855f2091825493600160401b8510156110c75784018084558410156110b6575050859392847fc9960d725fb19f1d74d3e51aec0c36b593c4fba69145a516c797b047c9f1e5cb9389935f52835f2001556110af86518092611ac7565ba351908152f35b603290634e487b7160e01b5f52525ffd5b50604190634e487b7160e01b5f52525ffd5b84602187634e487b7160e01b5f52525ffd5b634e487b7160e01b5f90815260218352fd5b9188949282995f839a969461113f8b9a9b519485938493630a85bd0160e11b98898652339086015284015289604484015260806064840152608483019061189b565b03815f8c5af15f91816111d9575b506111a65750505050503d5f1461119e573d9061116982611ad4565b91611176845193846119a2565b82523d5f8284013e5b8151918261119b575050505191633250574960e11b8352820152fd5b01fd5b60609061117f565b63ffffffff60e09a93959994969a9897981b16036111c4575f610fe0565b8551633250574960e11b815291820185905290fd5b9091508681813d8311611212575b6111f181836119a2565b8101031261023b57516001600160e01b03198116810361023b57905f61114d565b503d6111e7565b87516339e3563760e11b81525f818601528390fd5b611237836124a6565b90810190811161126657885f5260068c52895f20815f528c528a8a5f20558a5f5260078c52895f20555f610fd5565b84601187634e487b7160e01b5f52525ffd5b838303611287575b5050610fcf565b8d5f611292856124a6565b9184825260078452808220549486835260068552818320958481036112cb575b508252600784528120555f52525f8c8120558c8e611280565b848452868652828420548185528084862055845260078652828420555f6112b2565b5f84815260046020526040902080546001600160a01b0319169055845f5260038352805f20878154019055610f61565b93945050600d91505260ff60028b5f2001541661133f5790888c8c8c94610f49565b895162461bcd60e51b81528087018d905260128187015271151bdad95b881a5cc81cdbdd5b189bdd5b9960721b6044820152606490fd5b508a610f44565b8851633250574960e11b81525f818701528490fd5b634e487b7160e01b5f90815260118352fd5b506003821115610ee7565b90503461023b576020908160031936011261023b5791906113ce611a66565b906113d8826124a6565b936113e285611eb5565b946113ef855196876119a2565b8086526113fb81611eb5565b8684019490601f19013686375f5b828110611450575050505082519384938285019183865251809252840192915f5b82811061143957505050500390f35b83518552869550938101939281019260010161142a565b61145e818399979899611e0a565b865182101561147d57600582901b870186015294969594600101611409565b603285634e487b7160e01b5f525260245ffd5b90503461023b57602036600319011261023b5780355f81815260026020528390205490926001600160a01b03916114ca9083161515611e66565b835f52600d602052805f20938151916114e28361193a565b6114f060ff87541684611ea9565b60ff60026001880154976020860198895201541692818101931515845251948086101561083257506115296080965193511515926124dc565b9261153682518097611ac7565b6020860152840152166060820152f35b823461023b57602036600319011261023b57606091355f52600d602052805f209060ff8254169160ff60026001830154920154169061158783518095611ac7565b6020840152151590820152f35b823461023b578060031936011261023b57602090610cbc6115b3611a66565b60243590611e0a565b3461023b57610a236115cd36611a92565b91611b26565b823461023b575f36600319011261023b576020906008549051908152f35b823461023b578060031936011261023b5761160a611a66565b91602435611617816124dc565b331515806116b9575b80611692575b61167c576001600160a01b039485169482918691167f8c5be1e5ebec7d5bd14f71427d1e84f3dd0314c0f7b2291e5b200ac8c7c3b9255f80a45f526020525f20906001600160601b0360a01b8254161790555f80f35b835163a9fbf51f60e01b81523381850152602490fd5b5060018060a01b0381165f526005602052835f20335f5260205260ff845f20541615611626565b506001600160a01b038116331415611620565b823461023b57602036600319011261023b5781602092356116ec816124dc565b505f52825260018060a01b03815f2054169051908152f35b823461023b57602036600319011261023b5781359182101561023b576103476103426101cd936118c0565b823461023b575f36600319011261023b578051905f90825f549261175284611902565b808352602094600190866001821691825f146102195750506001146117835750506101cd92916101be9103856119a2565b5f80805286935091907f290decd9548b62a8d60345a988386fc84ba6bc95484008f6362f93160ef3e5635b8284106117c457505050820101816101be6101ac565b8054848a0186015288955087949093019281016117ae565b903461023b57602036600319011261023b57359063ffffffff60e01b821680920361023b57602091632483248360e11b811490811561181d575b5015158152f35b63780e9d6360e01b811491508115611837575b5083611816565b6380ac58cd60e01b811491508115611869575b8115611858575b5083611830565b6301ffc9a760e01b14905083611851565b635b5e139f60e01b8114915061184a565b5f5b83811061188b5750505f910152565b818101518382015260200161187c565b906020916118b48151809281855285808601910161187a565b601f01601f1916010190565b60048110156118d7575f52601060205260405f2090565b634e487b7160e01b5f52602160045260245ffd5b60048110156118d7575f52601160205260405f2090565b90600182811c92168015611930575b602083101461191c57565b634e487b7160e01b5f52602260045260245ffd5b91607f1691611911565b6060810190811067ffffffffffffffff82111761195657604052565b634e487b7160e01b5f52604160045260245ffd5b6020810190811067ffffffffffffffff82111761195657604052565b6040810190811067ffffffffffffffff82111761195657604052565b90601f8019910116810190811067ffffffffffffffff82111761195657604052565b9060405191825f82546119d681611902565b908184526020946001916001811690815f14611a445750600114611a06575b505050611a04925003836119a2565b565b5f90815285812095935091905b818310611a2c575050611a0493508201015f80806119f5565b85548884018501529485019487945091830191611a13565b92505050611a0494925060ff191682840152151560051b8201015f80806119f5565b600435906001600160a01b038216820361023b57565b602435906001600160a01b038216820361023b57565b606090600319011261023b576001600160a01b0390600435828116810361023b5791602435908116810361023b579060443590565b9060048210156118d75752565b67ffffffffffffffff811161195657601f01601f191660200190565b929192611afc82611ad4565b91611b0a60405193846119a2565b82948184528183011161023b578281602093845f960137010152565b6001600160a01b0382811693918415611df257825f5260206002815260409583875f205416151580611dea575b611d9e575b845f526002825283875f2054169533151580611d10575b5086158015611cdf575b825f5260038452885f2060018154019055865f5260028452885f20836001600160601b0360a01b8254161790558683897fddf252ad1be2c89b69c2b068fc378daa952ba7f163c4a11628f55a4df523b3ef5f80a415611c7357600854865f5260098452885f2055611be986611f69565b818703611c24575b5050501692838303611c035750505050565b6064945051926364283d7b60e01b8452600484015260248301526044820152fd5b611c2d906124a6565b5f19810192908311611c5f576007915f5260068152875f20835f52815285885f2055855f5252855f20555f8080611bf1565b634e487b7160e01b5f52601160045260245ffd5b868214611be957611c83876124a6565b865f5260078452885f205490885f5260068552895f2091818103611cbd575b50875f52600785525f8a8120555f5283525f88812055611be9565b815f528286528a5f2054815f52808c5f20555f52600786528a5f20555f611ca2565b5f87815260046020526040812080546001600160a01b03191690558881526003855289902080545f19019055611b79565b80611d5d575b15611d21575f611b6f565b878688611d3e576024915190637e27328960e01b82526004820152fd5b905163177e802f60e01b81523360048201526024810191909152604490fd5b503387148015611d82575b80611d165750855f52600483523385895f20541614611d16565b50865f5260058352875f20335f52835260ff885f205416611d68565b600d825260ff6002885f2001541615611b5857865162461bcd60e51b8152600481018390526012602482015271151bdad95b881a5cc81cdbdd5b189bdd5b9960721b6044820152606490fd5b506001611b53565b604051633250574960e11b81525f6004820152602490fd5b611e13816124a6565b821015611e3b5760018060a01b03165f52600660205260405f20905f5260205260405f205490565b60405163295f44f760e21b81526001600160a01b039190911660048201526024810191909152604490fd5b15611e6d57565b60405162461bcd60e51b8152602060048201526014602482015273151bdad95b88191bd95cc81b9bdd08195e1a5cdd60621b6044820152606490fd5b60048210156118d75752565b67ffffffffffffffff81116119565760051b60200190565b15611ed457565b60405162461bcd60e51b815260206004820152600c60248201526b24b73b30b634b2103a34b2b960a11b6044820152606490fd5b9060048110156118d75760ff80198354169116179055565b600854811015611f555760085f527ff3f7a9fe364faab93b216da50a3214154f22a0a2b415b23a84c8169e8b636ee301905f90565b634e487b7160e01b5f52603260045260245ffd5b600854600160401b81101561195657806001611f889201600855611f20565b819291549060031b91821b915f19901b1916179055565b805f526020600d815260405f2060ff600260405192611fbd8461193a565b611fca8382541685611ea9565b60018101548585015201541615156040820152805160048110156118d757610342611ff4916118c0565b90519060048210156118d7576124a39261201c61201661034261036f956118eb565b95612542565b946040519586937f3c73766720786d6c6e733d22687474703a2f2f7777772e77332e6f72672f3230848601527f30302f737667222076696577426f783d223020302034303020343030223e00006040860152651e3232b3399f60d11b605e8601527f3c6c696e6561724772616469656e742069643d226267222078313d223025222060648601527f79313d223025222078323d2231303025222079323d2231303025223e0000000060848601527f3c73746f70206f66667365743d22302522207374796c653d2273746f702d636f60a08601526d3637b91d1198b098b0993291179f60911b60c08601527f3c73746f70206f66667365743d223130302522207374796c653d2273746f702d60ce8601526f31b7b637b91d11989b191899b291179f60811b60ee860152701e17b634b732b0b923b930b234b2b73a1f60791b60fe860152661e17b232b3399f60c91b61010f8601527f3c726563742077696474683d2234303022206865696768743d223430302220666101168601526f34b6361e913ab9361411b1339491179f60811b6101368601527f3c636972636c652063783d22323030222063793d223135302220723d2238302261014686015266103334b6361e9160c91b61016686015261016d92661026b2b6b132b960c91b8251918684019261220c81888b018661187a565b88019570111037b830b1b4ba3c9e9118171c91179f60791b908701527f3c7465787420783d223230302220793d223136302220666f6e742d66616d696c61017e8701527f2220746578742d616e63686f723d226d6964646c65223e0000000000000000007f793d22417269616c2c2073616e732d73657269662220666f6e742d73697a653d938461019e8901527f223430222066696c6c3d2277686974652220746578742d616e63686f723d226d6101be8901527f6964646c652220666f6e742d7765696768743d22626f6c64223e00000000000097886101de82015263f09fa6b760e01b6101f8820152661e17ba32bc3a1f60c91b98896101fc8301527f3c7465787420783d223230302220793d223237302220666f6e742d66616d696c610203830152866102238301527f223238222066696c6c3d2277686974652220746578742d616e63686f723d226d610243830152610263820152664d656e6f44414f60c81b61027d820152886102848201527f3c7465787420783d223230302220793d223331302220666f6e742d66616d696c61028b820152856102ab8201526a11191811103334b6361e9160a91b6102cb8201526123d36102d6975180938984019061187a565b01948501526102ed936123ee825180938a888501910161187a565b0192830152836102f48301527f3c7465787420783d223230302220793d223337302220666f6e742d66616d696c6102fb83015261031b8201527f223132222066696c6c3d22233838382220746578742d616e63686f723d226d6961033b8201526532323632911f60d11b61035b820152602360f81b61036182015261247f610362948351938491878501910161187a565b0191820152651e17b9bb339f60d11b6103698201520361034f8101845201826119a2565b90565b6001600160a01b031680156124c4575f52600360205260405f205490565b6040516322718ad960e21b81525f6004820152602490fd5b5f818152600260205260409020546001600160a01b03169081156124fe575090565b60249060405190637e27328960e01b82526004820152fd5b600b546001600160a01b0316330361252a57565b60405163118cdaa760e01b8152336004820152602490fd5b805f917a184f03e93ff9f4daa797ed6e38ed64bf6a1f0100000000000000008082101561269b575b506d04ee2d6d415b85acef81000000008083101561268c575b50662386f26fc100008083101561267d575b506305f5e1008083101561266e575b506127108083101561265f575b50606482101561264f575b600a80921015612645575b60019081602160018601956125db87611ad4565b966125e960405198896119a2565b8088526125f8601f1991611ad4565b01366020890137860101905b612610575b5050505090565b5f19019083906f181899199a1a9b1b9c1cb0b131b232b360811b8282061a83530491821561264057919082612604565b612609565b91600101916125c7565b91906064600291049101916125bc565b6004919392049101915f6125b1565b6008919392049101915f6125a4565b6010919392049101915f612595565b6020919392049101915f612583565b60409350810491505f61256a565b9293909193843b6126bc575b5050505050565b604051630a85bd0160e11b8082526001600160a01b03958616600483015293851660248201526044810191909152608060648201526020959490931693929085908290819061270f90608483019061189b565b03815f885af15f91816127b3575b5061277c575050503d5f14612774573d9161273783611ad4565b9261274560405194856119a2565b83523d5f8285013e5b8251928361276f57604051633250574960e11b815260048101849052602490fd5b019050fd5b60609161274e565b9193506001600160e01b03199091160361279b57505f808080806126b5565b60249060405190633250574960e11b82526004820152fd5b9091508581813d83116127ec575b6127cb81836119a2565b8101031261023b57516001600160e01b03198116810361023b57905f61271d565b503d6127c1565b80511561291f578051916002808401809411611c5f57600393849004600281901b91906001600160fe1b03811603611c5f5793604051937f4142434445464748494a4b4c4d4e4f505152535455565758595a616263646566601f52603f917f6768696a6b6c6d6e6f707172737475767778797a303132333435363738392b2f603f5260208601928291835184019160208301998a51945f8c525b8481106128e3575050505050906003916020959697525106806001146128ce576002146128c1575b50808452830101604052565b603d905f1901535f6128b5565b50603d90815f1982015360011901535f6128b5565b836004919c95989c019b838d51818160121c165183538181600c1c16516001840153818160061c1651858401531651858201530196939a61288d565b5060405161292c8161196a565b5f81529056fe8d1108e10bcb7c27dddfc02ed9d693a074039d026cf4ea4240b40f7d581ac802a2646970667358221220e8a2312312ca405003eea80a7305f5e55508812ae968f079176db804a75e367964736f6c63430008180033",
  "linkReferences": {},
  "deployedLinkReferences": {}
}