{"src/MenoDAOMembership.sol":{"MenoDAOMembership":{"abi":[{"inputs":[],"stateMutability":"nonpayable","type":"constructor"},{"inputs":[],"name":"ERC721EnumerableForbiddenBatchMint","type":"error"},{"inputs":[{"internalType":"address","name":"sender","type":"address"},{"internalType":"uint256","name":"tokenId","type":"uint256"},{"internalType":"address","name":"owner","type":"address"}],"name":"ERC721IncorrectOwner","type":"error"},{"inputs":[{"internalType":"address","name":"operator","type":"address"},{"internalType":"uint256","name":"tokenId","type":"uint256"}],"name":"ERC721InsufficientApproval","type":"error"},{"inputs":[{"internalType":"address","name":"approver","type":"address"}],"name":"ERC721InvalidApprover","type":"error"},{"inputs":[{"internalType":"address","name":"operator","type":"address"}],"name":"ERC721InvalidOperator","type":"error"},{"inputs":[{"internalType":"address","name":"owner","type":"address"}],"name":"ERC721InvalidOwner","type":"error"},{"inputs":[{"internalType":"address","name":"receiver","type":"address"}],"name":"ERC721InvalidReceiver","type":"error"},{"inputs":[{"internalType":"address","name":"sender","type":"address"}],"name":"ERC721InvalidSender","type":"error"},{"inputs":[{"internalType":"uint256","name":"tokenId","type":"uint256"}],"name":"ERC721NonexistentToken","type":"error"},{"inputs":[{"internalType":"address","name":"owner","type":"address"},{"internalType":"uint256","name":"index","type":"uint256"}],"name":"ERC721OutOfBoundsIndex","type":"error"},{"inputs":[{"internalType":"address","name":"owner","type":"address"}],"name":"OwnableInvalidOwner","type":"error"},{"inputs":[{"internalType":"address","name":"account","type":"address"}],"name":"OwnableUnauthorizedAccount","type":"error"},{"anonymous":false,"inputs":[{"indexed":true,"internalType":"address","name":"owner","type":"address"},{"indexed":true,"internalType":"address","name":"approved","type":"address"},{"indexed":true,"internalType":"uint256","name":"tokenId","type":"uint256"}],"name":"Approval","type":"event"},{"anonymous":false,"inputs":[{"indexed":true,"internalType":"address","name":"owner","type":"address"},{"indexed":true,"internalType":"address","name":"operator","type":"address"},{"indexed":false,"internalType":"bool","name":"approved","type":"bool"}],"name":"ApprovalForAll","type":"event"},{"anonymous":false,"inputs":[{"indexed":false,"internalType":"uint256","name":"_fromTokenId","type":"uint256"},{"indexed":false,"internalType":"uint256","name":"_toTokenId","type":"uint256"}],"name":"BatchMetadataUpdate","type":"event"},{"anonymous":false,"inputs":[{"indexed":true,"internalType":"address","name":"to","type":"address"},{"indexed":true,"internalType":"uint256","name":"tokenId","type":"uint256"},{"indexed":false,"internalType":"enum MenoDAOMembership.Tier","name":"tier","type":"uint8"}],"name":"MembershipMinted","type":"event"},{"anonymous":false,"inputs":[{"indexed":true,"internalType":"uint256","name":"tokenId","type":"uint256"},{"indexed":false,"internalType":"enum MenoDAOMembership.Tier","name":"oldTier","type":"uint8"},{"indexed":false,"internalType":"enum MenoDAOMembership.Tier","name":"newTier","type":"uint8"}],"name":"MembershipUpgraded","type":"event"},{"anonymous":false,"inputs":[{"indexed":false,"internalType":"uint256","name":"_tokenId","type":"uint256"}],"name":"MetadataUpdate","type":"event"},{"anonymous":false,"inputs":[{"indexed":true,"internalType":"address","name":"previousOwner","type":"address"},{"indexed":true,"internalType":"address","name":"newOwner","type":"address"}],"name":"OwnershipTransferred","type":"event"},{"anonymous":false,"inputs":[{"indexed":true,"internalType":"uint256","name":"tokenId","type":"uint256"},{"indexed":false,"internalType":"bool","name":"isSoulbound","type":"bool"}],"name":"SoulboundStatusChanged","type":"event"},{"anonymous":false,"inputs":[{"indexed":true,"internalType":"address","name":"from","type":"address"},{"indexed":true,"internalType":"address","name":"to","type":"address"},{"indexed":true,"internalType":"uint256","name":"tokenId","type":"uint256"}],"name":"Transfer","type":"event"},{"inputs":[{"internalType":"address","name":"to","type":"address"},{"internalType":"uint256","name":"tokenId","type":"uint256"}],"name":"approve","outputs":[],"stateMutability":"nonpayable","type":"function"},{"inputs":[{"internalType":"address","name":"owner","type":"address"}],"name":"balanceOf","outputs":[{"internalType":"uint256","name":"","type":"uint256"}],"stateMutability":"view","type":"function"},{"inputs":[],"name":"baseExternalUrl","outputs":[{"internalType":"string","name":"","type":"string"}],"stateMutability":"view","type":"function"},{"inputs":[{"internalType":"uint256","name":"tokenId","type":"uint256"}],"name":"generateSVG","outputs":[{"internalType":"string","name":"","type":"string"}],"stateMutability":"view","type":"function"},{"inputs":[{"internalType":"uint256","name":"tokenId","type":"uint256"}],"name":"getApproved","outputs":[{"internalType":"address","name":"","type":"address"}],"stateMutability":"view","type":"function"},{"inputs":[{"internalType":"uint256","name":"tokenId","type":"uint256"}],"name":"getMembership","outputs":[{"internalType":"enum MenoDAOMembership.Tier","name":"tier","type":"uint8"},{"internalType":"uint256","name":"mintedAt","type":"uint256"},{"internalType":"bool","name":"isSoulbound","type":"bool"},{"internalType":"address","name":"owner","type":"address"}],"stateMutability":"view","type":"function"},{"inputs":[{"internalType":"address","name":"owner","type":"address"}],"name":"getTokensByOwner","outputs":[{"internalType":"uint256[]","name":"","type":"uint256[]"}],"stateMutability":"view","type":"function"},{"inputs":[{"internalType":"address","name":"owner","type":"address"},{"internalType":"address","name":"operator","type":"address"}],"name":"isApprovedForAll","outputs":[{"internalType":"bool","name":"","type":"bool"}],"stateMutability":"view","type":"function"},{"inputs":[{"internalType":"uint256","name":"","type":"uint256"}],"name":"memberships","outputs":[{"internalType":"enum MenoDAOMembership.Tier","name":"tier","type":"uint8"},{"internalType":"uint256","name":"mintedAt","type":"uint256"},{"internalType":"bool","name":"isSoulbound","type":"bool"}],"stateMutability":"view","type":"function"},{"inputs":[{"internalType":"address","name":"to","type":"address"},{"internalType":"uint256","name":"tier","type":"uint256"}],"name":"mint","outputs":[{"internalType":"uint256","name":"","type":"uint256"}],"stateMutability":"nonpayable","type":"function"},{"inputs":[],"name":"name","outputs":[{"internalType":"string","name":"","type":"string"}],"stateMutability":"view","type":"function"},{"inputs":[],"name":"owner","outputs":[{"internalType":"address","name":"","type":"address"}],"stateMutability":"view","type":"function"},{"inputs":[{"internalType":"uint256","name":"tokenId","type":"uint256"}],"name":"ownerOf","outputs":[{"internalType":"address","name":"","type":"address"}],"stateMutability":"view","type":"function"},{"inputs":[{"internalType":"uint256","name":"tokenId","type":"uint256"}],"name":"releaseSoulbound","outputs":[],"stateMutability":"nonpayable","type":"function"},{"inputs":[],"name":"renounceOwnership","outputs":[],"stateMutability":"nonpayable","type":"function"},{"inputs":[{"internalType":"address","name":"from","type":"address"},{"internalType":"address","name":"to","type":"address"},{"internalType":"uint256","name":"tokenId","type":"uint256"}],"name":"safeTransferFrom","outputs":[],"stateMutability":"nonpayable","type":"function"},{"inputs":[{"internalType":"address","name":"from","type":"address"},{"internalType":"address","name":"to","type":"address"},{"internalType":"uint256","name":"tokenId","type":"uint256"},{"internalType":"bytes","name":"data","type":"bytes"}],"name":"safeTransferFrom","outputs":[],"stateMutability":"nonpayable","type":"function"},{"inputs":[{"internalType":"address","name":"operator","type":"address"},{"internalType":"bool","name":"approved","type":"bool"}],"name":"setApprovalForAll","outputs":[],"stateMutability":"nonpayable","type":"function"},{"inputs":[{"internalType":"string","name":"newUrl","type":"string"}],"name":"setBaseExternalUrl","outputs":[],"stateMutability":"nonpayable","type":"function"},{"inputs":[{"internalType":"bytes4","name":"interfaceId","type":"bytes4"}],"name":"supportsInterface","outputs":[{"internalType":"bool","name":"","type":"bool"}],"stateMutability":"view","type":"function"},{"inputs":[],"name":"symbol","outputs":[{"internalType":"string","name":"","type":"string"}],"stateMutability":"view","type":"function"},{"inputs":[{"internalType":"enum MenoDAOMembership.Tier","name":"","type":"uint8"}],"name":"tierColors","outputs":[{"internalType":"string","name":"","type":"string"}],"stateMutability":"view","type":"function"},{"inputs":[{"internalType":"enum MenoDAOMembership.Tier","name":"","type":"uint8"}],"name":"tierNames","outputs":[{"internalType":"string","name":"","type":"string"}],"stateMutability":"view","type":"function"},{"inputs":[{"internalType":"uint256","name":"index","type":"uint256"}],"name":"tokenByIndex","outputs":[{"internalType":"uint256","name":"","type":"uint256"}],"stateMutability":"view","type":"function"},{"inputs":[{"internalType":"address","name":"owner","type":"address"},{"internalType":"uint256","name":"index","type":"uint256"}],"name":"tokenOfOwnerByIndex","outputs":[{"internalType":"uint256","name":"","type":"uint256"}],"stateMutability":"view","type":"function"},{"inputs":[{"internalType":"uint256","name":"tokenId","type":"uint256"}],"name":"tokenURI","outputs":[{"internalType":"string","name":"","type":"string"}],"stateMutability":"view","type":"function"},{"inputs":[],"name":"totalSupply","outputs":[{"internalType":"uint256","name":"","type":"uint256"}],"stateMutability":"view","type":"function"},{"inputs":[{"internalType":"address","name":"from","type":"address"},{"internalType":"address","name":"to","type":"address"},{"internalType":"uint256","name":"tokenId","type":"uint256"}],"name":"transferFrom","outputs":[],"stateMutability":"nonpayable","type":"function"},{"inputs":[{"internalType":"address","name":"newOwner","type":"address"}],"name":"transferOwnership","outputs":[],"stateMutability":"nonpayable","type":"function"},{"inputs":[{"internalType":"uint256","name":"tokenId","type":"uint256"},{"internalType":"uint256","name":"newTier","type":"uint256"}],"name":"upgradeTier","outputs":[],"stateMutability":"nonpayable","type":"function"}],"evm":{"bytecode":{"linkReferences":{},"object":"608034620004375760406001600160401b03828201818111848210176200037f578252601283526020907104d656e6f44414f204d656d626572736869760741b82850152825190838201828110828211176200037f57845260048252634d454e4f60e01b8383015284518181116200037f57806200007e5f546200043b565b96601f9788811162000407575b5085908883116001146200039f575f9262000393575b50508160011b915f199060031b1c1916175f555b81519081116200037f5780600192620000cf84546200043b565b87811162000344575b508490878311600114620002e0575f92620002d4575b50505f19600383901b1c191690821b1781555b3315620002bd57600b8054336001600160a01b03198216811790925593946011949091906001600160a01b03167f8be0079c531659141344cd1fd0a4f28419497f9722a3daafe3b4186f6b6457e05f80a36200015f600f546200043b565b8181116200029b575b505060387f68747470733a2f2f6170702e6d656e6f64616f2e6f72672f6e66742f0000000001600f55805f5260108252835f20620001b2620001ab82546200043b565b826200048e565b600e6611a1a21ba3199960c91b01905560025f5260108252835f20620001dd620001ab82546200043b565b600e660234330433043360cc1b01905560035f5260108252835f2062000208620001ab82546200043b565b600e660234646443730360cc1b0190555f52818152825f2062000230620001ab82546200043b565b600c6542726f6e7a6560d01b01905560025f52818152825f2062000259620001ab82546200043b565b600c6529b4b63b32b960d11b01905560035f5252805f2062000280620001ab82546200043b565b60086311dbdb1960e21b019055516129889081620004ba8239f35b620002b591600f5f52845f20910160051c81019062000476565b5f8062000168565b8251631e4fbdf760e01b81525f6004820152602490fd5b015190505f80620000ee565b90849350601f19831691845f52865f20925f5b888282106200032d575050841162000314575b505050811b01815562000101565b01515f1960f88460031b161c191690555f808062000306565b8385015186558897909501949384019301620002f3565b6200036e90855f52865f208980860160051c82019289871062000375575b0160051c019062000476565b5f620000d8565b9250819262000362565b634e487b7160e01b5f52604160045260245ffd5b015190505f80620000a1565b5f8080528781209350601f198516905b88828210620003f0575050908460019594939210620003d7575b505050811b015f55620000b5565b01515f1960f88460031b161c191690555f8080620003c9565b6001859682939686015181550195019301620003af565b62000430905f8052875f208a80860160051c8201928a871062000375570160051c019062000476565b5f6200008b565b5f80fd5b90600182811c921680156200046b575b60208310146200045757565b634e487b7160e01b5f52602260045260245ffd5b91607f16916200044b565b81811062000482575050565b5f815560010162000476565b90601f81116200049c575050565b620004b7915f52601f60205f20910160051c81019062000476565b56fe6080604090808252600480361015610015575f80fd5b5f3560e01c91826301ffc9a7146117dc5750816306fdde031461172f5781630777ed2014611704578163081812fc146116cc578163095ea7b3146115f157816318160ddd146115d357816323b872dd146115bc5781632f745c5914611594578163321621d71461154657816338fbf2c61461149057816340398d67146113af57816340c10f1914610eb357816342842e0e14610e855781634f6ccce714610e3057816360d7772214610d115781636352211e14610ce25781636dcee4ca14610cc357816370a0823114610c97578163715018a614610c3c5781638b75f27d14610bbf5781638da5cb5b14610b9757816395d89b4114610ae6578163a22cb46514610a25578163b88d4fde146109b9578163c506301d14610845578163c87b56dd1461035a578163de5f880d14610317578163e985e9c5146102c9578163f2fde38b1461023f575063f56026af1461016a575f80fd5b3461023b575f36600319011261023b578051600f549091825f61018c84611902565b808352602094600190866001821691825f146102195750506001146101d1575b50506101cd92916101be9103856119a2565b5192828493845283019061189b565b0390f35b90859250600f5f525f80516020612933833981519152915f925b82841061020157505050820101816101be6101ac565b8054848a0186015288955087949093019281016101eb565b60ff19168682015292151560051b850190920192508391506101be90506101ac565b5f80fd5b90503461023b57602036600319011261023b5761025a611a66565b90610263612516565b6001600160a01b039182169283156102b3575050600b54826001600160601b0360a01b821617600b55167f8be0079c531659141344cd1fd0a4f28419497f9722a3daafe3b4186f6b6457e05f80a3005b905f6024925191631e4fbdf760e01b8352820152fd5b823461023b578060031936011261023b576020906102e5611a66565b6102ed611a7c565b9060018060a01b038091165f5260058452825f2091165f52825260ff815f20541690519015158152f35b823461023b57602036600319011261023b5781359182101561023b576103476103426101cd936118eb565b6119c4565b905191829160208352602083019061189b565b90503461023b576020908160031936011261023b57803590815f526002835261038f60018060a01b03855f2054161515611e66565b815f52600d8352835f20918451906103a68261193a565b6103b460ff85541683611ea9565b60019260ff600260018701549688860197885201541692878101931515845251908082101561083257506103426103ea916118eb565b906103f481611f9f565b9161041a61041361040d61040785612542565b956127f3565b93612542565b9651612542565b9351156108125786885161042d81611986565b600381526259657360e81b82820152955b8951977103d913730b6b2911d101126b2b737a220a7960751b838a0152835195838501966104708160328d018a61187a565b8a016c204d656d62657273686970202360981b603282015261049b8251809387603f8501910161187a565b019461088b60f21b9586603f8201527f226465736372697074696f6e223a20224d656e6f44414f2044656e74616c204360418201527f61726520436f6f7065726174697665204d656d62657273686970204e46542e2060618201527f54686973204e4654206772616e74732061636365737320746f2064656e74616c60818201527f20636172652062656e6566697473206261736564206f6e206d656d626572736860a1820152691a5c081d1a595c8b888b60b21b60c18201527f22696d616765223a2022646174613a696d6167652f7376672b786d6c3b62617360cb82015263194d8d0b60e21b60eb82015261059b825180938760ef8501910161187a565b01918560ef840152701132bc3a32b93730b62fbab936111d101160791b60f1840152610102905f93600f54916105d083611902565b92600181169081156107f157506001146107a6575b5050505094609b9461066b8a9893956107559a95876106118b6101cd9f9a6107509d519485920161187a565b019283526e2261747472696275746573223a205b60881b60028401527f7b2274726169745f74797065223a202254696572222c202276616c7565223a206011840152601160f91b603184015251928390603284019061187a565b0162089f4b60ea1b60328201527f7b2274726169745f74797065223a20224d696e746564222c2022646973706c6160358201527f795f74797065223a202264617465222c202276616c7565223a2000000000000060558201526106d7825180938c606f8501910161187a565b01611f4b60f21b606f8201527f7b2274726169745f74797065223a2022536f756c626f756e64222c202276616c6071820152653ab2911d101160d11b609182015261072b825180938b60978501910161187a565b0161227d60f01b6097820152615d7d60f01b609982015203607b8101845201826119a2565b6127f3565b926101be603d825180967f646174613a6170706c69636174696f6e2f6a736f6e3b6261736536342c000000878301526107968151809289868601910161187a565b810103601d8101875201856119a2565b909192939450600f5f525f80516020612933833981519152905f915b8483106107dc575050500101908461066b856107556105e5565b80548484018701528e979092019181016107c2565b60ff1916838601525050811515909102010191508461066b856107556105e5565b86885161081e81611986565b60028152614e6f60f01b828201529561043e565b602190634e487b7160e01b5f525260245ffd5b3461023b5760208060031936011261023b5767ffffffffffffffff90823582811161023b573660238201121561023b576108889036906024818701359101611af0565b92610891612516565b83519283116109a657506108a6600f54611902565b601f8111610956575b50602090601f83116001146108eb575081925f926108e0575b50505f19600383901b1c191660019190911b17600f55005b0151905082806108c8565b90601f19831693600f5f525f80516020612933833981519152925f905b86821061093e5750508360019510610926575b505050811b01600f55005b01515f1960f88460031b161c1916905582808061091b565b80600185968294968601518155019501930190610908565b600f5f525f80516020612933833981519152601f840160051c8101916020851061099c575b601f0160051c01905b81811061099157506108af565b5f8155600101610984565b909150819061097b565b604190634e487b7160e01b5f525260245ffd5b3461023b57608036600319011261023b576109d2611a66565b6109da611a7c565b6044359060643567ffffffffffffffff811161023b573660238201121561023b57610a2394816024610a1193369301359101611af0565b92610a1d838383611b26565b336126a9565b005b823461023b578060031936011261023b57610a3e611a66565b906024358015159283820361023b573315610ad0576001600160a01b0316938415610ab95750610a8d90335f526005602052825f20855f52602052825f209060ff801983541691151516179055565b519081527f17307eab39ab6107e8899845ad3d59bd9653f200f220920489ca2b5937696c3160203392a3005b8251630b61174360e31b8152908101859052602490fd5b825163a9fbf51f60e01b81525f81870152602490fd5b823461023b575f36600319011261023b578051905f908260019260015493610b0d85611902565b90818452602095866001821691825f14610219575050600114610b3c5750506101cd92916101be9103856119a2565b9085925060015f527fb10e2d527612073b26eecdfd717e6a320cf44b4afac2b0732d9fcbe2b7fa0cf6915f925b828410610b7f57505050820101816101be6101ac565b8054848a018601528895508794909301928101610b69565b823461023b575f36600319011261023b57600b5490516001600160a01b039091168152602090f35b90503461023b57602036600319011261023b5760207fc3e8f137fddf52bd069912614ea1147dd6a0da5300b09693edf0ea0f99695cc7913592610c00612516565b5f8481526002835281902054610c20906001600160a01b03161515611e66565b835f52600d82526002815f200160ff198154169055515f8152a2005b3461023b575f36600319011261023b57610c54612516565b600b80546001600160a01b031981169091555f906001600160a01b03167f8be0079c531659141344cd1fd0a4f28419497f9722a3daafe3b4186f6b6457e08280a3005b823461023b57602036600319011261023b57602090610cbc610cb7611a66565b6124a6565b9051908152f35b823461023b57602036600319011261023b576103476101cd9235611f9f565b823461023b57602036600319011261023b57610d00602092356124dc565b90516001600160a01b039091168152f35b823461023b578060031936011261023b5781359060243592610d31612516565b5f838152600260205282902054610d52906001600160a01b03161515611e66565b600184101580610e25575b610d6690611ecd565b825f52600d60205260ff825f205416908085101561083257808210156108325781851115610de25750610ddf83947f352ffa825b5dbfd121a26e29681d13bc73231bf9d64f248978f460eaf2a1be3b945f52600d602052610dc981855f20611f08565b610dd584518094611ac7565b6020830190611ac7565ba2005b606490602084519162461bcd60e51b8352820152601f60248201527f43616e206f6e6c79207570677261646520746f206869676865722074696572006044820152fd5b506003841115610d5d565b90503461023b57602036600319011261023b57803590600854821015610e6a57602083610e5c84611f20565b91905490519160031b1c8152f35b905f604493519263295f44f760e21b84528301526024820152fd5b823461023b57610a2390610e9836611a92565b91925192610ea58461196a565b5f8452610a1d838383611b26565b90503461023b578160031936011261023b57610ecd611a66565b916024928335610edb612516565b600180821015806113a4575b610ef090611ecd565b600c54945f199687871461139257828701600c558551610f0f8161196a565b5f81526001600160a01b038681169690871561137d57899a888a928c5f5260209d8e916002835280865f205416151580611376575b61131d575b815f5260028352855f205416918215801596876112ed575b855f5260038352805f208d8154019055835f52600283525f20856001600160601b0360a01b8254161790558285857fddf252ad1be2c89b69c2b068fc378daa952ba7f163c4a11628f55a4df523b3ef5f80a41561127857600990600854925f52528c5f2055610fcf8d611f69565b0361122e575b50611219573b6110fd575b50818410156110eb578551610ff48161193a565b610ffe8582611ea9565b88810142815287820190858252895f52600d8b52885f209251858110156110d95791600291611031859461104c96611f08565b518784015551151591019060ff801983541691151516179055565b845f52600e8852855f2091825493600160401b8510156110c75784018084558410156110b6575050859392847fc9960d725fb19f1d74d3e51aec0c36b593c4fba69145a516c797b047c9f1e5cb9389935f52835f2001556110af86518092611ac7565ba351908152f35b603290634e487b7160e01b5f52525ffd5b50604190634e487b7160e01b5f52525ffd5b84602187634e487b7160e01b5f52525ffd5b634e487b7160e01b5f90815260218352fd5b9188949282995f839a969461113f8b9a9b519485938493630a85bd0160e11b98898652339086015284015289604484015260806064840152608483019061189b565b03815f8c5af15f91816111d9575b506111a65750505050503d5f1461119e573d9061116982611ad4565b91611176845193846119a2565b82523d5f8284013e5b8151918261119b575050505191633250574960e11b8352820152fd5b01fd5b60609061117f565b63ffffffff60e09a93959994969a9897981b16036111c4575f610fe0565b8551633250574960e11b815291820185905290fd5b9091508681813d8311611212575b6111f181836119a2565b8101031261023b57516001600160e01b03198116810361023b57905f61114d565b503d6111e7565b87516339e3563760e11b81525f818601528390fd5b611237836124a6565b90810190811161126657885f5260068c52895f20815f528c528a8a5f20558a5f5260078c52895f20555f610fd5565b84601187634e487b7160e01b5f52525ffd5b838303611287575b5050610fcf565b8d5f611292856124a6565b9184825260078452808220549486835260068552818320958481036112cb575b508252600784528120555f52525f8c8120558c8e611280565b848452868652828420548185528084862055845260078652828420555f6112b2565b5f84815260046020526040902080546001600160a01b0319169055845f5260038352805f20878154019055610f61565b93945050600d91505260ff60028b5f2001541661133f5790888c8c8c94610f49565b895162461bcd60e51b81528087018d905260128187015271151bdad95b881a5cc81cdbdd5b189bdd5b9960721b6044820152606490fd5b508a610f44565b8851633250574960e11b81525f818701528490fd5b634e487b7160e01b5f90815260118352fd5b506003821115610ee7565b90503461023b576020908160031936011261023b5791906113ce611a66565b906113d8826124a6565b936113e285611eb5565b946113ef855196876119a2565b8086526113fb81611eb5565b8684019490601f19013686375f5b828110611450575050505082519384938285019183865251809252840192915f5b82811061143957505050500390f35b83518552869550938101939281019260010161142a565b61145e818399979899611e0a565b865182101561147d57600582901b870186015294969594600101611409565b603285634e487b7160e01b5f525260245ffd5b90503461023b57602036600319011261023b5780355f81815260026020528390205490926001600160a01b03916114ca9083161515611e66565b835f52600d602052805f20938151916114e28361193a565b6114f060ff87541684611ea9565b60ff60026001880154976020860198895201541692818101931515845251948086101561083257506115296080965193511515926124dc565b9261153682518097611ac7565b6020860152840152166060820152f35b823461023b57602036600319011261023b57606091355f52600d602052805f209060ff8254169160ff60026001830154920154169061158783518095611ac7565b6020840152151590820152f35b823461023b578060031936011261023b57602090610cbc6115b3611a66565b60243590611e0a565b3461023b57610a236115cd36611a92565b91611b26565b823461023b575f36600319011261023b576020906008549051908152f35b823461023b578060031936011261023b5761160a611a66565b91602435611617816124dc565b331515806116b9575b80611692575b61167c576001600160a01b039485169482918691167f8c5be1e5ebec7d5bd14f71427d1e84f3dd0314c0f7b2291e5b200ac8c7c3b9255f80a45f526020525f20906001600160601b0360a01b8254161790555f80f35b835163a9fbf51f60e01b81523381850152602490fd5b5060018060a01b0381165f526005602052835f20335f5260205260ff845f20541615611626565b506001600160a01b038116331415611620565b823461023b57602036600319011261023b5781602092356116ec816124dc565b505f52825260018060a01b03815f2054169051908152f35b823461023b57602036600319011261023b5781359182101561023b576103476103426101cd936118c0565b823461023b575f36600319011261023b578051905f90825f549261175284611902565b808352602094600190866001821691825f146102195750506001146117835750506101cd92916101be9103856119a2565b5f80805286935091907f290decd9548b62a8d60345a988386fc84ba6bc95484008f6362f93160ef3e5635b8284106117c457505050820101816101be6101ac565b8054848a0186015288955087949093019281016117ae565b903461023b57602036600319011261023b57359063ffffffff60e01b821680920361023b57602091632483248360e11b811490811561181d575b5015158152f35b63780e9d6360e01b811491508115611837575b5083611816565b6380ac58cd60e01b811491508115611869575b8115611858575b5083611830565b6301ffc9a760e01b14905083611851565b635b5e139f60e01b8114915061184a565b5f5b83811061188b5750505f910152565b818101518382015260200161187c565b906020916118b48151809281855285808601910161187a565b601f01601f1916010190565b60048110156118d7575f52601060205260405f2090565b634e487b7160e01b5f52602160045260245ffd5b60048110156118d7575f52601160205260405f2090565b90600182811c92168015611930575b602083101461191c57565b634e487b7160e01b5f52602260045260245ffd5b91607f1691611911565b6060810190811067ffffffffffffffff82111761195657604052565b634e487b7160e01b5f52604160045260245ffd5b6020810190811067ffffffffffffffff82111761195657604052565b6040810190811067ffffffffffffffff82111761195657604052565b90601f8019910116810190811067ffffffffffffffff82111761195657604052565b9060405191825f82546119d681611902565b908184526020946001916001811690815f14611a445750600114611a06575b505050611a04925003836119a2565b565b5f90815285812095935091905b818310611a2c575050611a0493508201015f80806119f5565b85548884018501529485019487945091830191611a13565b92505050611a0494925060ff191682840152151560051b8201015f80806119f5565b600435906001600160a01b038216820361023b57565b602435906001600160a01b038216820361023b57565b606090600319011261023b576001600160a01b0390600435828116810361023b5791602435908116810361023b579060443590565b9060048210156118d75752565b67ffffffffffffffff811161195657601f01601f191660200190565b929192611afc82611ad4565b91611b0a60405193846119a2565b82948184528183011161023b578281602093845f960137010152565b6001600160a01b0382811693918415611df257825f5260206002815260409583875f205416151580611dea575b611d9e575b845f526002825283875f2054169533151580611d10575b5086158015611cdf575b825f5260038452885f2060018154019055865f5260028452885f20836001600160601b0360a01b8254161790558683897fddf252ad1be2c89b69c2b068fc378daa952ba7f163c4a11628f55a4df523b3ef5f80a415611c7357600854865f5260098452885f2055611be986611f69565b818703611c24575b5050501692838303611c035750505050565b6064945051926364283d7b60e01b8452600484015260248301526044820152fd5b611c2d906124a6565b5f19810192908311611c5f576007915f5260068152875f20835f52815285885f2055855f5252855f20555f8080611bf1565b634e487b7160e01b5f52601160045260245ffd5b868214611be957611c83876124a6565b865f5260078452885f205490885f5260068552895f2091818103611cbd575b50875f52600785525f8a8120555f5283525f88812055611be9565b815f528286528a5f2054815f52808c5f20555f52600786528a5f20555f611ca2565b5f87815260046020526040812080546001600160a01b03191690558881526003855289902080545f19019055611b79565b80611d5d575b15611d21575f611b6f565b878688611d3e576024915190637e27328960e01b82526004820152fd5b905163177e802f60e01b81523360048201526024810191909152604490fd5b503387148015611d82575b80611d165750855f52600483523385895f20541614611d16565b50865f5260058352875f20335f52835260ff885f205416611d68565b600d825260ff6002885f2001541615611b5857865162461bcd60e51b8152600481018390526012602482015271151bdad95b881a5cc81cdbdd5b189bdd5b9960721b6044820152606490fd5b506001611b53565b604051633250574960e11b81525f6004820152602490fd5b611e13816124a6565b821015611e3b5760018060a01b03165f52600660205260405f20905f5260205260405f205490565b60405163295f44f760e21b81526001600160a01b039190911660048201526024810191909152604490fd5b15611e6d57565b60405162461bcd60e51b8152602060048201526014602482015273151bdad95b88191bd95cc81b9bdd08195e1a5cdd60621b6044820152606490fd5b60048210156118d75752565b67ffffffffffffffff81116119565760051b60200190565b15611ed457565b60405162461bcd60e51b815260206004820152600c60248201526b24b73b30b634b2103a34b2b960a11b6044820152606490fd5b9060048110156118d75760ff80198354169116179055565b600854811015611f555760085f527ff3f7a9fe364faab93b216da50a3214154f22a0a2b415b23a84c8169e8b636ee301905f90565b634e487b7160e01b5f52603260045260245ffd5b600854600160401b81101561195657806001611f889201600855611f20565b819291549060031b91821b915f19901b1916179055565b805f526020600d815260405f2060ff600260405192611fbd8461193a565b611fca8382541685611ea9565b60018101548585015201541615156040820152805160048110156118d757610342611ff4916118c0565b90519060048210156118d7576124a39261201c61201661034261036f956118eb565b95612542565b946040519586937f3c73766720786d6c6e733d22687474703a2f2f7777772e77332e6f72672f3230848601527f30302f737667222076696577426f783d223020302034303020343030223e00006040860152651e3232b3399f60d11b605e8601527f3c6c696e6561724772616469656e742069643d226267222078313d223025222060648601527f79313d223025222078323d2231303025222079323d2231303025223e0000000060848601527f3c73746f70206f66667365743d22302522207374796c653d2273746f702d636f60a08601526d3637b91d1198b098b0993291179f60911b60c08601527f3c73746f70206f66667365743d223130302522207374796c653d2273746f702d60ce8601526f31b7b637b91d11989b191899b291179f60811b60ee860152701e17b634b732b0b923b930b234b2b73a1f60791b60fe860152661e17b232b3399f60c91b61010f8601527f3c726563742077696474683d2234303022206865696768743d223430302220666101168601526f34b6361e913ab9361411b1339491179f60811b6101368601527f3c636972636c652063783d22323030222063793d223135302220723d2238302261014686015266103334b6361e9160c91b61016686015261016d92661026b2b6b132b960c91b8251918684019261220c81888b018661187a565b88019570111037b830b1b4ba3c9e9118171c91179f60791b908701527f3c7465787420783d223230302220793d223136302220666f6e742d66616d696c61017e8701527f2220746578742d616e63686f723d226d6964646c65223e0000000000000000007f793d22417269616c2c2073616e732d73657269662220666f6e742d73697a653d938461019e8901527f223430222066696c6c3d2277686974652220746578742d616e63686f723d226d6101be8901527f6964646c652220666f6e742d7765696768743d22626f6c64223e00000000000097886101de82015263f09fa6b760e01b6101f8820152661e17ba32bc3a1f60c91b98896101fc8301527f3c7465787420783d223230302220793d223237302220666f6e742d66616d696c610203830152866102238301527f223238222066696c6c3d2277686974652220746578742d616e63686f723d226d610243830152610263820152664d656e6f44414f60c81b61027d820152886102848201527f3c7465787420783d223230302220793d223331302220666f6e742d66616d696c61028b820152856102ab8201526a11191811103334b6361e9160a91b6102cb8201526123d36102d6975180938984019061187a565b01948501526102ed936123ee825180938a888501910161187a565b0192830152836102f48301527f3c7465787420783d223230302220793d223337302220666f6e742d66616d696c6102fb83015261031b8201527f223132222066696c6c3d22233838382220746578742d616e63686f723d226d6961033b8201526532323632911f60d11b61035b820152602360f81b61036182015261247f610362948351938491878501910161187a565b0191820152651e17b9bb339f60d11b6103698201520361034f8101845201826119a2565b90565b6001600160a01b031680156124c4575f52600360205260405f205490565b6040516322718ad960e21b81525f6004820152602490fd5b5f818152600260205260409020546001600160a01b03169081156124fe575090565b60249060405190637e27328960e01b82526004820152fd5b600b546001600160a01b0316330361252a57565b60405163118cdaa760e01b8152336004820152602490fd5b805f917a184f03e93ff9f4daa797ed6e38ed64bf6a1f0100000000000000008082101561269b575b506d04ee2d6d415b85acef81000000008083101561268c575b50662386f26fc100008083101561267d575b506305f5e1008083101561266e575b506127108083101561265f575b50606482101561264f575b600a80921015612645575b60019081602160018601956125db87611ad4565b966125e960405198896119a2565b8088526125f8601f1991611ad4565b01366020890137860101905b612610575b5050505090565b5f19019083906f181899199a1a9b1b9c1cb0b131b232b360811b8282061a83530491821561264057919082612604565b612609565b91600101916125c7565b91906064600291049101916125bc565b6004919392049101915f6125b1565b6008919392049101915f6125a4565b6010919392049101915f612595565b6020919392049101915f612583565b60409350810491505f61256a565b9293909193843b6126bc575b5050505050565b604051630a85bd0160e11b8082526001600160a01b03958616600483015293851660248201526044810191909152608060648201526020959490931693929085908290819061270f90608483019061189b565b03815f885af15f91816127b3575b5061277c575050503d5f14612774573d9161273783611ad4565b9261274560405194856119a2565b83523d5f8285013e5b8251928361276f57604051633250574960e11b815260048101849052602490fd5b019050fd5b60609161274e565b9193506001600160e01b03199091160361279b57505f808080806126b5565b60249060405190633250574960e11b82526004820152fd5b9091508581813d83116127ec575b6127cb81836119a2565b8101031261023b57516001600160e01b03198116810361023b57905f61271d565b503d6127c1565b80511561291f578051916002808401809411611c5f57600393849004600281901b91906001600160fe1b03811603611c5f5793604051937f4142434445464748494a4b4c4d4e4f505152535455565758595a616263646566601f52603f917f6768696a6b6c6d6e6f707172737475767778797a303132333435363738392b2f603f5260208601928291835184019160208301998a51945f8c525b8481106128e3575050505050906003916020959697525106806001146128ce576002146128c1575b50808452830101604052565b603d905f1901535f6128b5565b50603d90815f1982015360011901535f6128b5565b836004919c95989c019b838d51818160121c165183538181600c1c16516001840153818160061c1651858401531651858201530196939a61288d565b5060405161292c8161196a565b5f81529056fe8d1108e10bcb7c27dddfc02ed9d693a074039d026cf4ea4240b40f7d581ac802a2646970667358221220e8a2312312ca405003eea80a7305f5e55508812ae968f079176db804a75e367964736f6c63430008180033","opcodes":"PUSH1 0x80 CALLVALUE PUSH3 0x437 JUMPI PUSH1 0x40 PUSH1 0x1 PUSH1 0x1 PUSH1 0x40 SHL SUB DUP3 DUP3 ADD DUP2 DUP2 GT DUP5 DUP3 LT OR PUSH3 0x37F JUMPI DUP3 MSTORE PUSH1 0x12 DUP4 MSTORE PUSH1 0x20 SWAP1 PUSH18 0x4D656E6F44414F204D656D6265727368697 PUSH1 0x74 SHL DUP3 DUP6 ADD MSTORE DUP3 MLOAD SWAP1 DUP4 DUP3 ADD DUP3 DUP2 LT DUP3 DUP3 GT OR PUSH3 0x37F JUMPI DUP5 MSTORE PUSH1 0x4 DUP3 MSTORE PUSH4 0x4D454E4F PUSH1 0xE0 SHL DUP4 DUP4 ADD MSTORE DUP5 MLOAD DUP2 DUP2 GT PUSH3 0x37F JUMPI DUP1 PUSH3 0x7E PUSH0 SLOAD PUSH3 0x43B JUMP JUMPDEST SWAP7 PUSH1 0x1F SWAP8 DUP9 DUP2 GT PUSH3 0x407 JUMPI JUMPDEST POP DUP6 SWAP1 DUP9 DUP4 GT PUSH1 0x1 EQ PUSH3 0x39F JUMPI PUSH0 SWAP3 PUSH3 0x393 JUMPI JUMPDEST POP POP DUP2 PUSH1 0x1 SHL SWAP2 PUSH0 NOT SWAP1 PUSH1 0x3 SHL SHR NOT AND OR PUSH0 SSTORE JUMPDEST DUP2 MLOAD SWAP1 DUP2 GT PUSH3 0x37F JUMPI DUP1 PUSH1 0x1 SWAP3 PUSH3 0xCF DUP5 SLOAD PUSH3 0x43B JUMP JUMPDEST DUP8 DUP2 GT PUSH3 0x344 JUMPI JUMPDEST POP DUP5 SWAP1 DUP8 DUP4 GT PUSH1 0x1 EQ PUSH3 0x2E0 JUMPI PUSH0 SWAP3 PUSH3 0x2D4 JUMPI JUMPDEST POP POP PUSH0 NOT PUSH1 0x3 DUP4 SWAP1 SHL SHR NOT AND SWAP1 DUP3 SHL OR DUP2 SSTORE JUMPDEST CALLER ISZERO PUSH3 0x2BD JUMPI PUSH1 0xB DUP1 SLOAD CALLER PUSH1 0x1 PUSH1 0x1 PUSH1 0xA0 SHL SUB NOT DUP3 AND DUP2 OR SWAP1 SWAP3 SSTORE SWAP4 SWAP5 PUSH1 0x11 SWAP5 SWAP1 SWAP2 SWAP1 PUSH1 0x1 PUSH1 0x1 PUSH1 0xA0 SHL SUB AND PUSH32 0x8BE0079C531659141344CD1FD0A4F28419497F9722A3DAAFE3B4186F6B6457E0 PUSH0 DUP1 LOG3 PUSH3 0x15F PUSH1 0xF SLOAD PUSH3 0x43B JUMP JUMPDEST DUP2 DUP2 GT PUSH3 0x29B JUMPI JUMPDEST POP POP PUSH1 0x38 PUSH32 0x68747470733A2F2F6170702E6D656E6F64616F2E6F72672F6E66742F00000000 ADD PUSH1 0xF SSTORE DUP1 PUSH0 MSTORE PUSH1 0x10 DUP3 MSTORE DUP4 PUSH0 KECCAK256 PUSH3 0x1B2 PUSH3 0x1AB DUP3 SLOAD PUSH3 0x43B JUMP JUMPDEST DUP3 PUSH3 0x48E JUMP JUMPDEST PUSH1 0xE PUSH7 0x11A1A21BA31999 PUSH1 0xC9 SHL ADD SWAP1 SSTORE PUSH1 0x2 PUSH0 MSTORE PUSH1 0x10 DUP3 MSTORE DUP4 PUSH0 KECCAK256 PUSH3 0x1DD PUSH3 0x1AB DUP3 SLOAD PUSH3 0x43B JUMP JUMPDEST PUSH1 0xE PUSH7 0x2343304330433 PUSH1 0xCC SHL ADD SWAP1 SSTORE PUSH1 0x3 PUSH0 MSTORE PUSH1 0x10 DUP3 MSTORE DUP4 PUSH0 KECCAK256 PUSH3 0x208 PUSH3 0x1AB DUP3 SLOAD PUSH3 0x43B JUMP JUMPDEST PUSH1 0xE PUSH7 0x2346464437303 PUSH1 0xCC SHL ADD SWAP1 SSTORE PUSH0 MSTORE DUP2 DUP2 MSTORE DUP3 PUSH0 KECCAK256 PUSH3 0x230 PUSH3 0x1AB DUP3 SLOAD PUSH3 0x43B JUMP JUMPDEST PUSH1 0xC PUSH6 0x42726F6E7A65 PUSH1 0xD0 SHL ADD SWAP1 SSTORE PUSH1 0x2 PUSH0 MSTORE DUP2 DUP2 MSTORE DUP3 PUSH0 KECCAK256 PUSH3 0x259 PUSH3 0x1AB DUP3 SLOAD PUSH3 0x43B JUMP JUMPDEST PUSH1 0xC PUSH6 0x29B4B63B32B9 PUSH1 0xD1 SHL ADD SWAP1 SSTORE PUSH1 0x3 PUSH0 MSTORE MSTORE DUP1 PUSH0 KECCAK256 PUSH3 0x280 PUSH3 0x1AB DUP3 SLOAD PUSH3 0x43B JUMP JUMPDEST PUSH1 0x8 PUSH4 0x11DBDB19 PUSH1 0xE2 SHL ADD SWAP1 SSTORE MLOAD PUSH2 0x2988 SWAP1 DUP2 PUSH3 0x4BA DUP3 CODECOPY RETURN JUMPDEST PUSH3 0x2B5 SWAP2 PUSH1 0xF PUSH0 MSTORE DUP5 PUSH0 KECCAK256 SWAP2 ADD PUSH1 0x5 SHR DUP2 ADD SWAP1 PUSH3 0x476 JUMP JUMPDEST PUSH0 DUP1 PUSH3 0x168 JUMP JUMPDEST DUP3 MLOAD PUSH4 0x1E4FBDF7 PUSH1 0xE0 SHL DUP2 MSTORE PUSH0 PUSH1 0x4 DUP3 ADD MSTORE PUSH1 0x24 SWAP1 REVERT JUMPDEST ADD MLOAD SWAP1 POP PUSH0 DUP1 PUSH3 0xEE JUMP JUMPDEST SWAP1 DUP5 SWAP4 POP PUSH1 0x1F NOT DUP4 AND SWAP2 DUP5 PUSH0 MSTORE DUP7 PUSH0 KECCAK256 SWAP3 PUSH0 JUMPDEST DUP9 DUP3 DUP3 LT PUSH3 0x32D JUMPI POP POP DUP5 GT PUSH3 0x314 JUMPI JUMPDEST POP POP POP DUP2 SHL ADD DUP2 SSTORE PUSH3 0x101 JUMP JUMPDEST ADD MLOAD PUSH0 NOT PUSH1 0xF8 DUP5 PUSH1 0x3 SHL AND SHR NOT AND SWAP1 SSTORE PUSH0 DUP1 DUP1 PUSH3 0x306 JUMP JUMPDEST DUP4 DUP6 ADD MLOAD DUP7 SSTORE DUP9 SWAP8 SWAP1 SWAP6 ADD SWAP5 SWAP4 DUP5 ADD SWAP4 ADD PUSH3 0x2F3 JUMP JUMPDEST PUSH3 0x36E SWAP1 DUP6 PUSH0 MSTORE DUP7 PUSH0 KECCAK256 DUP10 DUP1 DUP7 ADD PUSH1 0x5 SHR DUP3 ADD SWAP3 DUP10 DUP8 LT PUSH3 0x375 JUMPI JUMPDEST ADD PUSH1 0x5 SHR ADD SWAP1 PUSH3 0x476 JUMP JUMPDEST PUSH0 PUSH3 0xD8 JUMP JUMPDEST SWAP3 POP DUP2 SWAP3 PUSH3 0x362 JUMP JUMPDEST PUSH4 0x4E487B71 PUSH1 0xE0 SHL PUSH0 MSTORE PUSH1 0x41 PUSH1 0x4 MSTORE PUSH1 0x24 PUSH0 REVERT JUMPDEST ADD MLOAD SWAP1 POP PUSH0 DUP1 PUSH3 0xA1 JUMP JUMPDEST PUSH0 DUP1 DUP1 MSTORE DUP8 DUP2 KECCAK256 SWAP4 POP PUSH1 0x1F NOT DUP6 AND SWAP1 JUMPDEST DUP9 DUP3 DUP3 LT PUSH3 0x3F0 JUMPI POP POP SWAP1 DUP5 PUSH1 0x1 SWAP6 SWAP5 SWAP4 SWAP3 LT PUSH3 0x3D7 JUMPI JUMPDEST POP POP POP DUP2 SHL ADD PUSH0 SSTORE PUSH3 0xB5 JUMP JUMPDEST ADD MLOAD PUSH0 NOT PUSH1 0xF8 DUP5 PUSH1 0x3 SHL AND SHR NOT AND SWAP1 SSTORE PUSH0 DUP1 DUP1 PUSH3 0x3C9 JUMP JUMPDEST PUSH1 0x1 DUP6 SWAP7 DUP3 SWAP4 SWAP7 DUP7 ADD MLOAD DUP2 SSTORE ADD SWAP6 ADD SWAP4 ADD PUSH3 0x3AF JUMP JUMPDEST PUSH3 0x430 SWAP1 PUSH0 DUP1 MSTORE DUP8 PUSH0 KECCAK256 DUP11 DUP1 DUP7 ADD PUSH1 0x5 SHR DUP3 ADD SWAP3 DUP11 DUP8 LT PUSH3 0x375 JUMPI ADD PUSH1 0x5 SHR ADD SWAP1 PUSH3 0x476 JUMP JUMPDEST PUSH0 PUSH3 0x8B JUMP JUMPDEST PUSH0 DUP1 REVERT JUMPDEST SWAP1 PUSH1 0x1 DUP3 DUP2 SHR SWAP3 AND DUP1 ISZERO PUSH3 0x46B JUMPI JUMPDEST PUSH1 0x20 DUP4 LT EQ PUSH3 0x457 JUMPI JUMP JUMPDEST PUSH4 0x4E487B71 PUSH1 0xE0 SHL PUSH0 MSTORE PUSH1 0x22 PUSH1 0x4 MSTORE PUSH1 0x24 PUSH0 REVERT JUMPDEST SWAP2 PUSH1 0x7F AND SWAP2 PUSH3 0x44B JUMP JUMPDEST DUP2 DUP2 LT PUSH3 0x482 JUMPI POP POP JUMP JUMPDEST PUSH0 DUP2 SSTORE PUSH1 0x1 ADD PUSH3 0x476 JUMP JUMPDEST SWAP1 PUSH1 0x1F DUP2 GT PUSH3 0x49C JUMPI POP POP JUMP JUMPDEST PUSH3 0x4B7 SWAP2 PUSH0 MSTORE PUSH1 0x1F PUSH1 0x20 PUSH0 KECCAK256 SWAP2 ADD PUSH1 0x5 SHR DUP2 ADD SWAP1 PUSH3 0x476 JUMP JUMPDEST JUMP INVALID PUSH1 0x80 PUSH1 0x40 SWAP1 DUP1 DUP3 MSTORE PUSH1 0x4 DUP1 CALLDATASIZE LT ISZERO PUSH2 0x15 JUMPI PUSH0 DUP1 REVERT JUMPDEST PUSH0 CALLDATALOAD PUSH1 0xE0 SHR SWAP2 DUP3 PUSH4 0x1FFC9A7 EQ PUSH2 0x17DC JUMPI POP DUP2 PUSH4 0x6FDDE03 EQ PUSH2 0x172F JUMPI DUP2 PUSH4 0x777ED20 EQ PUSH2 0x1704 JUMPI DUP2 PUSH4 0x81812FC EQ PUSH2 0x16CC JUMPI DUP2 PUSH4 0x95EA7B3 EQ PUSH2 0x15F1 JUMPI DUP2 PUSH4 0x18160DDD EQ PUSH2 0x15D3 JUMPI DUP2 PUSH4 0x23B872DD EQ PUSH2 0x15BC JUMPI DUP2 PUSH4 0x2F745C59 EQ PUSH2 0x1594 JUMPI DUP2 PUSH4 0x321621D7 EQ PUSH2 0x1546 JUMPI DUP2 PUSH4 0x38FBF2C6 EQ PUSH2 0x1490 JUMPI DUP2 PUSH4 0x40398D67 EQ PUSH2 0x13AF JUMPI DUP2 PUSH4 0x40C10F19 EQ PUSH2 0xEB3 JUMPI DUP2 PUSH4 0x42842E0E EQ PUSH2 0xE85 JUMPI DUP2 PUSH4 0x4F6CCCE7 EQ PUSH2 0xE30 JUMPI DUP2 PUSH4 0x60D77722 EQ PUSH2 0xD11 JUMPI DUP2 PUSH4 0x6352211E EQ PUSH2 0xCE2 JUMPI DUP2 PUSH4 0x6DCEE4CA EQ PUSH2 0xCC3 JUMPI DUP2 PUSH4 0x70A08231 EQ PUSH2 0xC97 JUMPI DUP2 PUSH4 0x715018A6 EQ PUSH2 0xC3C JUMPI DUP2 PUSH4 0x8B75F27D EQ PUSH2 0xBBF JUMPI DUP2 PUSH4 0x8DA5CB5B EQ PUSH2 0xB97 JUMPI DUP2 PUSH4 0x95D89B41 EQ PUSH2 0xAE6 JUMPI DUP2 PUSH4 0xA22CB465 EQ PUSH2 0xA25 JUMPI DUP2 PUSH4 0xB88D4FDE EQ PUSH2 0x9B9 JUMPI DUP2 PUSH4 0xC506301D EQ PUSH2 0x845 JUMPI DUP2 PUSH4 0xC87B56DD EQ PUSH2 0x35A JUMPI DUP2 PUSH4 0xDE5F880D EQ PUSH2 0x317 JUMPI DUP2 PUSH4 0xE985E9C5 EQ PUSH2 0x2C9 JUMPI DUP2 PUSH4 0xF2FDE38B EQ PUSH2 0x23F JUMPI POP PUSH4 0xF56026AF EQ PUSH2 0x16A JUMPI PUSH0 DUP1 REVERT JUMPDEST CALLVALUE PUSH2 0x23B JUMPI PUSH0 CALLDATASIZE PUSH1 0x3 NOT ADD SLT PUSH2 0x23B JUMPI DUP1 MLOAD PUSH1 0xF SLOAD SWAP1 SWAP2 DUP3 PUSH0 PUSH2 0x18C DUP5 PUSH2 0x1902 JUMP JUMPDEST DUP1 DUP4 MSTORE PUSH1 0x20 SWAP5 PUSH1 0x1 SWAP1 DUP7 PUSH1 0x1 DUP3 AND SWAP2 DUP3 PUSH0 EQ PUSH2 0x219 JUMPI POP POP PUSH1 0x1 EQ PUSH2 0x1D1 JUMPI JUMPDEST POP POP PUSH2 0x1CD SWAP3 SWAP2 PUSH2 0x1BE SWAP2 SUB DUP6 PUSH2 0x19A2 JUMP JUMPDEST MLOAD SWAP3 DUP3 DUP5 SWAP4 DUP5 MSTORE DUP4 ADD SWAP1 PUSH2 0x189B JUMP JUMPDEST SUB SWAP1 RETURN JUMPDEST SWAP1 DUP6 SWAP3 POP PUSH1 0xF PUSH0 MSTORE PUSH0 DUP1 MLOAD PUSH1 0x20 PUSH2 0x2933 DUP4 CODECOPY DUP2 MLOAD SWAP2 MSTORE SWAP2 PUSH0 SWAP3 JUMPDEST DUP3 DUP5 LT PUSH2 0x201 JUMPI POP POP POP DUP3 ADD ADD DUP2 PUSH2 0x1BE PUSH2 0x1AC JUMP JUMPDEST DUP1 SLOAD DUP5 DUP11 ADD DUP7 ADD MSTORE DUP9 SWAP6 POP DUP8 SWAP5 SWAP1 SWAP4 ADD SWAP3 DUP2 ADD PUSH2 0x1EB JUMP JUMPDEST PUSH1 0xFF NOT AND DUP7 DUP3 ADD MSTORE SWAP3 ISZERO ISZERO PUSH1 0x5 SHL DUP6 ADD SWAP1 SWAP3 ADD SWAP3 POP DUP4 SWAP2 POP PUSH2 0x1BE SWAP1 POP PUSH2 0x1AC JUMP JUMPDEST PUSH0 DUP1 REVERT JUMPDEST SWAP1 POP CALLVALUE PUSH2 0x23B JUMPI PUSH1 0x20 CALLDATASIZE PUSH1 0x3 NOT ADD SLT PUSH2 0x23B JUMPI PUSH2 0x25A PUSH2 0x1A66 JUMP JUMPDEST SWAP1 PUSH2 0x263 PUSH2 0x2516 JUMP JUMPDEST PUSH1 0x1 PUSH1 0x1 PUSH1 0xA0 SHL SUB SWAP2 DUP3 AND SWAP3 DUP4 ISZERO PUSH2 0x2B3 JUMPI POP POP PUSH1 0xB SLOAD DUP3 PUSH1 0x1 PUSH1 0x1 PUSH1 0x60 SHL SUB PUSH1 0xA0 SHL DUP3 AND OR PUSH1 0xB SSTORE AND PUSH32 0x8BE0079C531659141344CD1FD0A4F28419497F9722A3DAAFE3B4186F6B6457E0 PUSH0 DUP1 LOG3 STOP JUMPDEST SWAP1 PUSH0 PUSH1 0x24 SWAP3 MLOAD SWAP2 PUSH4 0x1E4FBDF7 PUSH1 0xE0 SHL DUP4 MSTORE DUP3 ADD MSTORE REVERT JUMPDEST DUP3 CALLVALUE PUSH2 0x23B JUMPI DUP1 PUSH1 0x3 NOT CALLDATASIZE ADD SLT PUSH2 0x23B JUMPI PUSH1 0x20 SWAP1 PUSH2 0x2E5 PUSH2 0x1A66 JUMP JUMPDEST PUSH2 0x2ED PUSH2 0x1A7C JUMP JUMPDEST SWAP1 PUSH1 0x1 DUP1 PUSH1 0xA0 SHL SUB DUP1 SWAP2 AND PUSH0 MSTORE PUSH1 0x5 DUP5 MSTORE DUP3 PUSH0 KECCAK256 SWAP2 AND PUSH0 MSTORE DUP3 MSTORE PUSH1 0xFF DUP2 PUSH0 KECCAK256 SLOAD AND SWAP1 MLOAD SWAP1 ISZERO ISZERO DUP2 MSTORE RETURN JUMPDEST DUP3 CALLVALUE PUSH2 0x23B JUMPI PUSH1 0x20 CALLDATASIZE PUSH1 0x3 NOT ADD SLT PUSH2 0x23B JUMPI DUP2 CALLDATALOAD SWAP2 DUP3 LT ISZERO PUSH2 0x23B JUMPI PUSH2 0x347 PUSH2 0x342 PUSH2 0x1CD SWAP4 PUSH2 0x18EB JUMP JUMPDEST PUSH2 0x19C4 JUMP JUMPDEST SWAP1 MLOAD SWAP2 DUP3 SWAP2 PUSH1 0x20 DUP4 MSTORE PUSH1 0x20 DUP4 ADD SWAP1 PUSH2 0x189B JUMP JUMPDEST SWAP1 POP CALLVALUE PUSH2 0x23B JUMPI PUSH1 0x20 SWAP1 DUP2 PUSH1 0x3 NOT CALLDATASIZE ADD SLT PUSH2 0x23B JUMPI DUP1 CALLDATALOAD SWAP1 DUP2 PUSH0 MSTORE PUSH1 0x2 DUP4 MSTORE PUSH2 0x38F PUSH1 0x1 DUP1 PUSH1 0xA0 SHL SUB DUP6 PUSH0 KECCAK256 SLOAD AND ISZERO ISZERO PUSH2 0x1E66 JUMP JUMPDEST DUP2 PUSH0 MSTORE PUSH1 0xD DUP4 MSTORE DUP4 PUSH0 KECCAK256 SWAP2 DUP5 MLOAD SWAP1 PUSH2 0x3A6 DUP3 PUSH2 0x193A JUMP JUMPDEST PUSH2 0x3B4 PUSH1 0xFF DUP6 SLOAD AND DUP4 PUSH2 0x1EA9 JUMP JUMPDEST PUSH1 0x1 SWAP3 PUSH1 0xFF PUSH1 0x2 PUSH1 0x1 DUP8 ADD SLOAD SWAP7 DUP9 DUP7 ADD SWAP8 DUP9 MSTORE ADD SLOAD AND SWAP3 DUP8 DUP2 ADD SWAP4 ISZERO ISZERO DUP5 MSTORE MLOAD SWAP1 DUP1 DUP3 LT ISZERO PUSH2 0x832 JUMPI POP PUSH2 0x342 PUSH2 0x3EA SWAP2 PUSH2 0x18EB JUMP JUMPDEST SWAP1 PUSH2 0x3F4 DUP2 PUSH2 0x1F9F JUMP JUMPDEST SWAP2 PUSH2 0x41A PUSH2 0x413 PUSH2 0x40D PUSH2 0x407 DUP6 PUSH2 0x2542 JUMP JUMPDEST SWAP6 PUSH2 0x27F3 JUMP JUMPDEST SWAP4 PUSH2 0x2542 JUMP JUMPDEST SWAP7 MLOAD PUSH2 0x2542 JUMP JUMPDEST SWAP4 MLOAD ISZERO PUSH2 0x812 JUMPI DUP7 DUP9 MLOAD PUSH2 0x42D DUP2 PUSH2 0x1986 JUMP JUMPDEST PUSH1 0x3 DUP2 MSTORE PUSH3 0x596573 PUSH1 0xE8 SHL DUP3 DUP3 ADD MSTORE SWAP6 JUMPDEST DUP10 MLOAD SWAP8 PUSH18 0x3D913730B6B2911D101126B2B737A220A79 PUSH1 0x75 SHL DUP4 DUP11 ADD MSTORE DUP4 MLOAD SWAP6 DUP4 DUP6 ADD SWAP7 PUSH2 0x470 DUP2 PUSH1 0x32 DUP14 ADD DUP11 PUSH2 0x187A JUMP JUMPDEST DUP11 ADD PUSH13 0x204D656D626572736869702023 PUSH1 0x98 SHL PUSH1 0x32 DUP3 ADD MSTORE PUSH2 0x49B DUP3 MLOAD DUP1 SWAP4 DUP8 PUSH1 0x3F DUP6 ADD SWAP2 ADD PUSH2 0x187A JUMP JUMPDEST ADD SWAP5 PUSH2 0x88B PUSH1 0xF2 SHL SWAP6 DUP7 PUSH1 0x3F DUP3 ADD MSTORE PUSH32 0x226465736372697074696F6E223A20224D656E6F44414F2044656E74616C2043 PUSH1 0x41 DUP3 ADD MSTORE PUSH32 0x61726520436F6F7065726174697665204D656D62657273686970204E46542E20 PUSH1 0x61 DUP3 ADD MSTORE PUSH32 0x54686973204E4654206772616E74732061636365737320746F2064656E74616C PUSH1 0x81 DUP3 ADD MSTORE PUSH32 0x20636172652062656E6566697473206261736564206F6E206D656D6265727368 PUSH1 0xA1 DUP3 ADD MSTORE PUSH10 0x1A5C081D1A595C8B888B PUSH1 0xB2 SHL PUSH1 0xC1 DUP3 ADD MSTORE PUSH32 0x22696D616765223A2022646174613A696D6167652F7376672B786D6C3B626173 PUSH1 0xCB DUP3 ADD MSTORE PUSH4 0x194D8D0B PUSH1 0xE2 SHL PUSH1 0xEB DUP3 ADD MSTORE PUSH2 0x59B DUP3 MLOAD DUP1 SWAP4 DUP8 PUSH1 0xEF DUP6 ADD SWAP2 ADD PUSH2 0x187A JUMP JUMPDEST ADD SWAP2 DUP6 PUSH1 0xEF DUP5 ADD MSTORE PUSH17 0x1132BC3A32B93730B62FBAB936111D1011 PUSH1 0x79 SHL PUSH1 0xF1 DUP5 ADD MSTORE PUSH2 0x102 SWAP1 PUSH0 SWAP4 PUSH1 0xF SLOAD SWAP2 PUSH2 0x5D0 DUP4 PUSH2 0x1902 JUMP JUMPDEST SWAP3 PUSH1 0x1 DUP2 AND SWAP1 DUP2 ISZERO PUSH2 0x7F1 JUMPI POP PUSH1 0x1 EQ PUSH2 0x7A6 JUMPI JUMPDEST POP POP POP POP SWAP5 PUSH1 0x9B SWAP5 PUSH2 0x66B DUP11 SWAP9 SWAP4 SWAP6 PUSH2 0x755 SWAP11 SWAP6 DUP8 PUSH2 0x611 DUP12 PUSH2 0x1CD SWAP16 SWAP11 PUSH2 0x750 SWAP14 MLOAD SWAP5 DUP6 SWAP3 ADD PUSH2 0x187A JUMP JUMPDEST ADD SWAP3 DUP4 MSTORE PUSH15 0x2261747472696275746573223A205B PUSH1 0x88 SHL PUSH1 0x2 DUP5 ADD MSTORE PUSH32 0x7B2274726169745F74797065223A202254696572222C202276616C7565223A20 PUSH1 0x11 DUP5 ADD MSTORE PUSH1 0x11 PUSH1 0xF9 SHL PUSH1 0x31 DUP5 ADD MSTORE MLOAD SWAP3 DUP4 SWAP1 PUSH1 0x32 DUP5 ADD SWAP1 PUSH2 0x187A JUMP JUMPDEST ADD PUSH3 0x89F4B PUSH1 0xEA SHL PUSH1 0x32 DUP3 ADD MSTORE PUSH32 0x7B2274726169745F74797065223A20224D696E746564222C2022646973706C61 PUSH1 0x35 DUP3 ADD MSTORE PUSH32 0x795F74797065223A202264617465222C202276616C7565223A20000000000000 PUSH1 0x55 DUP3 ADD MSTORE PUSH2 0x6D7 DUP3 MLOAD DUP1 SWAP4 DUP13 PUSH1 0x6F DUP6 ADD SWAP2 ADD PUSH2 0x187A JUMP JUMPDEST ADD PUSH2 0x1F4B PUSH1 0xF2 SHL PUSH1 0x6F DUP3 ADD MSTORE PUSH32 0x7B2274726169745F74797065223A2022536F756C626F756E64222C202276616C PUSH1 0x71 DUP3 ADD MSTORE PUSH6 0x3AB2911D1011 PUSH1 0xD1 SHL PUSH1 0x91 DUP3 ADD MSTORE PUSH2 0x72B DUP3 MLOAD DUP1 SWAP4 DUP12 PUSH1 0x97 DUP6 ADD SWAP2 ADD PUSH2 0x187A JUMP JUMPDEST ADD PUSH2 0x227D PUSH1 0xF0 SHL PUSH1 0x97 DUP3 ADD MSTORE PUSH2 0x5D7D PUSH1 0xF0 SHL PUSH1 0x99 DUP3 ADD MSTORE SUB PUSH1 0x7B DUP2 ADD DUP5 MSTORE ADD DUP3 PUSH2 0x19A2 JUMP JUMPDEST PUSH2 0x27F3 JUMP JUMPDEST SWAP3 PUSH2 0x1BE PUSH1 0x3D DUP3 MLOAD DUP1 SWAP7 PUSH32 0x646174613A6170706C69636174696F6E2F6A736F6E3B6261736536342C000000 DUP8 DUP4 ADD MSTORE PUSH2 0x796 DUP2 MLOAD DUP1 SWAP3 DUP10 DUP7 DUP7 ADD SWAP2 ADD PUSH2 0x187A JUMP JUMPDEST DUP2 ADD SUB PUSH1 0x1D DUP2 ADD DUP8 MSTORE ADD DUP6 PUSH2 0x19A2 JUMP JUMPDEST SWAP1 SWAP2 SWAP3 SWAP4 SWAP5 POP PUSH1 0xF PUSH0 MSTORE PUSH0 DUP1 MLOAD PUSH1 0x20 PUSH2 0x2933 DUP4 CODECOPY DUP2 MLOAD SWAP2 MSTORE SWAP1 PUSH0 SWAP2 JUMPDEST DUP5 DUP4 LT PUSH2 0x7DC JUMPI POP POP POP ADD ADD SWAP1 DUP5 PUSH2 0x66B DUP6 PUSH2 0x755 PUSH2 0x5E5 JUMP JUMPDEST DUP1 SLOAD DUP5 DUP5 ADD DUP8 ADD MSTORE DUP15 SWAP8 SWAP1 SWAP3 ADD SWAP2 DUP2 ADD PUSH2 0x7C2 JUMP JUMPDEST PUSH1 0xFF NOT AND DUP4 DUP7 ADD MSTORE POP POP DUP2 ISZERO ISZERO SWAP1 SWAP2 MUL ADD ADD SWAP2 POP DUP5 PUSH2 0x66B DUP6 PUSH2 0x755 PUSH2 0x5E5 JUMP JUMPDEST DUP7 DUP9 MLOAD PUSH2 0x81E DUP2 PUSH2 0x1986 JUMP JUMPDEST PUSH1 0x2 DUP2 MSTORE PUSH2 0x4E6F PUSH1 0xF0 SHL DUP3 DUP3 ADD MSTORE SWAP6 PUSH2 0x43E JUMP JUMPDEST PUSH1 0x21 SWAP1 PUSH4 0x4E487B71 PUSH1 0xE0 SHL PUSH0 MSTORE MSTORE PUSH1 0x24 PUSH0 REVERT JUMPDEST CALLVALUE PUSH2 0x23B JUMPI PUSH1 0x20 DUP1 PUSH1 0x3 NOT CALLDATASIZE ADD SLT PUSH2 0x23B JUMPI PUSH8 0xFFFFFFFFFFFFFFFF SWAP1 DUP3 CALLDATALOAD DUP3 DUP2 GT PUSH2 0x23B JUMPI CALLDATASIZE PUSH1 0x23 DUP3 ADD SLT ISZERO PUSH2 0x23B JUMPI PUSH2 0x888 SWAP1 CALLDATASIZE SWAP1 PUSH1 0x24 DUP2 DUP8 ADD CALLDATALOAD SWAP2 ADD PUSH2 0x1AF0 JUMP JUMPDEST SWAP3 PUSH2 0x891 PUSH2 0x2516 JUMP JUMPDEST DUP4 MLOAD SWAP3 DUP4 GT PUSH2 0x9A6 JUMPI POP PUSH2 0x8A6 PUSH1 0xF SLOAD PUSH2 0x1902 JUMP JUMPDEST PUSH1 0x1F DUP2 GT PUSH2 0x956 JUMPI JUMPDEST POP PUSH1 0x20 SWAP1 PUSH1 0x1F DUP4 GT PUSH1 0x1 EQ PUSH2 0x8EB JUMPI POP DUP2 SWAP3 PUSH0 SWAP3 PUSH2 0x8E0 JUMPI JUMPDEST POP POP PUSH0 NOT PUSH1 0x3 DUP4 SWAP1 SHL SHR NOT AND PUSH1 0x1 SWAP2 SWAP1 SWAP2 SHL OR PUSH1 0xF SSTORE STOP JUMPDEST ADD MLOAD SWAP1 POP DUP3 DUP1 PUSH2 0x8C8 JUMP JUMPDEST SWAP1 PUSH1 0x1F NOT DUP4 AND SWAP4 PUSH1 0xF PUSH0 MSTORE PUSH0 DUP1 MLOAD PUSH1 0x20 PUSH2 0x2933 DUP4 CODECOPY DUP2 MLOAD SWAP2 MSTORE SWAP3 PUSH0 SWAP1 JUMPDEST DUP7 DUP3 LT PUSH2 0x93E JUMPI POP POP DUP4 PUSH1 0x1 SWAP6 LT PUSH2 0x926 JUMPI JUMPDEST POP POP POP DUP2 SHL ADD PUSH1 0xF SSTORE STOP JUMPDEST ADD MLOAD PUSH0 NOT PUSH1 0xF8 DUP5 PUSH1 0x3 SHL AND SHR NOT AND SWAP1 SSTORE DUP3 DUP1 DUP1 PUSH2 0x91B JUMP JUMPDEST DUP1 PUSH1 0x1 DUP6 SWAP7 DUP3 SWAP5 SWAP7 DUP7 ADD MLOAD DUP2 SSTORE ADD SWAP6 ADD SWAP4 ADD SWAP1 PUSH2 0x908 JUMP JUMPDEST PUSH1 0xF PUSH0 MSTORE PUSH0 DUP1 MLOAD PUSH1 0x20 PUSH2 0x2933 DUP4 CODECOPY DUP2 MLOAD SWAP2 MSTORE PUSH1 0x1F DUP5 ADD PUSH1 0x5 SHR DUP2 ADD SWAP2 PUSH1 0x20 DUP6 LT PUSH2 0x99C JUMPI JUMPDEST PUSH1 0x1F ADD PUSH1 0x5 SHR ADD SWAP1 JUMPDEST DUP2 DUP2 LT PUSH2 0x991 JUMPI POP PUSH2 0x8AF JUMP JUMPDEST PUSH0 DUP2 SSTORE PUSH1 0x1 ADD PUSH2 0x984 JUMP JUMPDEST SWAP1 SWAP2 POP DUP2 SWAP1 PUSH2 0x97B JUMP JUMPDEST PUSH1 0x41 SWAP1 PUSH4 0x4E487B71 PUSH1 0xE0 SHL PUSH0 MSTORE MSTORE PUSH1 0x24 PUSH0 REVERT JUMPDEST CALLVALUE PUSH2 0x23B JUMPI PUSH1 0x80 CALLDATASIZE PUSH1 0x3 NOT ADD SLT PUSH2 0x23B JUMPI PUSH2 0x9D2 PUSH2 0x1A66 JUMP JUMPDEST PUSH2 0x9DA PUSH2 0x1A7C JUMP JUMPDEST PUSH1 0x44 CALLDATALOAD SWAP1 PUSH1 0x64 CALLDATALOAD PUSH8 0xFFFFFFFFFFFFFFFF DUP2 GT PUSH2 0x23B JUMPI CALLDATASIZE PUSH1 0x23 DUP3 ADD SLT ISZERO PUSH2 0x23B JUMPI PUSH2 0xA23 SWAP5 DUP2 PUSH1 0x24 PUSH2 0xA11 SWAP4 CALLDATASIZE SWAP4 ADD CALLDATALOAD SWAP2 ADD PUSH2 0x1AF0 JUMP JUMPDEST SWAP3 PUSH2 0xA1D DUP4 DUP4 DUP4 PUSH2 0x1B26 JUMP JUMPDEST CALLER PUSH2 0x26A9 JUMP JUMPDEST STOP JUMPDEST DUP3 CALLVALUE PUSH2 0x23B JUMPI DUP1 PUSH1 0x3 NOT CALLDATASIZE ADD SLT PUSH2 0x23B JUMPI PUSH2 0xA3E PUSH2 0x1A66 JUMP JUMPDEST SWAP1 PUSH1 0x24 CALLDATALOAD DUP1 ISZERO ISZERO SWAP3 DUP4 DUP3 SUB PUSH2 0x23B JUMPI CALLER ISZERO PUSH2 0xAD0 JUMPI PUSH1 0x1 PUSH1 0x1 PUSH1 0xA0 SHL SUB AND SWAP4 DUP5 ISZERO PUSH2 0xAB9 JUMPI POP PUSH2 0xA8D SWAP1 CALLER PUSH0 MSTORE PUSH1 0x5 PUSH1 0x20 MSTORE DUP3 PUSH0 KECCAK256 DUP6 PUSH0 MSTORE PUSH1 0x20 MSTORE DUP3 PUSH0 KECCAK256 SWAP1 PUSH1 0xFF DUP1 NOT DUP4 SLOAD AND SWAP2 ISZERO ISZERO AND OR SWAP1 SSTORE JUMP JUMPDEST MLOAD SWAP1 DUP2 MSTORE PUSH32 0x17307EAB39AB6107E8899845AD3D59BD9653F200F220920489CA2B5937696C31 PUSH1 0x20 CALLER SWAP3 LOG3 STOP JUMPDEST DUP3 MLOAD PUSH4 0xB611743 PUSH1 0xE3 SHL DUP2 MSTORE SWAP1 DUP2 ADD DUP6 SWAP1 MSTORE PUSH1 0x24 SWAP1 REVERT JUMPDEST DUP3 MLOAD PUSH4 0xA9FBF51F PUSH1 0xE0 SHL DUP2 MSTORE PUSH0 DUP2 DUP8 ADD MSTORE PUSH1 0x24 SWAP1 REVERT JUMPDEST DUP3 CALLVALUE PUSH2 0x23B JUMPI PUSH0 CALLDATASIZE PUSH1 0x3 NOT ADD SLT PUSH2 0x23B JUMPI DUP1 MLOAD SWAP1 PUSH0 SWAP1 DUP3 PUSH1 0x1 SWAP3 PUSH1 0x1 SLOAD SWAP4 PUSH2 0xB0D DUP6 PUSH2 0x1902 JUMP JUMPDEST SWAP1 DUP2 DUP5 MSTORE PUSH1 0x20 SWAP6 DUP7 PUSH1 0x1 DUP3 AND SWAP2 DUP3 PUSH0 EQ PUSH2 0x219 JUMPI POP POP PUSH1 0x1 EQ PUSH2 0xB3C JUMPI POP POP PUSH2 0x1CD SWAP3 SWAP2 PUSH2 0x1BE SWAP2 SUB DUP6 PUSH2 0x19A2 JUMP JUMPDEST SWAP1 DUP6 SWAP3 POP PUSH1 0x1 PUSH0 MSTORE PUSH32 0xB10E2D527612073B26EECDFD717E6A320CF44B4AFAC2B0732D9FCBE2B7FA0CF6 SWAP2 PUSH0 SWAP3 JUMPDEST DUP3 DUP5 LT PUSH2 0xB7F JUMPI POP POP POP DUP3 ADD ADD DUP2 PUSH2 0x1BE PUSH2 0x1AC JUMP JUMPDEST DUP1 SLOAD DUP5 DUP11 ADD DUP7 ADD MSTORE DUP9 SWAP6 POP DUP8 SWAP5 SWAP1 SWAP4 ADD SWAP3 DUP2 ADD PUSH2 0xB69 JUMP JUMPDEST DUP3 CALLVALUE PUSH2 0x23B JUMPI PUSH0 CALLDATASIZE PUSH1 0x3 NOT ADD SLT PUSH2 0x23B JUMPI PUSH1 0xB SLOAD SWAP1 MLOAD PUSH1 0x1 PUSH1 0x1 PUSH1 0xA0 SHL SUB SWAP1 SWAP2 AND DUP2 MSTORE PUSH1 0x20 SWAP1 RETURN JUMPDEST SWAP1 POP CALLVALUE PUSH2 0x23B JUMPI PUSH1 0x20 CALLDATASIZE PUSH1 0x3 NOT ADD SLT PUSH2 0x23B JUMPI PUSH1 0x20 PUSH32 0xC3E8F137FDDF52BD069912614EA1147DD6A0DA5300B09693EDF0EA0F99695CC7 SWAP2 CALLDATALOAD SWAP3 PUSH2 0xC00 PUSH2 0x2516 JUMP JUMPDEST PUSH0 DUP5 DUP2 MSTORE PUSH1 0x2 DUP4 MSTORE DUP2 SWAP1 KECCAK256 SLOAD PUSH2 0xC20 SWAP1 PUSH1 0x1 PUSH1 0x1 PUSH1 0xA0 SHL SUB AND ISZERO ISZERO PUSH2 0x1E66 JUMP JUMPDEST DUP4 PUSH0 MSTORE PUSH1 0xD DUP3 MSTORE PUSH1 0x2 DUP2 PUSH0 KECCAK256 ADD PUSH1 0xFF NOT DUP2 SLOAD AND SWAP1 SSTORE MLOAD PUSH0 DUP2 MSTORE LOG2 STOP JUMPDEST CALLVALUE PUSH2 0x23B JUMPI PUSH0 CALLDATASIZE PUSH1 0x3 NOT ADD SLT PUSH2 0x23B JUMPI PUSH2 0xC54 PUSH2 0x2516 JUMP JUMPDEST PUSH1 0xB DUP1 SLOAD PUSH1 0x1 PUSH1 0x1 PUSH1 0xA0 SHL SUB NOT DUP2 AND SWAP1 SWAP2 SSTORE PUSH0 SWAP1 PUSH1 0x1 PUSH1 0x1 PUSH1 0xA0 SHL SUB AND PUSH32 0x8BE0079C531659141344CD1FD0A4F28419497F9722A3DAAFE3B4186F6B6457E0 DUP3 DUP1 LOG3 STOP JUMPDEST DUP3 CALLVALUE PUSH2 0x23B JUMPI PUSH1 0x20 CALLDATASIZE PUSH1 0x3 NOT ADD SLT PUSH2 0x23B JUMPI PUSH1 0x20 SWAP1 PUSH2 0xCBC PUSH2 0xCB7 PUSH2 0x1A66 JUMP JUMPDEST PUSH2 0x24A6 JUMP JUMPDEST SWAP1 MLOAD SWAP1 DUP2 MSTORE RETURN JUMPDEST DUP3 CALLVALUE PUSH2 0x23B JUMPI PUSH1 0x20 CALLDATASIZE PUSH1 0x3 NOT ADD SLT PUSH2 0x23B JUMPI PUSH2 0x347 PUSH2 0x1CD SWAP3 CALLDATALOAD PUSH2 0x1F9F JUMP JUMPDEST DUP3 CALLVALUE PUSH2 0x23B JUMPI PUSH1 0x20 CALLDATASIZE PUSH1 0x3 NOT ADD SLT PUSH2 0x23B JUMPI PUSH2 0xD00 PUSH1 0x20 SWAP3 CALLDATALOAD PUSH2 0x24DC JUMP JUMPDEST SWAP1 MLOAD PUSH1 0x1 PUSH1 0x1 PUSH1 0xA0 SHL SUB SWAP1 SWAP2 AND DUP2 MSTORE RETURN JUMPDEST DUP3 CALLVALUE PUSH2 0x23B JUMPI DUP1 PUSH1 0x3 NOT CALLDATASIZE ADD SLT PUSH2 0x23B JUMPI DUP2 CALLDATALOAD SWAP1 PUSH1 0x24 CALLDATALOAD SWAP3 PUSH2 0xD31 PUSH2 0x2516 JUMP JUMPDEST PUSH0 DUP4 DUP2 MSTORE PUSH1 0x2 PUSH1 0x20 MSTORE DUP3 SWAP1 KECCAK256 SLOAD PUSH2 0xD52 SWAP1 PUSH1 0x1 PUSH1 0x1 PUSH1 0xA0 SHL SUB AND ISZERO ISZERO PUSH2 0x1E66 JUMP JUMPDEST PUSH1 0x1 DUP5 LT ISZERO DUP1 PUSH2 0xE25 JUMPI JUMPDEST PUSH2 0xD66 SWAP1 PUSH2 0x1ECD JUMP JUMPDEST DUP3 PUSH0 MSTORE PUSH1 0xD PUSH1 0x20 MSTORE PUSH1 0xFF DUP3 PUSH0 KECCAK256 SLOAD AND SWAP1 DUP1 DUP6 LT ISZERO PUSH2 0x832 JUMPI DUP1 DUP3 LT ISZERO PUSH2 0x832 JUMPI DUP2 DUP6 GT ISZERO PUSH2 0xDE2 JUMPI POP PUSH2 0xDDF DUP4 SWAP5 PUSH32 0x352FFA825B5DBFD121A26E29681D13BC73231BF9D64F248978F460EAF2A1BE3B SWAP5 PUSH0 MSTORE PUSH1 0xD PUSH1 0x20 MSTORE PUSH2 0xDC9 DUP2 DUP6 PUSH0 KECCAK256 PUSH2 0x1F08 JUMP JUMPDEST PUSH2 0xDD5 DUP5 MLOAD DUP1 SWAP5 PUSH2 0x1AC7 JUMP JUMPDEST PUSH1 0x20 DUP4 ADD SWAP1 PUSH2 0x1AC7 JUMP JUMPDEST LOG2 STOP JUMPDEST PUSH1 0x64 SWAP1 PUSH1 0x20 DUP5 MLOAD SWAP2 PUSH3 0x461BCD PUSH1 0xE5 SHL DUP4 MSTORE DUP3 ADD MSTORE PUSH1 0x1F PUSH1 0x24 DUP3 ADD MSTORE PUSH32 0x43616E206F6E6C79207570677261646520746F20686967686572207469657200 PUSH1 0x44 DUP3 ADD MSTORE REVERT JUMPDEST POP PUSH1 0x3 DUP5 GT ISZERO PUSH2 0xD5D JUMP JUMPDEST SWAP1 POP CALLVALUE PUSH2 0x23B JUMPI PUSH1 0x20 CALLDATASIZE PUSH1 0x3 NOT ADD SLT PUSH2 0x23B JUMPI DUP1 CALLDATALOAD SWAP1 PUSH1 0x8 SLOAD DUP3 LT ISZERO PUSH2 0xE6A JUMPI PUSH1 0x20 DUP4 PUSH2 0xE5C DUP5 PUSH2 0x1F20 JUMP JUMPDEST SWAP2 SWAP1 SLOAD SWAP1 MLOAD SWAP2 PUSH1 0x3 SHL SHR DUP2 MSTORE RETURN JUMPDEST SWAP1 PUSH0 PUSH1 0x44 SWAP4 MLOAD SWAP3 PUSH4 0x295F44F7 PUSH1 0xE2 SHL DUP5 MSTORE DUP4 ADD MSTORE PUSH1 0x24 DUP3 ADD MSTORE REVERT JUMPDEST DUP3 CALLVALUE PUSH2 0x23B JUMPI PUSH2 0xA23 SWAP1 PUSH2 0xE98 CALLDATASIZE PUSH2 0x1A92 JUMP JUMPDEST SWAP2 SWAP3 MLOAD SWAP3 PUSH2 0xEA5 DUP5 PUSH2 0x196A JUMP JUMPDEST PUSH0 DUP5 MSTORE PUSH2 0xA1D DUP4 DUP4 DUP4 PUSH2 0x1B26 JUMP JUMPDEST SWAP1 POP CALLVALUE PUSH2 0x23B JUMPI DUP2 PUSH1 0x3 NOT CALLDATASIZE ADD SLT PUSH2 0x23B JUMPI PUSH2 0xECD PUSH2 0x1A66 JUMP JUMPDEST SWAP2 PUSH1 0x24 SWAP3 DUP4 CALLDATALOAD PUSH2 0xEDB PUSH2 0x2516 JUMP JUMPDEST PUSH1 0x1 DUP1 DUP3 LT ISZERO DUP1 PUSH2 0x13A4 JUMPI JUMPDEST PUSH2 0xEF0 SWAP1 PUSH2 0x1ECD JUMP JUMPDEST PUSH1 0xC SLOAD SWAP5 PUSH0 NOT SWAP7 DUP8 DUP8 EQ PUSH2 0x1392 JUMPI DUP3 DUP8 ADD PUSH1 0xC SSTORE DUP6 MLOAD PUSH2 0xF0F DUP2 PUSH2 0x196A JUMP JUMPDEST PUSH0 DUP2 MSTORE PUSH1 0x1 PUSH1 0x1 PUSH1 0xA0 SHL SUB DUP7 DUP2 AND SWAP7 SWAP1 DUP8 ISZERO PUSH2 0x137D JUMPI DUP10 SWAP11 DUP9 DUP11 SWAP3 DUP13 PUSH0 MSTORE PUSH1 0x20 SWAP14 DUP15 SWAP2 PUSH1 0x2 DUP4 MSTORE DUP1 DUP7 PUSH0 KECCAK256 SLOAD AND ISZERO ISZERO DUP1 PUSH2 0x1376 JUMPI JUMPDEST PUSH2 0x131D JUMPI JUMPDEST DUP2 PUSH0 MSTORE PUSH1 0x2 DUP4 MSTORE DUP6 PUSH0 KECCAK256 SLOAD AND SWAP2 DUP3 ISZERO DUP1 ISZERO SWAP7 DUP8 PUSH2 0x12ED JUMPI JUMPDEST DUP6 PUSH0 MSTORE PUSH1 0x3 DUP4 MSTORE DUP1 PUSH0 KECCAK256 DUP14 DUP2 SLOAD ADD SWAP1 SSTORE DUP4 PUSH0 MSTORE PUSH1 0x2 DUP4 MSTORE PUSH0 KECCAK256 DUP6 PUSH1 0x1 PUSH1 0x1 PUSH1 0x60 SHL SUB PUSH1 0xA0 SHL DUP3 SLOAD AND OR SWAP1 SSTORE DUP3 DUP6 DUP6 PUSH32 0xDDF252AD1BE2C89B69C2B068FC378DAA952BA7F163C4A11628F55A4DF523B3EF PUSH0 DUP1 LOG4 ISZERO PUSH2 0x1278 JUMPI PUSH1 0x9 SWAP1 PUSH1 0x8 SLOAD SWAP3 PUSH0 MSTORE MSTORE DUP13 PUSH0 KECCAK256 SSTORE PUSH2 0xFCF DUP14 PUSH2 0x1F69 JUMP JUMPDEST SUB PUSH2 0x122E JUMPI JUMPDEST POP PUSH2 0x1219 JUMPI EXTCODESIZE PUSH2 0x10FD JUMPI JUMPDEST POP DUP2 DUP5 LT ISZERO PUSH2 0x10EB JUMPI DUP6 MLOAD PUSH2 0xFF4 DUP2 PUSH2 0x193A JUMP JUMPDEST PUSH2 0xFFE DUP6 DUP3 PUSH2 0x1EA9 JUMP JUMPDEST DUP9 DUP2 ADD TIMESTAMP DUP2 MSTORE DUP8 DUP3 ADD SWAP1 DUP6 DUP3 MSTORE DUP10 PUSH0 MSTORE PUSH1 0xD DUP12 MSTORE DUP9 PUSH0 KECCAK256 SWAP3 MLOAD DUP6 DUP2 LT ISZERO PUSH2 0x10D9 JUMPI SWAP2 PUSH1 0x2 SWAP2 PUSH2 0x1031 DUP6 SWAP5 PUSH2 0x104C SWAP7 PUSH2 0x1F08 JUMP JUMPDEST MLOAD DUP8 DUP5 ADD SSTORE MLOAD ISZERO ISZERO SWAP2 ADD SWAP1 PUSH1 0xFF DUP1 NOT DUP4 SLOAD AND SWAP2 ISZERO ISZERO AND OR SWAP1 SSTORE JUMP JUMPDEST DUP5 PUSH0 MSTORE PUSH1 0xE DUP9 MSTORE DUP6 PUSH0 KECCAK256 SWAP2 DUP3 SLOAD SWAP4 PUSH1 0x1 PUSH1 0x40 SHL DUP6 LT ISZERO PUSH2 0x10C7 JUMPI DUP5 ADD DUP1 DUP5 SSTORE DUP5 LT ISZERO PUSH2 0x10B6 JUMPI POP POP DUP6 SWAP4 SWAP3 DUP5 PUSH32 0xC9960D725FB19F1D74D3E51AEC0C36B593C4FBA69145A516C797B047C9F1E5CB SWAP4 DUP10 SWAP4 PUSH0 MSTORE DUP4 PUSH0 KECCAK256 ADD SSTORE PUSH2 0x10AF DUP7 MLOAD DUP1 SWAP3 PUSH2 0x1AC7 JUMP JUMPDEST LOG3 MLOAD SWAP1 DUP2 MSTORE RETURN JUMPDEST PUSH1 0x32 SWAP1 PUSH4 0x4E487B71 PUSH1 0xE0 SHL PUSH0 MSTORE MSTORE PUSH0 REVERT JUMPDEST POP PUSH1 0x41 SWAP1 PUSH4 0x4E487B71 PUSH1 0xE0 SHL PUSH0 MSTORE MSTORE PUSH0 REVERT JUMPDEST DUP5 PUSH1 0x21 DUP8 PUSH4 0x4E487B71 PUSH1 0xE0 SHL PUSH0 MSTORE MSTORE PUSH0 REVERT JUMPDEST PUSH4 0x4E487B71 PUSH1 0xE0 SHL PUSH0 SWAP1 DUP2 MSTORE PUSH1 0x21 DUP4 MSTORE REVERT JUMPDEST SWAP2 DUP9 SWAP5 SWAP3 DUP3 SWAP10 PUSH0 DUP4 SWAP11 SWAP7 SWAP5 PUSH2 0x113F DUP12 SWAP11 SWAP12 MLOAD SWAP5 DUP6 SWAP4 DUP5 SWAP4 PUSH4 0xA85BD01 PUSH1 0xE1 SHL SWAP9 DUP10 DUP7 MSTORE CALLER SWAP1 DUP7 ADD MSTORE DUP5 ADD MSTORE DUP10 PUSH1 0x44 DUP5 ADD MSTORE PUSH1 0x80 PUSH1 0x64 DUP5 ADD MSTORE PUSH1 0x84 DUP4 ADD SWAP1 PUSH2 0x189B JUMP JUMPDEST SUB DUP2 PUSH0 DUP13 GAS CALL PUSH0 SWAP2 DUP2 PUSH2 0x11D9 JUMPI JUMPDEST POP PUSH2 0x11A6 JUMPI POP POP POP POP POP RETURNDATASIZE PUSH0 EQ PUSH2 0x119E JUMPI RETURNDATASIZE SWAP1 PUSH2 0x1169 DUP3 PUSH2 0x1AD4 JUMP JUMPDEST SWAP2 PUSH2 0x1176 DUP5 MLOAD SWAP4 DUP5 PUSH2 0x19A2 JUMP JUMPDEST DUP3 MSTORE RETURNDATASIZE PUSH0 DUP3 DUP5 ADD RETURNDATACOPY JUMPDEST DUP2 MLOAD SWAP2 DUP3 PUSH2 0x119B JUMPI POP POP POP MLOAD SWAP2 PUSH4 0x32505749 PUSH1 0xE1 SHL DUP4 MSTORE DUP3 ADD MSTORE REVERT JUMPDEST ADD REVERT JUMPDEST PUSH1 0x60 SWAP1 PUSH2 0x117F JUMP JUMPDEST PUSH4 0xFFFFFFFF PUSH1 0xE0 SWAP11 SWAP4 SWAP6 SWAP10 SWAP5 SWAP7 SWAP11 SWAP9 SWAP8 SWAP9 SHL AND SUB PUSH2 0x11C4 JUMPI PUSH0 PUSH2 0xFE0 JUMP JUMPDEST DUP6 MLOAD PUSH4 0x32505749 PUSH1 0xE1 SHL DUP2 MSTORE SWAP2 DUP3 ADD DUP6 SWAP1 MSTORE SWAP1 REVERT JUMPDEST SWAP1 SWAP2 POP DUP7 DUP2 DUP2 RETURNDATASIZE DUP4 GT PUSH2 0x1212 JUMPI JUMPDEST PUSH2 0x11F1 DUP2 DUP4 PUSH2 0x19A2 JUMP JUMPDEST DUP2 ADD SUB SLT PUSH2 0x23B JUMPI MLOAD PUSH1 0x1 PUSH1 0x1 PUSH1 0xE0 SHL SUB NOT DUP2 AND DUP2 SUB PUSH2 0x23B JUMPI SWAP1 PUSH0 PUSH2 0x114D JUMP JUMPDEST POP RETURNDATASIZE PUSH2 0x11E7 JUMP JUMPDEST DUP8 MLOAD PUSH4 0x39E35637 PUSH1 0xE1 SHL DUP2 MSTORE PUSH0 DUP2 DUP7 ADD MSTORE DUP4 SWAP1 REVERT JUMPDEST PUSH2 0x1237 DUP4 PUSH2 0x24A6 JUMP JUMPDEST SWAP1 DUP2 ADD SWAP1 DUP2 GT PUSH2 0x1266 JUMPI DUP9 PUSH0 MSTORE PUSH1 0x6 DUP13 MSTORE DUP10 PUSH0 KECCAK256 DUP2 PUSH0 MSTORE DUP13 MSTORE DUP11 DUP11 PUSH0 KECCAK256 SSTORE DUP11 PUSH0 MSTORE PUSH1 0x7 DUP13 MSTORE DUP10 PUSH0 KECCAK256 SSTORE PUSH0 PUSH2 0xFD5 JUMP JUMPDEST DUP5 PUSH1 0x11 DUP8 PUSH4 0x4E487B71 PUSH1 0xE0 SHL PUSH0 MSTORE MSTORE PUSH0 REVERT JUMPDEST DUP4 DUP4 SUB PUSH2 0x1287 JUMPI JUMPDEST POP POP PUSH2 0xFCF JUMP JUMPDEST DUP14 PUSH0 PUSH2 0x1292 DUP6 PUSH2 0x24A6 JUMP JUMPDEST SWAP2 DUP5 DUP3 MSTORE PUSH1 0x7 DUP5 MSTORE DUP1 DUP3 KECCAK256 SLOAD SWAP5 DUP7 DUP4 MSTORE PUSH1 0x6 DUP6 MSTORE DUP2 DUP4 KECCAK256 SWAP6 DUP5 DUP2 SUB PUSH2 0x12CB JUMPI JUMPDEST POP DUP3 MSTORE PUSH1 0x7 DUP5 MSTORE DUP2 KECCAK256 SSTORE PUSH0 MSTORE MSTORE PUSH0 DUP13 DUP2 KECCAK256 SSTORE DUP13 DUP15 PUSH2 0x1280 JUMP JUMPDEST DUP5 DUP5 MSTORE DUP7 DUP7 MSTORE DUP3 DUP5 KECCAK256 SLOAD DUP2 DUP6 MSTORE DUP1 DUP5 DUP7 KECCAK256 SSTORE DUP5 MSTORE PUSH1 0x7 DUP7 MSTORE DUP3 DUP5 KECCAK256 SSTORE PUSH0 PUSH2 0x12B2 JUMP JUMPDEST PUSH0 DUP5 DUP2 MSTORE PUSH1 0x4 PUSH1 0x20 MSTORE PUSH1 0x40 SWAP1 KECCAK256 DUP1 SLOAD PUSH1 0x1 PUSH1 0x1 PUSH1 0xA0 SHL SUB NOT AND SWAP1 SSTORE DUP5 PUSH0 MSTORE PUSH1 0x3 DUP4 MSTORE DUP1 PUSH0 KECCAK256 DUP8 DUP2 SLOAD ADD SWAP1 SSTORE PUSH2 0xF61 JUMP JUMPDEST SWAP4 SWAP5 POP POP PUSH1 0xD SWAP2 POP MSTORE PUSH1 0xFF PUSH1 0x2 DUP12 PUSH0 KECCAK256 ADD SLOAD AND PUSH2 0x133F JUMPI SWAP1 DUP9 DUP13 DUP13 DUP13 SWAP5 PUSH2 0xF49 JUMP JUMPDEST DUP10 MLOAD PUSH3 0x461BCD PUSH1 0xE5 SHL DUP2 MSTORE DUP1 DUP8 ADD DUP14 SWAP1 MSTORE PUSH1 0x12 DUP2 DUP8 ADD MSTORE PUSH18 0x151BDAD95B881A5CC81CDBDD5B189BDD5B99 PUSH1 0x72 SHL PUSH1 0x44 DUP3 ADD MSTORE PUSH1 0x64 SWAP1 REVERT JUMPDEST POP DUP11 PUSH2 0xF44 JUMP JUMPDEST DUP9 MLOAD PUSH4 0x32505749 PUSH1 0xE1 SHL DUP2 MSTORE PUSH0 DUP2 DUP8 ADD MSTORE DUP5 SWAP1 REVERT JUMPDEST PUSH4 0x4E487B71 PUSH1 0xE0 SHL PUSH0 SWAP1 DUP2 MSTORE PUSH1 0x11 DUP4 MSTORE REVERT JUMPDEST POP PUSH1 0x3 DUP3 GT ISZERO PUSH2 0xEE7 JUMP JUMPDEST SWAP1 POP CALLVALUE PUSH2 0x23B JUMPI PUSH1 0x20 SWAP1 DUP2 PUSH1 0x3 NOT CALLDATASIZE ADD SLT PUSH2 0x23B JUMPI SWAP2 SWAP1 PUSH2 0x13CE PUSH2 0x1A66 JUMP JUMPDEST SWAP1 PUSH2 0x13D8 DUP3 PUSH2 0x24A6 JUMP JUMPDEST SWAP4 PUSH2 0x13E2 DUP6 PUSH2 0x1EB5 JUMP JUMPDEST SWAP5 PUSH2 0x13EF DUP6 MLOAD SWAP7 DUP8 PUSH2 0x19A2 JUMP JUMPDEST DUP1 DUP7 MSTORE PUSH2 0x13FB DUP2 PUSH2 0x1EB5 JUMP JUMPDEST DUP7 DUP5 ADD SWAP5 SWAP1 PUSH1 0x1F NOT ADD CALLDATASIZE DUP7 CALLDATACOPY PUSH0 JUMPDEST DUP3 DUP2 LT PUSH2 0x1450 JUMPI POP POP POP POP DUP3 MLOAD SWAP4 DUP5 SWAP4 DUP3 DUP6 ADD SWAP2 DUP4 DUP7 MSTORE MLOAD DUP1 SWAP3 MSTORE DUP5 ADD SWAP3 SWAP2 PUSH0 JUMPDEST DUP3 DUP2 LT PUSH2 0x1439 JUMPI POP POP POP POP SUB SWAP1 RETURN JUMPDEST DUP4 MLOAD DUP6 MSTORE DUP7 SWAP6 POP SWAP4 DUP2 ADD SWAP4 SWAP3 DUP2 ADD SWAP3 PUSH1 0x1 ADD PUSH2 0x142A JUMP JUMPDEST PUSH2 0x145E DUP2 DUP4 SWAP10 SWAP8 SWAP9 SWAP10 PUSH2 0x1E0A JUMP JUMPDEST DUP7 MLOAD DUP3 LT ISZERO PUSH2 0x147D JUMPI PUSH1 0x5 DUP3 SWAP1 SHL DUP8 ADD DUP7 ADD MSTORE SWAP5 SWAP7 SWAP6 SWAP5 PUSH1 0x1 ADD PUSH2 0x1409 JUMP JUMPDEST PUSH1 0x32 DUP6 PUSH4 0x4E487B71 PUSH1 0xE0 SHL PUSH0 MSTORE MSTORE PUSH1 0x24 PUSH0 REVERT JUMPDEST SWAP1 POP CALLVALUE PUSH2 0x23B JUMPI PUSH1 0x20 CALLDATASIZE PUSH1 0x3 NOT ADD SLT PUSH2 0x23B JUMPI DUP1 CALLDATALOAD PUSH0 DUP2 DUP2 MSTORE PUSH1 0x2 PUSH1 0x20 MSTORE DUP4 SWAP1 KECCAK256 SLOAD SWAP1 SWAP3 PUSH1 0x1 PUSH1 0x1 PUSH1 0xA0 SHL SUB SWAP2 PUSH2 0x14CA SWAP1 DUP4 AND ISZERO ISZERO PUSH2 0x1E66 JUMP JUMPDEST DUP4 PUSH0 MSTORE PUSH1 0xD PUSH1 0x20 MSTORE DUP1 PUSH0 KECCAK256 SWAP4 DUP2 MLOAD SWAP2 PUSH2 0x14E2 DUP4 PUSH2 0x193A JUMP JUMPDEST PUSH2 0x14F0 PUSH1 0xFF DUP8 SLOAD AND DUP5 PUSH2 0x1EA9 JUMP JUMPDEST PUSH1 0xFF PUSH1 0x2 PUSH1 0x1 DUP9 ADD SLOAD SWAP8 PUSH1 0x20 DUP7 ADD SWAP9 DUP10 MSTORE ADD SLOAD AND SWAP3 DUP2 DUP2 ADD SWAP4 ISZERO ISZERO DUP5 MSTORE MLOAD SWAP5 DUP1 DUP7 LT ISZERO PUSH2 0x832 JUMPI POP PUSH2 0x1529 PUSH1 0x80 SWAP7 MLOAD SWAP4 MLOAD ISZERO ISZERO SWAP3 PUSH2 0x24DC JUMP JUMPDEST SWAP3 PUSH2 0x1536 DUP3 MLOAD DUP1 SWAP8 PUSH2 0x1AC7 JUMP JUMPDEST PUSH1 0x20 DUP7 ADD MSTORE DUP5 ADD MSTORE AND PUSH1 0x60 DUP3 ADD MSTORE RETURN JUMPDEST DUP3 CALLVALUE PUSH2 0x23B JUMPI PUSH1 0x20 CALLDATASIZE PUSH1 0x3 NOT ADD SLT PUSH2 0x23B JUMPI PUSH1 0x60 SWAP2 CALLDATALOAD PUSH0 MSTORE PUSH1 0xD PUSH1 0x20 MSTORE DUP1 PUSH0 KECCAK256 SWAP1 PUSH1 0xFF DUP3 SLOAD AND SWAP2 PUSH1 0xFF PUSH1 0x2 PUSH1 0x1 DUP4 ADD SLOAD SWAP3 ADD SLOAD AND SWAP1 PUSH2 0x1587 DUP4 MLOAD DUP1 SWAP6 PUSH2 0x1AC7 JUMP JUMPDEST PUSH1 0x20 DUP5 ADD MSTORE ISZERO ISZERO SWAP1 DUP3 ADD MSTORE RETURN JUMPDEST DUP3 CALLVALUE PUSH2 0x23B JUMPI DUP1 PUSH1 0x3 NOT CALLDATASIZE ADD SLT PUSH2 0x23B JUMPI PUSH1 0x20 SWAP1 PUSH2 0xCBC PUSH2 0x15B3 PUSH2 0x1A66 JUMP JUMPDEST PUSH1 0x24 CALLDATALOAD SWAP1 PUSH2 0x1E0A JUMP JUMPDEST CALLVALUE PUSH2 0x23B JUMPI PUSH2 0xA23 PUSH2 0x15CD CALLDATASIZE PUSH2 0x1A92 JUMP JUMPDEST SWAP2 PUSH2 0x1B26 JUMP JUMPDEST DUP3 CALLVALUE PUSH2 0x23B JUMPI PUSH0 CALLDATASIZE PUSH1 0x3 NOT ADD SLT PUSH2 0x23B JUMPI PUSH1 0x20 SWAP1 PUSH1 0x8 SLOAD SWAP1 MLOAD SWAP1 DUP2 MSTORE RETURN JUMPDEST DUP3 CALLVALUE PUSH2 0x23B JUMPI DUP1 PUSH1 0x3 NOT CALLDATASIZE ADD SLT PUSH2 0x23B JUMPI PUSH2 0x160A PUSH2 0x1A66 JUMP JUMPDEST SWAP2 PUSH1 0x24 CALLDATALOAD PUSH2 0x1617 DUP2 PUSH2 0x24DC JUMP JUMPDEST CALLER ISZERO ISZERO DUP1 PUSH2 0x16B9 JUMPI JUMPDEST DUP1 PUSH2 0x1692 JUMPI JUMPDEST PUSH2 0x167C JUMPI PUSH1 0x1 PUSH1 0x1 PUSH1 0xA0 SHL SUB SWAP5 DUP6 AND SWAP5 DUP3 SWAP2 DUP7 SWAP2 AND PUSH32 0x8C5BE1E5EBEC7D5BD14F71427D1E84F3DD0314C0F7B2291E5B200AC8C7C3B925 PUSH0 DUP1 LOG4 PUSH0 MSTORE PUSH1 0x20 MSTORE PUSH0 KECCAK256 SWAP1 PUSH1 0x1 PUSH1 0x1 PUSH1 0x60 SHL SUB PUSH1 0xA0 SHL DUP3 SLOAD AND OR SWAP1 SSTORE PUSH0 DUP1 RETURN JUMPDEST DUP4 MLOAD PUSH4 0xA9FBF51F PUSH1 0xE0 SHL DUP2 MSTORE CALLER DUP2 DUP6 ADD MSTORE PUSH1 0x24 SWAP1 REVERT JUMPDEST POP PUSH1 0x1 DUP1 PUSH1 0xA0 SHL SUB DUP2 AND PUSH0 MSTORE PUSH1 0x5 PUSH1 0x20 MSTORE DUP4 PUSH0 KECCAK256 CALLER PUSH0 MSTORE PUSH1 0x20 MSTORE PUSH1 0xFF DUP5 PUSH0 KECCAK256 SLOAD AND ISZERO PUSH2 0x1626 JUMP JUMPDEST POP PUSH1 0x1 PUSH1 0x1 PUSH1 0xA0 SHL SUB DUP2 AND CALLER EQ ISZERO PUSH2 0x1620 JUMP JUMPDEST DUP3 CALLVALUE PUSH2 0x23B JUMPI PUSH1 0x20 CALLDATASIZE PUSH1 0x3 NOT ADD SLT PUSH2 0x23B JUMPI DUP2 PUSH1 0x20 SWAP3 CALLDATALOAD PUSH2 0x16EC DUP2 PUSH2 0x24DC JUMP JUMPDEST POP PUSH0 MSTORE DUP3 MSTORE PUSH1 0x1 DUP1 PUSH1 0xA0 SHL SUB DUP2 PUSH0 KECCAK256 SLOAD AND SWAP1 MLOAD SWAP1 DUP2 MSTORE RETURN JUMPDEST DUP3 CALLVALUE PUSH2 0x23B JUMPI PUSH1 0x20 CALLDATASIZE PUSH1 0x3 NOT ADD SLT PUSH2 0x23B JUMPI DUP2 CALLDATALOAD SWAP2 DUP3 LT ISZERO PUSH2 0x23B JUMPI PUSH2 0x347 PUSH2 0x342 PUSH2 0x1CD SWAP4 PUSH2 0x18C0 JUMP JUMPDEST DUP3 CALLVALUE PUSH2 0x23B JUMPI PUSH0 CALLDATASIZE PUSH1 0x3 NOT ADD SLT PUSH2 0x23B JUMPI DUP1 MLOAD SWAP1 PUSH0 SWAP1 DUP3 PUSH0 SLOAD SWAP3 PUSH2 0x1752 DUP5 PUSH2 0x1902 JUMP JUMPDEST DUP1 DUP4 MSTORE PUSH1 0x20 SWAP5 PUSH1 0x1 SWAP1 DUP7 PUSH1 0x1 DUP3 AND SWAP2 DUP3 PUSH0 EQ PUSH2 0x219 JUMPI POP POP PUSH1 0x1 EQ PUSH2 0x1783 JUMPI POP POP PUSH2 0x1CD SWAP3 SWAP2 PUSH2 0x1BE SWAP2 SUB DUP6 PUSH2 0x19A2 JUMP JUMPDEST PUSH0 DUP1 DUP1 MSTORE DUP7 SWAP4 POP SWAP2 SWAP1 PUSH32 0x290DECD9548B62A8D60345A988386FC84BA6BC95484008F6362F93160EF3E563 JUMPDEST DUP3 DUP5 LT PUSH2 0x17C4 JUMPI POP POP POP DUP3 ADD ADD DUP2 PUSH2 0x1BE PUSH2 0x1AC JUMP JUMPDEST DUP1 SLOAD DUP5 DUP11 ADD DUP7 ADD MSTORE DUP9 SWAP6 POP DUP8 SWAP5 SWAP1 SWAP4 ADD SWAP3 DUP2 ADD PUSH2 0x17AE JUMP JUMPDEST SWAP1 CALLVALUE PUSH2 0x23B JUMPI PUSH1 0x20 CALLDATASIZE PUSH1 0x3 NOT ADD SLT PUSH2 0x23B JUMPI CALLDATALOAD SWAP1 PUSH4 0xFFFFFFFF PUSH1 0xE0 SHL DUP3 AND DUP1 SWAP3 SUB PUSH2 0x23B JUMPI PUSH1 0x20 SWAP2 PUSH4 0x24832483 PUSH1 0xE1 SHL DUP2 EQ SWAP1 DUP2 ISZERO PUSH2 0x181D JUMPI JUMPDEST POP ISZERO ISZERO DUP2 MSTORE RETURN JUMPDEST PUSH4 0x780E9D63 PUSH1 0xE0 SHL DUP2 EQ SWAP2 POP DUP2 ISZERO PUSH2 0x1837 JUMPI JUMPDEST POP DUP4 PUSH2 0x1816 JUMP JUMPDEST PUSH4 0x80AC58CD PUSH1 0xE0 SHL DUP2 EQ SWAP2 POP DUP2 ISZERO PUSH2 0x1869 JUMPI JUMPDEST DUP2 ISZERO PUSH2 0x1858 JUMPI JUMPDEST POP DUP4 PUSH2 0x1830 JUMP JUMPDEST PUSH4 0x1FFC9A7 PUSH1 0xE0 SHL EQ SWAP1 POP DUP4 PUSH2 0x1851 JUMP JUMPDEST PUSH4 0x5B5E139F PUSH1 0xE0 SHL DUP2 EQ SWAP2 POP PUSH2 0x184A JUMP JUMPDEST PUSH0 JUMPDEST DUP4 DUP2 LT PUSH2 0x188B JUMPI POP POP PUSH0 SWAP2 ADD MSTORE JUMP JUMPDEST DUP2 DUP2 ADD MLOAD DUP4 DUP3 ADD MSTORE PUSH1 0x20 ADD PUSH2 0x187C JUMP JUMPDEST SWAP1 PUSH1 0x20 SWAP2 PUSH2 0x18B4 DUP2 MLOAD DUP1 SWAP3 DUP2 DUP6 MSTORE DUP6 DUP1 DUP7 ADD SWAP2 ADD PUSH2 0x187A JUMP JUMPDEST PUSH1 0x1F ADD PUSH1 0x1F NOT AND ADD ADD SWAP1 JUMP JUMPDEST PUSH1 0x4 DUP2 LT ISZERO PUSH2 0x18D7 JUMPI PUSH0 MSTORE PUSH1 0x10 PUSH1 0x20 MSTORE PUSH1 0x40 PUSH0 KECCAK256 SWAP1 JUMP JUMPDEST PUSH4 0x4E487B71 PUSH1 0xE0 SHL PUSH0 MSTORE PUSH1 0x21 PUSH1 0x4 MSTORE PUSH1 0x24 PUSH0 REVERT JUMPDEST PUSH1 0x4 DUP2 LT ISZERO PUSH2 0x18D7 JUMPI PUSH0 MSTORE PUSH1 0x11 PUSH1 0x20 MSTORE PUSH1 0x40 PUSH0 KECCAK256 SWAP1 JUMP JUMPDEST SWAP1 PUSH1 0x1 DUP3 DUP2 SHR SWAP3 AND DUP1 ISZERO PUSH2 0x1930 JUMPI JUMPDEST PUSH1 0x20 DUP4 LT EQ PUSH2 0x191C JUMPI JUMP JUMPDEST PUSH4 0x4E487B71 PUSH1 0xE0 SHL PUSH0 MSTORE PUSH1 0x22 PUSH1 0x4 MSTORE PUSH1 0x24 PUSH0 REVERT JUMPDEST SWAP2 PUSH1 0x7F AND SWAP2 PUSH2 0x1911 JUMP JUMPDEST PUSH1 0x60 DUP2 ADD SWAP1 DUP2 LT PUSH8 0xFFFFFFFFFFFFFFFF DUP3 GT OR PUSH2 0x1956 JUMPI PUSH1 0x40 MSTORE JUMP JUMPDEST PUSH4 0x4E487B71 PUSH1 0xE0 SHL PUSH0 MSTORE PUSH1 0x41 PUSH1 0x4 MSTORE PUSH1 0x24 PUSH0 REVERT JUMPDEST PUSH1 0x20 DUP2 ADD SWAP1 DUP2 LT PUSH8 0xFFFFFFFFFFFFFFFF DUP3 GT OR PUSH2 0x1956 JUMPI PUSH1 0x40 MSTORE JUMP JUMPDEST PUSH1 0x40 DUP2 ADD SWAP1 DUP2 LT PUSH8 0xFFFFFFFFFFFFFFFF DUP3 GT OR PUSH2 0x1956 JUMPI PUSH1 0x40 MSTORE JUMP JUMPDEST SWAP1 PUSH1 0x1F DUP1 NOT SWAP2 ADD AND DUP2 ADD SWAP1 DUP2 LT PUSH8 0xFFFFFFFFFFFFFFFF DUP3 GT OR PUSH2 0x1956 JUMPI PUSH1 0x40 MSTORE JUMP JUMPDEST SWAP1 PUSH1 0x40 MLOAD SWAP2 DUP3 PUSH0 DUP3 SLOAD PUSH2 0x19D6 DUP2 PUSH2 0x1902 JUMP JUMPDEST SWAP1 DUP2 DUP5 MSTORE PUSH1 0x20 SWAP5 PUSH1 0x1 SWAP2 PUSH1 0x1 DUP2 AND SWAP1 DUP2 PUSH0 EQ PUSH2 0x1A44 JUMPI POP PUSH1 0x1 EQ PUSH2 0x1A06 JUMPI JUMPDEST POP POP POP PUSH2 0x1A04 SWAP3 POP SUB DUP4 PUSH2 0x19A2 JUMP JUMPDEST JUMP JUMPDEST PUSH0 SWAP1 DUP2 MSTORE DUP6 DUP2 KECCAK256 SWAP6 SWAP4 POP SWAP2 SWAP1 JUMPDEST DUP2 DUP4 LT PUSH2 0x1A2C JUMPI POP POP PUSH2 0x1A04 SWAP4 POP DUP3 ADD ADD PUSH0 DUP1 DUP1 PUSH2 0x19F5 JUMP JUMPDEST DUP6 SLOAD DUP9 DUP5 ADD DUP6 ADD MSTORE SWAP5 DUP6 ADD SWAP5 DUP8 SWAP5 POP SWAP2 DUP4 ADD SWAP2 PUSH2 0x1A13 JUMP JUMPDEST SWAP3 POP POP POP PUSH2 0x1A04 SWAP5 SWAP3 POP PUSH1 0xFF NOT AND DUP3 DUP5 ADD MSTORE ISZERO ISZERO PUSH1 0x5 SHL DUP3 ADD ADD PUSH0 DUP1 DUP1 PUSH2 0x19F5 JUMP JUMPDEST PUSH1 0x4 CALLDATALOAD SWAP1 PUSH1 0x1 PUSH1 0x1 PUSH1 0xA0 SHL SUB DUP3 AND DUP3 SUB PUSH2 0x23B JUMPI JUMP JUMPDEST PUSH1 0x24 CALLDATALOAD SWAP1 PUSH1 0x1 PUSH1 0x1 PUSH1 0xA0 SHL SUB DUP3 AND DUP3 SUB PUSH2 0x23B JUMPI JUMP JUMPDEST PUSH1 0x60 SWAP1 PUSH1 0x3 NOT ADD SLT PUSH2 0x23B JUMPI PUSH1 0x1 PUSH1 0x1 PUSH1 0xA0 SHL SUB SWAP1 PUSH1 0x4 CALLDATALOAD DUP3 DUP2 AND DUP2 SUB PUSH2 0x23B JUMPI SWAP2 PUSH1 0x24 CALLDATALOAD SWAP1 DUP2 AND DUP2 SUB PUSH2 0x23B JUMPI SWAP1 PUSH1 0x44 CALLDATALOAD SWAP1 JUMP JUMPDEST SWAP1 PUSH1 0x4 DUP3 LT ISZERO PUSH2 0x18D7 JUMPI MSTORE JUMP JUMPDEST PUSH8 0xFFFFFFFFFFFFFFFF DUP2 GT PUSH2 0x1956 JUMPI PUSH1 0x1F ADD PUSH1 0x1F NOT AND PUSH1 0x20 ADD SWAP1 JUMP JUMPDEST SWAP3 SWAP2 SWAP3 PUSH2 0x1AFC DUP3 PUSH2 0x1AD4 JUMP JUMPDEST SWAP2 PUSH2 0x1B0A PUSH1 0x40 MLOAD SWAP4 DUP5 PUSH2 0x19A2 JUMP JUMPDEST DUP3 SWAP5 DUP2 DUP5 MSTORE DUP2 DUP4 ADD GT PUSH2 0x23B JUMPI DUP3 DUP2 PUSH1 0x20 SWAP4 DUP5 PUSH0 SWAP7 ADD CALLDATACOPY ADD ADD MSTORE JUMP JUMPDEST PUSH1 0x1 PUSH1 0x1 PUSH1 0xA0 SHL SUB DUP3 DUP2 AND SWAP4 SWAP2 DUP5 ISZERO PUSH2 0x1DF2 JUMPI DUP3 PUSH0 MSTORE PUSH1 0x20 PUSH1 0x2 DUP2 MSTORE PUSH1 0x40 SWAP6 DUP4 DUP8 PUSH0 KECCAK256 SLOAD AND ISZERO ISZERO DUP1 PUSH2 0x1DEA JUMPI JUMPDEST PUSH2 0x1D9E JUMPI JUMPDEST DUP5 PUSH0 MSTORE PUSH1 0x2 DUP3 MSTORE DUP4 DUP8 PUSH0 KECCAK256 SLOAD AND SWAP6 CALLER ISZERO ISZERO DUP1 PUSH2 0x1D10 JUMPI JUMPDEST POP DUP7 ISZERO DUP1 ISZERO PUSH2 0x1CDF JUMPI JUMPDEST DUP3 PUSH0 MSTORE PUSH1 0x3 DUP5 MSTORE DUP9 PUSH0 KECCAK256 PUSH1 0x1 DUP2 SLOAD ADD SWAP1 SSTORE DUP7 PUSH0 MSTORE PUSH1 0x2 DUP5 MSTORE DUP9 PUSH0 KECCAK256 DUP4 PUSH1 0x1 PUSH1 0x1 PUSH1 0x60 SHL SUB PUSH1 0xA0 SHL DUP3 SLOAD AND OR SWAP1 SSTORE DUP7 DUP4 DUP10 PUSH32 0xDDF252AD1BE2C89B69C2B068FC378DAA952BA7F163C4A11628F55A4DF523B3EF PUSH0 DUP1 LOG4 ISZERO PUSH2 0x1C73 JUMPI PUSH1 0x8 SLOAD DUP7 PUSH0 MSTORE PUSH1 0x9 DUP5 MSTORE DUP9 PUSH0 KECCAK256 SSTORE PUSH2 0x1BE9 DUP7 PUSH2 0x1F69 JUMP JUMPDEST DUP2 DUP8 SUB PUSH2 0x1C24 JUMPI JUMPDEST POP POP POP AND SWAP3 DUP4 DUP4 SUB PUSH2 0x1C03 JUMPI POP POP POP POP JUMP JUMPDEST PUSH1 0x64 SWAP5 POP MLOAD SWAP3 PUSH4 0x64283D7B PUSH1 0xE0 SHL DUP5 MSTORE PUSH1 0x4 DUP5 ADD MSTORE PUSH1 0x24 DUP4 ADD MSTORE PUSH1 0x44 DUP3 ADD MSTORE REVERT JUMPDEST PUSH2 0x1C2D SWAP1 PUSH2 0x24A6 JUMP JUMPDEST PUSH0 NOT DUP2 ADD SWAP3 SWAP1 DUP4 GT PUSH2 0x1C5F JUMPI PUSH1 0x7 SWAP2 PUSH0 MSTORE PUSH1 0x6 DUP2 MSTORE DUP8 PUSH0 KECCAK256 DUP4 PUSH0 MSTORE DUP2 MSTORE DUP6 DUP9 PUSH0 KECCAK256 SSTORE DUP6 PUSH0 MSTORE MSTORE DUP6 PUSH0 KECCAK256 SSTORE PUSH0 DUP1 DUP1 PUSH2 0x1BF1 JUMP JUMPDEST PUSH4 0x4E487B71 PUSH1 0xE0 SHL PUSH0 MSTORE PUSH1 0x11 PUSH1 0x4 MSTORE PUSH1 0x24 PUSH0 REVERT JUMPDEST DUP7 DUP3 EQ PUSH2 0x1BE9 JUMPI PUSH2 0x1C83 DUP8 PUSH2 0x24A6 JUMP JUMPDEST DUP7 PUSH0 MSTORE PUSH1 0x7 DUP5 MSTORE DUP9 PUSH0 KECCAK256 SLOAD SWAP1 DUP9 PUSH0 MSTORE PUSH1 0x6 DUP6 MSTORE DUP10 PUSH0 KECCAK256 SWAP2 DUP2 DUP2 SUB PUSH2 0x1CBD JUMPI JUMPDEST POP DUP8 PUSH0 MSTORE PUSH1 0x7 DUP6 MSTORE PUSH0 DUP11 DUP2 KECCAK256 SSTORE PUSH0 MSTORE DUP4 MSTORE PUSH0 DUP9 DUP2 KECCAK256 SSTORE PUSH2 0x1BE9 JUMP JUMPDEST DUP2 PUSH0 MSTORE DUP3 DUP7 MSTORE DUP11 PUSH0 KECCAK256 SLOAD DUP2 PUSH0 MSTORE DUP1 DUP13 PUSH0 KECCAK256 SSTORE PUSH0 MSTORE PUSH1 0x7 DUP7 MSTORE DUP11 PUSH0 KECCAK256 SSTORE PUSH0 PUSH2 0x1CA2 JUMP JUMPDEST PUSH0 DUP8 DUP2 MSTORE PUSH1 0x4 PUSH1 0x20 MSTORE PUSH1 0x40 DUP2 KECCAK256 DUP1 SLOAD PUSH1 0x1 PUSH1 0x1 PUSH1 0xA0 SHL SUB NOT AND SWAP1 SSTORE DUP9 DUP2 MSTORE PUSH1 0x3 DUP6 MSTORE DUP10 SWAP1 KECCAK256 DUP1 SLOAD PUSH0 NOT ADD SWAP1 SSTORE PUSH2 0x1B79 JUMP JUMPDEST DUP1 PUSH2 0x1D5D JUMPI JUMPDEST ISZERO PUSH2 0x1D21 JUMPI PUSH0 PUSH2 0x1B6F JUMP JUMPDEST DUP8 DUP7 DUP9 PUSH2 0x1D3E JUMPI PUSH1 0x24 SWAP2 MLOAD SWAP1 PUSH4 0x7E273289 PUSH1 0xE0 SHL DUP3 MSTORE PUSH1 0x4 DUP3 ADD MSTORE REVERT JUMPDEST SWAP1 MLOAD PUSH4 0x177E802F PUSH1 0xE0 SHL DUP2 MSTORE CALLER PUSH1 0x4 DUP3 ADD MSTORE PUSH1 0x24 DUP2 ADD SWAP2 SWAP1 SWAP2 MSTORE PUSH1 0x44 SWAP1 REVERT JUMPDEST POP CALLER DUP8 EQ DUP1 ISZERO PUSH2 0x1D82 JUMPI JUMPDEST DUP1 PUSH2 0x1D16 JUMPI POP DUP6 PUSH0 MSTORE PUSH1 0x4 DUP4 MSTORE CALLER DUP6 DUP10 PUSH0 KECCAK256 SLOAD AND EQ PUSH2 0x1D16 JUMP JUMPDEST POP DUP7 PUSH0 MSTORE PUSH1 0x5 DUP4 MSTORE DUP8 PUSH0 KECCAK256 CALLER PUSH0 MSTORE DUP4 MSTORE PUSH1 0xFF DUP9 PUSH0 KECCAK256 SLOAD AND PUSH2 0x1D68 JUMP JUMPDEST PUSH1 0xD DUP3 MSTORE PUSH1 0xFF PUSH1 0x2 DUP9 PUSH0 KECCAK256 ADD SLOAD AND ISZERO PUSH2 0x1B58 JUMPI DUP7 MLOAD PUSH3 0x461BCD PUSH1 0xE5 SHL DUP2 MSTORE PUSH1 0x4 DUP2 ADD DUP4 SWAP1 MSTORE PUSH1 0x12 PUSH1 0x24 DUP3 ADD MSTORE PUSH18 0x151BDAD95B881A5CC81CDBDD5B189BDD5B99 PUSH1 0x72 SHL PUSH1 0x44 DUP3 ADD MSTORE PUSH1 0x64 SWAP1 REVERT JUMPDEST POP PUSH1 0x1 PUSH2 0x1B53 JUMP JUMPDEST PUSH1 0x40 MLOAD PUSH4 0x32505749 PUSH1 0xE1 SHL DUP2 MSTORE PUSH0 PUSH1 0x4 DUP3 ADD MSTORE PUSH1 0x24 SWAP1 REVERT JUMPDEST PUSH2 0x1E13 DUP2 PUSH2 0x24A6 JUMP JUMPDEST DUP3 LT ISZERO PUSH2 0x1E3B JUMPI PUSH1 0x1 DUP1 PUSH1 0xA0 SHL SUB AND PUSH0 MSTORE PUSH1 0x6 PUSH1 0x20 MSTORE PUSH1 0x40 PUSH0 KECCAK256 SWAP1 PUSH0 MSTORE PUSH1 0x20 MSTORE PUSH1 0x40 PUSH0 KECCAK256 SLOAD SWAP1 JUMP JUMPDEST PUSH1 0x40 MLOAD PUSH4 0x295F44F7 PUSH1 0xE2 SHL DUP2 MSTORE PUSH1 0x1 PUSH1 0x1 PUSH1 0xA0 SHL SUB SWAP2 SWAP1 SWAP2 AND PUSH1 0x4 DUP3 ADD MSTORE PUSH1 0x24 DUP2 ADD SWAP2 SWAP1 SWAP2 MSTORE PUSH1 0x44 SWAP1 REVERT JUMPDEST ISZERO PUSH2 0x1E6D JUMPI JUMP JUMPDEST PUSH1 0x40 MLOAD PUSH3 0x461BCD PUSH1 0xE5 SHL DUP2 MSTORE PUSH1 0x20 PUSH1 0x4 DUP3 ADD MSTORE PUSH1 0x14 PUSH1 0x24 DUP3 ADD MSTORE PUSH20 0x151BDAD95B88191BD95CC81B9BDD08195E1A5CDD PUSH1 0x62 SHL PUSH1 0x44 DUP3 ADD MSTORE PUSH1 0x64 SWAP1 REVERT JUMPDEST PUSH1 0x4 DUP3 LT ISZERO PUSH2 0x18D7 JUMPI MSTORE JUMP JUMPDEST PUSH8 0xFFFFFFFFFFFFFFFF DUP2 GT PUSH2 0x1956 JUMPI PUSH1 0x5 SHL PUSH1 0x20 ADD SWAP1 JUMP JUMPDEST ISZERO PUSH2 0x1ED4 JUMPI JUMP JUMPDEST PUSH1 0x40 MLOAD PUSH3 0x461BCD PUSH1 0xE5 SHL DUP2 MSTORE PUSH1 0x20 PUSH1 0x4 DUP3 ADD MSTORE PUSH1 0xC PUSH1 0x24 DUP3 ADD MSTORE PUSH12 0x24B73B30B634B2103A34B2B9 PUSH1 0xA1 SHL PUSH1 0x44 DUP3 ADD MSTORE PUSH1 0x64 SWAP1 REVERT JUMPDEST SWAP1 PUSH1 0x4 DUP2 LT ISZERO PUSH2 0x18D7 JUMPI PUSH1 0xFF DUP1 NOT DUP4 SLOAD AND SWAP2 AND OR SWAP1 SSTORE JUMP JUMPDEST PUSH1 0x8 SLOAD DUP2 LT ISZERO PUSH2 0x1F55 JUMPI PUSH1 0x8 PUSH0 MSTORE PUSH32 0xF3F7A9FE364FAAB93B216DA50A3214154F22A0A2B415B23A84C8169E8B636EE3 ADD SWAP1 PUSH0 SWAP1 JUMP JUMPDEST PUSH4 0x4E487B71 PUSH1 0xE0 SHL PUSH0 MSTORE PUSH1 0x32 PUSH1 0x4 MSTORE PUSH1 0x24 PUSH0 REVERT JUMPDEST PUSH1 0x8 SLOAD PUSH1 0x1 PUSH1 0x40 SHL DUP2 LT ISZERO PUSH2 0x1956 JUMPI DUP1 PUSH1 0x1 PUSH2 0x1F88 SWAP3 ADD PUSH1 0x8 SSTORE PUSH2 0x1F20 JUMP JUMPDEST DUP2 SWAP3 SWAP2 SLOAD SWAP1 PUSH1 0x3 SHL SWAP2 DUP3 SHL SWAP2 PUSH0 NOT SWAP1 SHL NOT AND OR SWAP1 SSTORE JUMP JUMPDEST DUP1 PUSH0 MSTORE PUSH1 0x20 PUSH1 0xD DUP2 MSTORE PUSH1 0x40 PUSH0 KECCAK256 PUSH1 0xFF PUSH1 0x2 PUSH1 0x40 MLOAD SWAP3 PUSH2 0x1FBD DUP5 PUSH2 0x193A JUMP JUMPDEST PUSH2 0x1FCA DUP4 DUP3 SLOAD AND DUP6 PUSH2 0x1EA9 JUMP JUMPDEST PUSH1 0x1 DUP2 ADD SLOAD DUP6 DUP6 ADD MSTORE ADD SLOAD AND ISZERO ISZERO PUSH1 0x40 DUP3 ADD MSTORE DUP1 MLOAD PUSH1 0x4 DUP2 LT ISZERO PUSH2 0x18D7 JUMPI PUSH2 0x342 PUSH2 0x1FF4 SWAP2 PUSH2 0x18C0 JUMP JUMPDEST SWAP1 MLOAD SWAP1 PUSH1 0x4 DUP3 LT ISZERO PUSH2 0x18D7 JUMPI PUSH2 0x24A3 SWAP3 PUSH2 0x201C PUSH2 0x2016 PUSH2 0x342 PUSH2 0x36F SWAP6 PUSH2 0x18EB JUMP JUMPDEST SWAP6 PUSH2 0x2542 JUMP JUMPDEST SWAP5 PUSH1 0x40 MLOAD SWAP6 DUP7 SWAP4 PUSH32 0x3C73766720786D6C6E733D22687474703A2F2F7777772E77332E6F72672F3230 DUP5 DUP7 ADD MSTORE PUSH32 0x30302F737667222076696577426F783D223020302034303020343030223E0000 PUSH1 0x40 DUP7 ADD MSTORE PUSH6 0x1E3232B3399F PUSH1 0xD1 SHL PUSH1 0x5E DUP7 ADD MSTORE PUSH32 0x3C6C696E6561724772616469656E742069643D226267222078313D2230252220 PUSH1 0x64 DUP7 ADD MSTORE PUSH32 0x79313D223025222078323D2231303025222079323D2231303025223E00000000 PUSH1 0x84 DUP7 ADD MSTORE PUSH32 0x3C73746F70206F66667365743D22302522207374796C653D2273746F702D636F PUSH1 0xA0 DUP7 ADD MSTORE PUSH14 0x3637B91D1198B098B0993291179F PUSH1 0x91 SHL PUSH1 0xC0 DUP7 ADD MSTORE PUSH32 0x3C73746F70206F66667365743D223130302522207374796C653D2273746F702D PUSH1 0xCE DUP7 ADD MSTORE PUSH16 0x31B7B637B91D11989B191899B291179F PUSH1 0x81 SHL PUSH1 0xEE DUP7 ADD MSTORE PUSH17 0x1E17B634B732B0B923B930B234B2B73A1F PUSH1 0x79 SHL PUSH1 0xFE DUP7 ADD MSTORE PUSH7 0x1E17B232B3399F PUSH1 0xC9 SHL PUSH2 0x10F DUP7 ADD MSTORE PUSH32 0x3C726563742077696474683D2234303022206865696768743D22343030222066 PUSH2 0x116 DUP7 ADD MSTORE PUSH16 0x34B6361E913AB9361411B1339491179F PUSH1 0x81 SHL PUSH2 0x136 DUP7 ADD MSTORE PUSH32 0x3C636972636C652063783D22323030222063793D223135302220723D22383022 PUSH2 0x146 DUP7 ADD MSTORE PUSH7 0x103334B6361E91 PUSH1 0xC9 SHL PUSH2 0x166 DUP7 ADD MSTORE PUSH2 0x16D SWAP3 PUSH7 0x1026B2B6B132B9 PUSH1 0xC9 SHL DUP3 MLOAD SWAP2 DUP7 DUP5 ADD SWAP3 PUSH2 0x220C DUP2 DUP9 DUP12 ADD DUP7 PUSH2 0x187A JUMP JUMPDEST DUP9 ADD SWAP6 PUSH17 0x111037B830B1B4BA3C9E9118171C91179F PUSH1 0x79 SHL SWAP1 DUP8 ADD MSTORE PUSH32 0x3C7465787420783D223230302220793D223136302220666F6E742D66616D696C PUSH2 0x17E DUP8 ADD MSTORE PUSH32 0x2220746578742D616E63686F723D226D6964646C65223E000000000000000000 PUSH32 0x793D22417269616C2C2073616E732D73657269662220666F6E742D73697A653D SWAP4 DUP5 PUSH2 0x19E DUP10 ADD MSTORE PUSH32 0x223430222066696C6C3D2277686974652220746578742D616E63686F723D226D PUSH2 0x1BE DUP10 ADD MSTORE PUSH32 0x6964646C652220666F6E742D7765696768743D22626F6C64223E000000000000 SWAP8 DUP9 PUSH2 0x1DE DUP3 ADD MSTORE PUSH4 0xF09FA6B7 PUSH1 0xE0 SHL PUSH2 0x1F8 DUP3 ADD MSTORE PUSH7 0x1E17BA32BC3A1F PUSH1 0xC9 SHL SWAP9 DUP10 PUSH2 0x1FC DUP4 ADD MSTORE PUSH32 0x3C7465787420783D223230302220793D223237302220666F6E742D66616D696C PUSH2 0x203 DUP4 ADD MSTORE DUP7 PUSH2 0x223 DUP4 ADD MSTORE PUSH32 0x223238222066696C6C3D2277686974652220746578742D616E63686F723D226D PUSH2 0x243 DUP4 ADD MSTORE PUSH2 0x263 DUP3 ADD MSTORE PUSH7 0x4D656E6F44414F PUSH1 0xC8 SHL PUSH2 0x27D DUP3 ADD MSTORE DUP9 PUSH2 0x284 DUP3 ADD MSTORE PUSH32 0x3C7465787420783D223230302220793D223331302220666F6E742D66616D696C PUSH2 0x28B DUP3 ADD MSTORE DUP6 PUSH2 0x2AB DUP3 ADD MSTORE PUSH11 0x11191811103334B6361E91 PUSH1 0xA9 SHL PUSH2 0x2CB DUP3 ADD MSTORE PUSH2 0x23D3 PUSH2 0x2D6 SWAP8 MLOAD DUP1 SWAP4 DUP10 DUP5 ADD SWAP1 PUSH2 0x187A JUMP JUMPDEST ADD SWAP5 DUP6 ADD MSTORE PUSH2 0x2ED SWAP4 PUSH2 0x23EE DUP3 MLOAD DUP1 SWAP4 DUP11 DUP9 DUP6 ADD SWAP2 ADD PUSH2 0x187A JUMP JUMPDEST ADD SWAP3 DUP4 ADD MSTORE DUP4 PUSH2 0x2F4 DUP4 ADD MSTORE PUSH32 0x3C7465787420783D223230302220793D223337302220666F6E742D66616D696C PUSH2 0x2FB DUP4 ADD MSTORE PUSH2 0x31B DUP3 ADD MSTORE PUSH32 0x223132222066696C6C3D22233838382220746578742D616E63686F723D226D69 PUSH2 0x33B DUP3 ADD MSTORE PUSH6 0x32323632911F PUSH1 0xD1 SHL PUSH2 0x35B DUP3 ADD MSTORE PUSH1 0x23 PUSH1 0xF8 SHL PUSH2 0x361 DUP3 ADD MSTORE PUSH2 0x247F PUSH2 0x362 SWAP5 DUP4 MLOAD SWAP4 DUP5 SWAP2 DUP8 DUP6 ADD SWAP2 ADD PUSH2 0x187A JUMP JUMPDEST ADD SWAP2 DUP3 ADD MSTORE PUSH6 0x1E17B9BB339F PUSH1 0xD1 SHL PUSH2 0x369 DUP3 ADD MSTORE SUB PUSH2 0x34F DUP2 ADD DUP5 MSTORE ADD DUP3 PUSH2 0x19A2 JUMP JUMPDEST SWAP1 JUMP JUMPDEST PUSH1 0x1 PUSH1 0x1 PUSH1 0xA0 SHL SUB AND DUP1 ISZERO PUSH2 0x24C4 JUMPI PUSH0 MSTORE PUSH1 0x3 PUSH1 0x20 MSTORE PUSH1 0x40 PUSH0 KECCAK256 SLOAD SWAP1 JUMP JUMPDEST PUSH1 0x40 MLOAD PUSH4 0x22718AD9 PUSH1 0xE2 SHL DUP2 MSTORE PUSH0 PUSH1 0x4 DUP3 ADD MSTORE PUSH1 0x24 SWAP1 REVERT JUMPDEST PUSH0 DUP2 DUP2 MSTORE PUSH1 0x2 PUSH1 0x20 MSTORE PUSH1 0x40 SWAP1 KECCAK256 SLOAD PUSH1 0x1 PUSH1 0x1 PUSH1 0xA0 SHL SUB AND SWAP1 DUP2 ISZERO PUSH2 0x24FE JUMPI POP SWAP1 JUMP JUMPDEST PUSH1 0x24 SWAP1 PUSH1 0x40 MLOAD SWAP1 PUSH4 0x7E273289 PUSH1 0xE0 SHL DUP3 MSTORE PUSH1 0x4 DUP3 ADD MSTORE REVERT JUMPDEST PUSH1 0xB SLOAD PUSH1 0x1 PUSH1 0x1 PUSH1 0xA0 SHL SUB AND CALLER SUB PUSH2 0x252A JUMPI JUMP JUMPDEST PUSH1 0x40 MLOAD PUSH4 0x118CDAA7 PUSH1 0xE0 SHL DUP2 MSTORE CALLER PUSH1 0x4 DUP3 ADD MSTORE PUSH1 0x24 SWAP1 REVERT JUMPDEST DUP1 PUSH0 SWAP2 PUSH27 0x184F03E93FF9F4DAA797ED6E38ED64BF6A1F010000000000000000 DUP1 DUP3 LT ISZERO PUSH2 0x269B JUMPI JUMPDEST POP PUSH14 0x4EE2D6D415B85ACEF8100000000 DUP1 DUP4 LT ISZERO PUSH2 0x268C JUMPI JUMPDEST POP PUSH7 0x2386F26FC10000 DUP1 DUP4 LT ISZERO PUSH2 0x267D JUMPI JUMPDEST POP PUSH4 0x5F5E100 DUP1 DUP4 LT ISZERO PUSH2 0x266E JUMPI JUMPDEST POP PUSH2 0x2710 DUP1 DUP4 LT ISZERO PUSH2 0x265F JUMPI JUMPDEST POP PUSH1 0x64 DUP3 LT ISZERO PUSH2 0x264F JUMPI JUMPDEST PUSH1 0xA DUP1 SWAP3 LT ISZERO PUSH2 0x2645 JUMPI JUMPDEST PUSH1 0x1 SWAP1 DUP2 PUSH1 0x21 PUSH1 0x1 DUP7 ADD SWAP6 PUSH2 0x25DB DUP8 PUSH2 0x1AD4 JUMP JUMPDEST SWAP7 PUSH2 0x25E9 PUSH1 0x40 MLOAD SWAP9 DUP10 PUSH2 0x19A2 JUMP JUMPDEST DUP1 DUP9 MSTORE PUSH2 0x25F8 PUSH1 0x1F NOT SWAP2 PUSH2 0x1AD4 JUMP JUMPDEST ADD CALLDATASIZE PUSH1 0x20 DUP10 ADD CALLDATACOPY DUP7 ADD ADD SWAP1 JUMPDEST PUSH2 0x2610 JUMPI JUMPDEST POP POP POP POP SWAP1 JUMP JUMPDEST PUSH0 NOT ADD SWAP1 DUP4 SWAP1 PUSH16 0x181899199A1A9B1B9C1CB0B131B232B3 PUSH1 0x81 SHL DUP3 DUP3 MOD BYTE DUP4 MSTORE8 DIV SWAP2 DUP3 ISZERO PUSH2 0x2640 JUMPI SWAP2 SWAP1 DUP3 PUSH2 0x2604 JUMP JUMPDEST PUSH2 0x2609 JUMP JUMPDEST SWAP2 PUSH1 0x1 ADD SWAP2 PUSH2 0x25C7 JUMP JUMPDEST SWAP2 SWAP1 PUSH1 0x64 PUSH1 0x2 SWAP2 DIV SWAP2 ADD SWAP2 PUSH2 0x25BC JUMP JUMPDEST PUSH1 0x4 SWAP2 SWAP4 SWAP3 DIV SWAP2 ADD SWAP2 PUSH0 PUSH2 0x25B1 JUMP JUMPDEST PUSH1 0x8 SWAP2 SWAP4 SWAP3 DIV SWAP2 ADD SWAP2 PUSH0 PUSH2 0x25A4 JUMP JUMPDEST PUSH1 0x10 SWAP2 SWAP4 SWAP3 DIV SWAP2 ADD SWAP2 PUSH0 PUSH2 0x2595 JUMP JUMPDEST PUSH1 0x20 SWAP2 SWAP4 SWAP3 DIV SWAP2 ADD SWAP2 PUSH0 PUSH2 0x2583 JUMP JUMPDEST PUSH1 0x40 SWAP4 POP DUP2 DIV SWAP2 POP PUSH0 PUSH2 0x256A JUMP JUMPDEST SWAP3 SWAP4 SWAP1 SWAP2 SWAP4 DUP5 EXTCODESIZE PUSH2 0x26BC JUMPI JUMPDEST POP POP POP POP POP JUMP JUMPDEST PUSH1 0x40 MLOAD PUSH4 0xA85BD01 PUSH1 0xE1 SHL DUP1 DUP3 MSTORE PUSH1 0x1 PUSH1 0x1 PUSH1 0xA0 SHL SUB SWAP6 DUP7 AND PUSH1 0x4 DUP4 ADD MSTORE SWAP4 DUP6 AND PUSH1 0x24 DUP3 ADD MSTORE PUSH1 0x44 DUP2 ADD SWAP2 SWAP1 SWAP2 MSTORE PUSH1 0x80 PUSH1 0x64 DUP3 ADD MSTORE PUSH1 0x20 SWAP6 SWAP5 SWAP1 SWAP4 AND SWAP4 SWAP3 SWAP1 DUP6 SWAP1 DUP3 SWAP1 DUP2 SWAP1 PUSH2 0x270F SWAP1 PUSH1 0x84 DUP4 ADD SWAP1 PUSH2 0x189B JUMP JUMPDEST SUB DUP2 PUSH0 DUP9 GAS CALL PUSH0 SWAP2 DUP2 PUSH2 0x27B3 JUMPI JUMPDEST POP PUSH2 0x277C JUMPI POP POP POP RETURNDATASIZE PUSH0 EQ PUSH2 0x2774 JUMPI RETURNDATASIZE SWAP2 PUSH2 0x2737 DUP4 PUSH2 0x1AD4 JUMP JUMPDEST SWAP3 PUSH2 0x2745 PUSH1 0x40 MLOAD SWAP5 DUP6 PUSH2 0x19A2 JUMP JUMPDEST DUP4 MSTORE RETURNDATASIZE PUSH0 DUP3 DUP6 ADD RETURNDATACOPY JUMPDEST DUP3 MLOAD SWAP3 DUP4 PUSH2 0x276F JUMPI PUSH1 0x40 MLOAD PUSH4 0x32505749 PUSH1 0xE1 SHL DUP2 MSTORE PUSH1 0x4 DUP2 ADD DUP5 SWAP1 MSTORE PUSH1 0x24 SWAP1 REVERT JUMPDEST ADD SWAP1 POP REVERT JUMPDEST PUSH1 0x60 SWAP2 PUSH2 0x274E JUMP JUMPDEST SWAP2 SWAP4 POP PUSH1 0x1 PUSH1 0x1 PUSH1 0xE0 SHL SUB NOT SWAP1 SWAP2 AND SUB PUSH2 0x279B JUMPI POP PUSH0 DUP1 DUP1 DUP1 DUP1 PUSH2 0x26B5 JUMP JUMPDEST PUSH1 0x24 SWAP1 PUSH1 0x40 MLOAD SWAP1 PUSH4 0x32505749 PUSH1 0xE1 SHL DUP3 MSTORE PUSH1 0x4 DUP3 ADD MSTORE REVERT JUMPDEST SWAP1 SWAP2 POP DUP6 DUP2 DUP2 RETURNDATASIZE DUP4 GT PUSH2 0x27EC JUMPI JUMPDEST PUSH2 0x27CB DUP2 DUP4 PUSH2 0x19A2 JUMP JUMPDEST DUP2 ADD SUB SLT PUSH2 0x23B JUMPI MLOAD PUSH1 0x1 PUSH1 0x1 PUSH1 0xE0 SHL SUB NOT DUP2 AND DUP2 SUB PUSH2 0x23B JUMPI SWAP1 PUSH0 PUSH2 0x271D JUMP JUMPDEST POP RETURNDATASIZE PUSH2 0x27C1 JUMP JUMPDEST DUP1 MLOAD ISZERO PUSH2 0x291F JUMPI DUP1 MLOAD SWAP2 PUSH1 0x2 DUP1 DUP5 ADD DUP1 SWAP5 GT PUSH2 0x1C5F JUMPI PUSH1 0x3 SWAP4 DUP5 SWAP1 DIV PUSH1 0x2 DUP2 SWAP1 SHL SWAP2 SWAP1 PUSH1 0x1 PUSH1 0x1 PUSH1 0xFE SHL SUB DUP2 AND SUB PUSH2 0x1C5F JUMPI SWAP4 PUSH1 0x40 MLOAD SWAP4 PUSH32 0x4142434445464748494A4B4C4D4E4F505152535455565758595A616263646566 PUSH1 0x1F MSTORE PUSH1 0x3F SWAP2 PUSH32 0x6768696A6B6C6D6E6F707172737475767778797A303132333435363738392B2F PUSH1 0x3F MSTORE PUSH1 0x20 DUP7 ADD SWAP3 DUP3 SWAP2 DUP4 MLOAD DUP5 ADD SWAP2 PUSH1 0x20 DUP4 ADD SWAP10 DUP11 MLOAD SWAP5 PUSH0 DUP13 MSTORE JUMPDEST DUP5 DUP2 LT PUSH2 0x28E3 JUMPI POP POP POP POP POP SWAP1 PUSH1 0x3 SWAP2 PUSH1 0x20 SWAP6 SWAP7 SWAP8 MSTORE MLOAD MOD DUP1 PUSH1 0x1 EQ PUSH2 0x28CE JUMPI PUSH1 0x2 EQ PUSH2 0x28C1 JUMPI JUMPDEST POP DUP1 DUP5 MSTORE DUP4 ADD ADD PUSH1 0x40 MSTORE JUMP JUMPDEST PUSH1 0x3D SWAP1 PUSH0 NOT ADD MSTORE8 PUSH0 PUSH2 0x28B5 JUMP JUMPDEST POP PUSH1 0x3D SWAP1 DUP2 PUSH0 NOT DUP3 ADD MSTORE8 PUSH1 0x1 NOT ADD MSTORE8 PUSH0 PUSH2 0x28B5 JUMP JUMPDEST DUP4 PUSH1 0x4 SWAP2 SWAP13 SWAP6 SWAP9 SWAP13 ADD SWAP12 DUP4 DUP14 MLOAD DUP2 DUP2 PUSH1 0x12 SHR AND MLOAD DUP4 MSTORE8 DUP2 DUP2 PUSH1 0xC SHR AND MLOAD PUSH1 0x1 DUP5 ADD MSTORE8 DUP2 DUP2 PUSH1 0x6 SHR AND MLOAD DUP6 DUP5 ADD MSTORE8 AND MLOAD DUP6 DUP3 ADD MSTORE8 ADD SWAP7 SWAP4 SWAP11 PUSH2 0x288D JUMP JUMPDEST POP PUSH1 0x40 MLOAD PUSH2 0x292C DUP2 PUSH2 0x196A JUMP JUMPDEST PUSH0 DUP2 MSTORE SWAP1 JUMP INVALID DUP14 GT ADDMOD 0xE1 SIGNEXTEND 0xCB PUSH29 0x27DDDFC02ED9D693A074039D026CF4EA4240B40F7D581AC802A2646970 PUSH7 0x7358221220E8A2 BALANCE 0x23 SLT 0xCA BLOCKHASH POP SUB 0xEE 0xA8 EXP PUSH20 0x5F5E55508812AE968F079176DB804A75E367964 PUSH20 0x6F6C634300081800330000000000000000000000 "},"methodIdentifiers":{"approve(address,uint256)":"095ea7b3","balanceOf(address)":"70a08231","baseExternalUrl()":"f56026af","generateSVG(uint256)":"6dcee4ca","getApproved(uint256)":"081812fc","getMembership(uint256)":"38fbf2c6","getTokensByOwner(address)":"40398d67","isApprovedForAll(address,address)":"e985e9c5","memberships(uint256)":"321621d7","mint(address,uint256)":"40c10f19","name()":"06fdde03","owner()":"8da5cb5b","ownerOf(uint256)":"6352211e","releaseSoulbound(uint256)":"8b75f27d","renounceOwnership()":"715018a6","safeTransferFrom(address,address,uint256)":"42842e0e","safeTransferFrom(address,address,uint256,bytes)":"b88d4fde","setApprovalForAll(address,bool)":"a22cb465","setBaseExternalUrl(string)":"c506301d","supportsInterface(bytes4)":"01ffc9a7","symbol()":"95d89b41","tierColors(uint8)":"0777ed20","tierNames(uint8)":"de5f880d","tokenByIndex(uint256)":"4f6ccce7","tokenOfOwnerByIndex(address,uint256)":"2f745c59","tokenURI(uint256)":"c87b56dd","totalSupply()":"18160ddd","transferFrom(address,address,uint256)":"23b872dd","transferOwnership(address)":"f2fde38b","upgradeTier(uint256,uint256)":"60d77722"}}}}}