{"src/MenoDAOCases.sol":{"MenoDAOCases":{"abi":[{"inputs":[],"stateMutability":"nonpayable","type":"constructor"},{"anonymous":false,"inputs":[{"indexed":true,"internalType":"uint256","name":"id","type":"uint256"},{"indexed":false,"internalType":"string","name":"beforeCID","type":"string"},{"indexed":false,"internalType":"string","name":"afterCID","type":"string"},{"indexed":true,"internalType":"address","name":"clinic","type":"address"}],"name":"CaseSubmitted","type":"event"},{"anonymous":false,"inputs":[{"indexed":true,"internalType":"uint256","name":"id","type":"uint256"},{"indexed":true,"internalType":"address","name":"agent","type":"address"}],"name":"CaseVerified","type":"event"},{"anonymous":false,"inputs":[{"indexed":true,"internalType":"uint256","name":"id","type":"uint256"},{"indexed":true,"internalType":"address","name":"clinic","type":"address"},{"indexed":false,"internalType":"uint256","name":"amount","type":"uint256"}],"name":"Paid","type":"event"},{"inputs":[{"internalType":"uint256","name":"id","type":"uint256"}],"name":"approveAndPay","outputs":[],"stateMutability":"nonpayable","type":"function"},{"inputs":[],"name":"caseCount","outputs":[{"internalType":"uint256","name":"","type":"uint256"}],"stateMutability":"view","type":"function"},{"inputs":[{"internalType":"uint256","name":"","type":"uint256"}],"name":"cases","outputs":[{"internalType":"string","name":"beforeCID","type":"string"},{"internalType":"string","name":"afterCID","type":"string"},{"internalType":"address","name":"clinic","type":"address"},{"internalType":"bool","name":"paid","type":"bool"},{"internalType":"uint256","name":"submittedAt","type":"uint256"}],"stateMutability":"view","type":"function"},{"inputs":[{"internalType":"uint256","name":"id","type":"uint256"}],"name":"getCase","outputs":[{"internalType":"string","name":"beforeCID","type":"string"},{"internalType":"string","name":"afterCID","type":"string"},{"internalType":"address","name":"clinic","type":"address"},{"internalType":"bool","name":"paid","type":"bool"},{"internalType":"uint256","name":"submittedAt","type":"uint256"}],"stateMutability":"view","type":"function"},{"inputs":[],"name":"owner","outputs":[{"internalType":"address","name":"","type":"address"}],"stateMutability":"view","type":"function"},{"inputs":[{"internalType":"string","name":"beforeCID","type":"string"},{"internalType":"string","name":"afterCID","type":"string"},{"internalType":"address","name":"clinic","type":"address"}],"name":"submitCase","outputs":[{"internalType":"uint256","name":"","type":"uint256"}],"stateMutability":"nonpayable","type":"function"},{"inputs":[],"name":"withdraw","outputs":[],"stateMutability":"nonpayable","type":"function"},{"stateMutability":"payable","type":"receive"}],"evm":{"bytecode":{"linkReferences":{},"object":"6080806040523461002857600280546001600160a01b03191633179055610b0b908161002d8239f35b5f80fdfe6080604052600436101561001a575b3615610018575f80fd5b005b5f3560e01c806307897007146106ba57806320a32e06146101f15780633ccfd60b1461017c5780638da5cb5b14610154578063a91a1080146100f3578063da2d7e95146100d65763f09790dd0361000e57346100d25760203660031901126100d2576004355f525f60205260405f20610092816109cc565b906100ce6100a2600183016109cc565b6002830154600390930154604051948594919260a083901c60ff16926001600160a01b0316918661094e565b0390f35b5f80fd5b346100d2575f3660031901126100d2576020600154604051908152f35b346100d25760203660031901126100d2576004355f525f60205260405f2060028101546100ce6003830154610133600161012c866109cc565b95016109cc565b60405194859460a081901c60ff16926001600160a01b03909116918661094e565b346100d2575f3660031901126100d2576002546040516001600160a01b039091168152602090f35b346100d2575f3660031901126100d2575f80808060018060a01b03600254166101a6813314610a6e565b47905af16101b2610aa6565b50156101ba57005b60405162461bcd60e51b815260206004820152600f60248201526e15da5d1a191c985dc819985a5b1959608a1b6044820152606490fd5b346100d25760603660031901126100d25760043567ffffffffffffffff81116100d2576102229036906004016108ca565b60243567ffffffffffffffff81116100d2576102429036906004016108ca565b60443591906001600160a01b03831683036100d25781511561068057805115610647576001600160a01b0383161561060957600154916040519360a0850185811067ffffffffffffffff8211176105355760405281855282602086015260018060a01b03811660408601525f6060860152426080860152835f525f60205260405f20855180519067ffffffffffffffff82116105355781906102e48454610994565b601f81116105bc575b50602090601f8311600114610554575f92610549575b50508160011b915f199060031b1c19161781555b602086015195865167ffffffffffffffff81116105355761033b6001840154610994565b97601f89116104f1575b8798505f97969750602090601f831160011461045457608061041594846103fc98957f343679030c1cb25799494a00f49045e8e7744e6aace907062230de94bc134f669a98956003955f92610449575b50505f1982861b1c1916600191821b17908501555b6002840160018060a01b0360408301511681549060ff60a01b6060850151151560a01b16916affffffffffffffffffffff60a81b16171790550151910155604051938493604085526040850190610910565b83810360208501526001600160a01b0390911696610910565b0390a3600154905f19821461043557600160209201600155604051908152f35b634e487b7160e01b5f52601160045260245ffd5b015190508e80610395565b90600185015f5260205f20915f5b601f19851681106104d65750610415946001857f343679030c1cb25799494a00f49045e8e7744e6aace907062230de94bc134f669a98956003956080956103fc9c99601f198116106104bf575b505050811b0160018501556103aa565b01515f1983881b60f8161c191690558e80806104af565b8183015184558b995060019093019260209283019201610462565b600184015f5260205f20601f830160051c81016020841061052e575b601f8b0160051c82018110610523575050610345565b5f815560010161050d565b508061050d565b634e487b7160e01b5f52604160045260245ffd5b015190508880610303565b9250835f5260205f20905f935b601f19841685106105a1576001945083601f19811610610589575b505050811b018155610317565b01515f1960f88460031b161c1916905588808061057c565b81810151835560209485019460019093019290910190610561565b909150835f5260205f20601f840160051c810160208510610602575b90849392915b601f830160051c820181106105f45750506102ed565b5f81558594506001016105de565b50806105d8565b60405162461bcd60e51b8152602060048201526016602482015275496e76616c696420636c696e6963206164647265737360501b6044820152606490fd5b60405162461bcd60e51b815260206004820152601160248201527018599d195c90d251081c995c5d5a5c9959607a1b6044820152606490fd5b60405162461bcd60e51b81526020600482015260126024820152711899599bdc9950d251081c995c5d5a5c995960721b6044820152606490fd5b346100d2576020806003193601126100d2576002546001600160a01b0391600435916106e99084163314610a6e565b815f525f815260405f206106fd8154610994565b15610851576002019283549360ff8560a01c1661081d57662386f26fc10000948547106107d8575f808088868295600160a01b60ff60a01b198216178855338b7f55ee10b99a5cf621d250aed126e0aff341f551a869130f94c53191147307915b8680a3165af161076c610aa6565b50156107a1575460405194855216927f4f2d18324ee95128de091ed2adc501295479000ce4c2cec607aeb1b67e189e2f9190a3005b60405162461bcd60e51b815260048101849052600f60248201526e151c985b9cd9995c8819985a5b1959608a1b6044820152606490fd5b60405162461bcd60e51b815260048101859052601d60248201527f496e73756666696369656e7420636f6e74726163742062616c616e63650000006044820152606490fd5b60405162461bcd60e51b815260048101849052600c60248201526b105b1c9958591e481c185a5960a21b6044820152606490fd5b60405162461bcd60e51b815260048101839052601360248201527210d85cd948191bd95cc81b9bdd08195e1a5cdd606a1b6044820152606490fd5b90601f8019910116810190811067ffffffffffffffff82111761053557604052565b67ffffffffffffffff811161053557601f01601f191660200190565b81601f820112156100d2578035906108e1826108ae565b926108ef604051948561088c565b828452602083830101116100d257815f926020809301838601378301015290565b91908251928382525f5b84811061093a575050825f602080949584010152601f8019910116010190565b60208183018101518483018201520161091a565b916109799061096b6080959897969360a0865260a0860190610910565b908482036020860152610910565b6001600160a01b039096166040830152151560608201520152565b90600182811c921680156109c2575b60208310146109ae57565b634e487b7160e01b5f52602260045260245ffd5b91607f16916109a3565b9060405191825f82546109de81610994565b908184526020946001916001811690815f14610a4c5750600114610a0e575b505050610a0c9250038361088c565b565b5f90815285812095935091905b818310610a34575050610a0c93508201015f80806109fd565b85548884018501529485019487945091830191610a1b565b92505050610a0c94925060ff191682840152151560051b8201015f80806109fd565b15610a7557565b60405162461bcd60e51b81526020600482015260096024820152682737ba1037bbb732b960b91b6044820152606490fd5b3d15610ad0573d90610ab7826108ae565b91610ac5604051938461088c565b82523d5f602084013e565b60609056fea2646970667358221220bb5d0425b5dec3d728f8ab9f417a0a5781d700e1c35e23f975a26268b8651e6764736f6c63430008180033","opcodes":"PUSH1 0x80 DUP1 PUSH1 0x40 MSTORE CALLVALUE PUSH2 0x28 JUMPI PUSH1 0x2 DUP1 SLOAD PUSH1 0x1 PUSH1 0x1 PUSH1 0xA0 SHL SUB NOT AND CALLER OR SWAP1 SSTORE PUSH2 0xB0B SWAP1 DUP2 PUSH2 0x2D DUP3 CODECOPY RETURN JUMPDEST PUSH0 DUP1 REVERT INVALID PUSH1 0x80 PUSH1 0x40 MSTORE PUSH1 0x4 CALLDATASIZE LT ISZERO PUSH2 0x1A JUMPI JUMPDEST CALLDATASIZE ISZERO PUSH2 0x18 JUMPI PUSH0 DUP1 REVERT JUMPDEST STOP JUMPDEST PUSH0 CALLDATALOAD PUSH1 0xE0 SHR DUP1 PUSH4 0x7897007 EQ PUSH2 0x6BA JUMPI DUP1 PUSH4 0x20A32E06 EQ PUSH2 0x1F1 JUMPI DUP1 PUSH4 0x3CCFD60B EQ PUSH2 0x17C JUMPI DUP1 PUSH4 0x8DA5CB5B EQ PUSH2 0x154 JUMPI DUP1 PUSH4 0xA91A1080 EQ PUSH2 0xF3 JUMPI DUP1 PUSH4 0xDA2D7E95 EQ PUSH2 0xD6 JUMPI PUSH4 0xF09790DD SUB PUSH2 0xE JUMPI CALLVALUE PUSH2 0xD2 JUMPI PUSH1 0x20 CALLDATASIZE PUSH1 0x3 NOT ADD SLT PUSH2 0xD2 JUMPI PUSH1 0x4 CALLDATALOAD PUSH0 MSTORE PUSH0 PUSH1 0x20 MSTORE PUSH1 0x40 PUSH0 KECCAK256 PUSH2 0x92 DUP2 PUSH2 0x9CC JUMP JUMPDEST SWAP1 PUSH2 0xCE PUSH2 0xA2 PUSH1 0x1 DUP4 ADD PUSH2 0x9CC JUMP JUMPDEST PUSH1 0x2 DUP4 ADD SLOAD PUSH1 0x3 SWAP1 SWAP4 ADD SLOAD PUSH1 0x40 MLOAD SWAP5 DUP6 SWAP5 SWAP2 SWAP3 PUSH1 0xA0 DUP4 SWAP1 SHR PUSH1 0xFF AND SWAP3 PUSH1 0x1 PUSH1 0x1 PUSH1 0xA0 SHL SUB AND SWAP2 DUP7 PUSH2 0x94E JUMP JUMPDEST SUB SWAP1 RETURN JUMPDEST PUSH0 DUP1 REVERT JUMPDEST CALLVALUE PUSH2 0xD2 JUMPI PUSH0 CALLDATASIZE PUSH1 0x3 NOT ADD SLT PUSH2 0xD2 JUMPI PUSH1 0x20 PUSH1 0x1 SLOAD PUSH1 0x40 MLOAD SWAP1 DUP2 MSTORE RETURN JUMPDEST CALLVALUE PUSH2 0xD2 JUMPI PUSH1 0x20 CALLDATASIZE PUSH1 0x3 NOT ADD SLT PUSH2 0xD2 JUMPI PUSH1 0x4 CALLDATALOAD PUSH0 MSTORE PUSH0 PUSH1 0x20 MSTORE PUSH1 0x40 PUSH0 KECCAK256 PUSH1 0x2 DUP2 ADD SLOAD PUSH2 0xCE PUSH1 0x3 DUP4 ADD SLOAD PUSH2 0x133 PUSH1 0x1 PUSH2 0x12C DUP7 PUSH2 0x9CC JUMP JUMPDEST SWAP6 ADD PUSH2 0x9CC JUMP JUMPDEST PUSH1 0x40 MLOAD SWAP5 DUP6 SWAP5 PUSH1 0xA0 DUP2 SWAP1 SHR PUSH1 0xFF AND SWAP3 PUSH1 0x1 PUSH1 0x1 PUSH1 0xA0 SHL SUB SWAP1 SWAP2 AND SWAP2 DUP7 PUSH2 0x94E JUMP JUMPDEST CALLVALUE PUSH2 0xD2 JUMPI PUSH0 CALLDATASIZE PUSH1 0x3 NOT ADD SLT PUSH2 0xD2 JUMPI PUSH1 0x2 SLOAD PUSH1 0x40 MLOAD PUSH1 0x1 PUSH1 0x1 PUSH1 0xA0 SHL SUB SWAP1 SWAP2 AND DUP2 MSTORE PUSH1 0x20 SWAP1 RETURN JUMPDEST CALLVALUE PUSH2 0xD2 JUMPI PUSH0 CALLDATASIZE PUSH1 0x3 NOT ADD SLT PUSH2 0xD2 JUMPI PUSH0 DUP1 DUP1 DUP1 PUSH1 0x1 DUP1 PUSH1 0xA0 SHL SUB PUSH1 0x2 SLOAD AND PUSH2 0x1A6 DUP2 CALLER EQ PUSH2 0xA6E JUMP JUMPDEST SELFBALANCE SWAP1 GAS CALL PUSH2 0x1B2 PUSH2 0xAA6 JUMP JUMPDEST POP ISZERO PUSH2 0x1BA JUMPI STOP JUMPDEST PUSH1 0x40 MLOAD PUSH3 0x461BCD PUSH1 0xE5 SHL DUP2 MSTORE PUSH1 0x20 PUSH1 0x4 DUP3 ADD MSTORE PUSH1 0xF PUSH1 0x24 DUP3 ADD MSTORE PUSH15 0x15DA5D1A191C985DC819985A5B1959 PUSH1 0x8A SHL PUSH1 0x44 DUP3 ADD MSTORE PUSH1 0x64 SWAP1 REVERT JUMPDEST CALLVALUE PUSH2 0xD2 JUMPI PUSH1 0x60 CALLDATASIZE PUSH1 0x3 NOT ADD SLT PUSH2 0xD2 JUMPI PUSH1 0x4 CALLDATALOAD PUSH8 0xFFFFFFFFFFFFFFFF DUP2 GT PUSH2 0xD2 JUMPI PUSH2 0x222 SWAP1 CALLDATASIZE SWAP1 PUSH1 0x4 ADD PUSH2 0x8CA JUMP JUMPDEST PUSH1 0x24 CALLDATALOAD PUSH8 0xFFFFFFFFFFFFFFFF DUP2 GT PUSH2 0xD2 JUMPI PUSH2 0x242 SWAP1 CALLDATASIZE SWAP1 PUSH1 0x4 ADD PUSH2 0x8CA JUMP JUMPDEST PUSH1 0x44 CALLDATALOAD SWAP2 SWAP1 PUSH1 0x1 PUSH1 0x1 PUSH1 0xA0 SHL SUB DUP4 AND DUP4 SUB PUSH2 0xD2 JUMPI DUP2 MLOAD ISZERO PUSH2 0x680 JUMPI DUP1 MLOAD ISZERO PUSH2 0x647 JUMPI PUSH1 0x1 PUSH1 0x1 PUSH1 0xA0 SHL SUB DUP4 AND ISZERO PUSH2 0x609 JUMPI PUSH1 0x1 SLOAD SWAP2 PUSH1 0x40 MLOAD SWAP4 PUSH1 0xA0 DUP6 ADD DUP6 DUP2 LT PUSH8 0xFFFFFFFFFFFFFFFF DUP3 GT OR PUSH2 0x535 JUMPI PUSH1 0x40 MSTORE DUP2 DUP6 MSTORE DUP3 PUSH1 0x20 DUP7 ADD MSTORE PUSH1 0x1 DUP1 PUSH1 0xA0 SHL SUB DUP2 AND PUSH1 0x40 DUP7 ADD MSTORE PUSH0 PUSH1 0x60 DUP7 ADD MSTORE TIMESTAMP PUSH1 0x80 DUP7 ADD MSTORE DUP4 PUSH0 MSTORE PUSH0 PUSH1 0x20 MSTORE PUSH1 0x40 PUSH0 KECCAK256 DUP6 MLOAD DUP1 MLOAD SWAP1 PUSH8 0xFFFFFFFFFFFFFFFF DUP3 GT PUSH2 0x535 JUMPI DUP2 SWAP1 PUSH2 0x2E4 DUP5 SLOAD PUSH2 0x994 JUMP JUMPDEST PUSH1 0x1F DUP2 GT PUSH2 0x5BC JUMPI JUMPDEST POP PUSH1 0x20 SWAP1 PUSH1 0x1F DUP4 GT PUSH1 0x1 EQ PUSH2 0x554 JUMPI PUSH0 SWAP3 PUSH2 0x549 JUMPI JUMPDEST POP POP DUP2 PUSH1 0x1 SHL SWAP2 PUSH0 NOT SWAP1 PUSH1 0x3 SHL SHR NOT AND OR DUP2 SSTORE JUMPDEST PUSH1 0x20 DUP7 ADD MLOAD SWAP6 DUP7 MLOAD PUSH8 0xFFFFFFFFFFFFFFFF DUP2 GT PUSH2 0x535 JUMPI PUSH2 0x33B PUSH1 0x1 DUP5 ADD SLOAD PUSH2 0x994 JUMP JUMPDEST SWAP8 PUSH1 0x1F DUP10 GT PUSH2 0x4F1 JUMPI JUMPDEST DUP8 SWAP9 POP PUSH0 SWAP8 SWAP7 SWAP8 POP PUSH1 0x20 SWAP1 PUSH1 0x1F DUP4 GT PUSH1 0x1 EQ PUSH2 0x454 JUMPI PUSH1 0x80 PUSH2 0x415 SWAP5 DUP5 PUSH2 0x3FC SWAP9 SWAP6 PUSH32 0x343679030C1CB25799494A00F49045E8E7744E6AACE907062230DE94BC134F66 SWAP11 SWAP9 SWAP6 PUSH1 0x3 SWAP6 PUSH0 SWAP3 PUSH2 0x449 JUMPI JUMPDEST POP POP PUSH0 NOT DUP3 DUP7 SHL SHR NOT AND PUSH1 0x1 SWAP2 DUP3 SHL OR SWAP1 DUP6 ADD SSTORE JUMPDEST PUSH1 0x2 DUP5 ADD PUSH1 0x1 DUP1 PUSH1 0xA0 SHL SUB PUSH1 0x40 DUP4 ADD MLOAD AND DUP2 SLOAD SWAP1 PUSH1 0xFF PUSH1 0xA0 SHL PUSH1 0x60 DUP6 ADD MLOAD ISZERO ISZERO PUSH1 0xA0 SHL AND SWAP2 PUSH11 0xFFFFFFFFFFFFFFFFFFFFFF PUSH1 0xA8 SHL AND OR OR SWAP1 SSTORE ADD MLOAD SWAP2 ADD SSTORE PUSH1 0x40 MLOAD SWAP4 DUP5 SWAP4 PUSH1 0x40 DUP6 MSTORE PUSH1 0x40 DUP6 ADD SWAP1 PUSH2 0x910 JUMP JUMPDEST DUP4 DUP2 SUB PUSH1 0x20 DUP6 ADD MSTORE PUSH1 0x1 PUSH1 0x1 PUSH1 0xA0 SHL SUB SWAP1 SWAP2 AND SWAP7 PUSH2 0x910 JUMP JUMPDEST SUB SWAP1 LOG3 PUSH1 0x1 SLOAD SWAP1 PUSH0 NOT DUP3 EQ PUSH2 0x435 JUMPI PUSH1 0x1 PUSH1 0x20 SWAP3 ADD PUSH1 0x1 SSTORE PUSH1 0x40 MLOAD SWAP1 DUP2 MSTORE RETURN JUMPDEST PUSH4 0x4E487B71 PUSH1 0xE0 SHL PUSH0 MSTORE PUSH1 0x11 PUSH1 0x4 MSTORE PUSH1 0x24 PUSH0 REVERT JUMPDEST ADD MLOAD SWAP1 POP DUP15 DUP1 PUSH2 0x395 JUMP JUMPDEST SWAP1 PUSH1 0x1 DUP6 ADD PUSH0 MSTORE PUSH1 0x20 PUSH0 KECCAK256 SWAP2 PUSH0 JUMPDEST PUSH1 0x1F NOT DUP6 AND DUP2 LT PUSH2 0x4D6 JUMPI POP PUSH2 0x415 SWAP5 PUSH1 0x1 DUP6 PUSH32 0x343679030C1CB25799494A00F49045E8E7744E6AACE907062230DE94BC134F66 SWAP11 SWAP9 SWAP6 PUSH1 0x3 SWAP6 PUSH1 0x80 SWAP6 PUSH2 0x3FC SWAP13 SWAP10 PUSH1 0x1F NOT DUP2 AND LT PUSH2 0x4BF JUMPI JUMPDEST POP POP POP DUP2 SHL ADD PUSH1 0x1 DUP6 ADD SSTORE PUSH2 0x3AA JUMP JUMPDEST ADD MLOAD PUSH0 NOT DUP4 DUP9 SHL PUSH1 0xF8 AND SHR NOT AND SWAP1 SSTORE DUP15 DUP1 DUP1 PUSH2 0x4AF JUMP JUMPDEST DUP2 DUP4 ADD MLOAD DUP5 SSTORE DUP12 SWAP10 POP PUSH1 0x1 SWAP1 SWAP4 ADD SWAP3 PUSH1 0x20 SWAP3 DUP4 ADD SWAP3 ADD PUSH2 0x462 JUMP JUMPDEST PUSH1 0x1 DUP5 ADD PUSH0 MSTORE PUSH1 0x20 PUSH0 KECCAK256 PUSH1 0x1F DUP4 ADD PUSH1 0x5 SHR DUP2 ADD PUSH1 0x20 DUP5 LT PUSH2 0x52E JUMPI JUMPDEST PUSH1 0x1F DUP12 ADD PUSH1 0x5 SHR DUP3 ADD DUP2 LT PUSH2 0x523 JUMPI POP POP PUSH2 0x345 JUMP JUMPDEST PUSH0 DUP2 SSTORE PUSH1 0x1 ADD PUSH2 0x50D JUMP JUMPDEST POP DUP1 PUSH2 0x50D JUMP JUMPDEST PUSH4 0x4E487B71 PUSH1 0xE0 SHL PUSH0 MSTORE PUSH1 0x41 PUSH1 0x4 MSTORE PUSH1 0x24 PUSH0 REVERT JUMPDEST ADD MLOAD SWAP1 POP DUP9 DUP1 PUSH2 0x303 JUMP JUMPDEST SWAP3 POP DUP4 PUSH0 MSTORE PUSH1 0x20 PUSH0 KECCAK256 SWAP1 PUSH0 SWAP4 JUMPDEST PUSH1 0x1F NOT DUP5 AND DUP6 LT PUSH2 0x5A1 JUMPI PUSH1 0x1 SWAP5 POP DUP4 PUSH1 0x1F NOT DUP2 AND LT PUSH2 0x589 JUMPI JUMPDEST POP POP POP DUP2 SHL ADD DUP2 SSTORE PUSH2 0x317 JUMP JUMPDEST ADD MLOAD PUSH0 NOT PUSH1 0xF8 DUP5 PUSH1 0x3 SHL AND SHR NOT AND SWAP1 SSTORE DUP9 DUP1 DUP1 PUSH2 0x57C JUMP JUMPDEST DUP2 DUP2 ADD MLOAD DUP4 SSTORE PUSH1 0x20 SWAP5 DUP6 ADD SWAP5 PUSH1 0x1 SWAP1 SWAP4 ADD SWAP3 SWAP1 SWAP2 ADD SWAP1 PUSH2 0x561 JUMP JUMPDEST SWAP1 SWAP2 POP DUP4 PUSH0 MSTORE PUSH1 0x20 PUSH0 KECCAK256 PUSH1 0x1F DUP5 ADD PUSH1 0x5 SHR DUP2 ADD PUSH1 0x20 DUP6 LT PUSH2 0x602 JUMPI JUMPDEST SWAP1 DUP5 SWAP4 SWAP3 SWAP2 JUMPDEST PUSH1 0x1F DUP4 ADD PUSH1 0x5 SHR DUP3 ADD DUP2 LT PUSH2 0x5F4 JUMPI POP POP PUSH2 0x2ED JUMP JUMPDEST PUSH0 DUP2 SSTORE DUP6 SWAP5 POP PUSH1 0x1 ADD PUSH2 0x5DE JUMP JUMPDEST POP DUP1 PUSH2 0x5D8 JUMP JUMPDEST PUSH1 0x40 MLOAD PUSH3 0x461BCD PUSH1 0xE5 SHL DUP2 MSTORE PUSH1 0x20 PUSH1 0x4 DUP3 ADD MSTORE PUSH1 0x16 PUSH1 0x24 DUP3 ADD MSTORE PUSH22 0x496E76616C696420636C696E69632061646472657373 PUSH1 0x50 SHL PUSH1 0x44 DUP3 ADD MSTORE PUSH1 0x64 SWAP1 REVERT JUMPDEST PUSH1 0x40 MLOAD PUSH3 0x461BCD PUSH1 0xE5 SHL DUP2 MSTORE PUSH1 0x20 PUSH1 0x4 DUP3 ADD MSTORE PUSH1 0x11 PUSH1 0x24 DUP3 ADD MSTORE PUSH17 0x18599D195C90D251081C995C5D5A5C9959 PUSH1 0x7A SHL PUSH1 0x44 DUP3 ADD MSTORE PUSH1 0x64 SWAP1 REVERT JUMPDEST PUSH1 0x40 MLOAD PUSH3 0x461BCD PUSH1 0xE5 SHL DUP2 MSTORE PUSH1 0x20 PUSH1 0x4 DUP3 ADD MSTORE PUSH1 0x12 PUSH1 0x24 DUP3 ADD MSTORE PUSH18 0x1899599BDC9950D251081C995C5D5A5C9959 PUSH1 0x72 SHL PUSH1 0x44 DUP3 ADD MSTORE PUSH1 0x64 SWAP1 REVERT JUMPDEST CALLVALUE PUSH2 0xD2 JUMPI PUSH1 0x20 DUP1 PUSH1 0x3 NOT CALLDATASIZE ADD SLT PUSH2 0xD2 JUMPI PUSH1 0x2 SLOAD PUSH1 0x1 PUSH1 0x1 PUSH1 0xA0 SHL SUB SWAP2 PUSH1 0x4 CALLDATALOAD SWAP2 PUSH2 0x6E9 SWAP1 DUP5 AND CALLER EQ PUSH2 0xA6E JUMP JUMPDEST DUP2 PUSH0 MSTORE PUSH0 DUP2 MSTORE PUSH1 0x40 PUSH0 KECCAK256 PUSH2 0x6FD DUP2 SLOAD PUSH2 0x994 JUMP JUMPDEST ISZERO PUSH2 0x851 JUMPI PUSH1 0x2 ADD SWAP3 DUP4 SLOAD SWAP4 PUSH1 0xFF DUP6 PUSH1 0xA0 SHR AND PUSH2 0x81D JUMPI PUSH7 0x2386F26FC10000 SWAP5 DUP6 SELFBALANCE LT PUSH2 0x7D8 JUMPI PUSH0 DUP1 DUP1 DUP9 DUP7 DUP3 SWAP6 PUSH1 0x1 PUSH1 0xA0 SHL PUSH1 0xFF PUSH1 0xA0 SHL NOT DUP3 AND OR DUP9 SSTORE CALLER DUP12 PUSH32 0x55EE10B99A5CF621D250AED126E0AFF341F551A869130F94C53191147307915B DUP7 DUP1 LOG3 AND GAS CALL PUSH2 0x76C PUSH2 0xAA6 JUMP JUMPDEST POP ISZERO PUSH2 0x7A1 JUMPI SLOAD PUSH1 0x40 MLOAD SWAP5 DUP6 MSTORE AND SWAP3 PUSH32 0x4F2D18324EE95128DE091ED2ADC501295479000CE4C2CEC607AEB1B67E189E2F SWAP2 SWAP1 LOG3 STOP JUMPDEST PUSH1 0x40 MLOAD PUSH3 0x461BCD PUSH1 0xE5 SHL DUP2 MSTORE PUSH1 0x4 DUP2 ADD DUP5 SWAP1 MSTORE PUSH1 0xF PUSH1 0x24 DUP3 ADD MSTORE PUSH15 0x151C985B9CD9995C8819985A5B1959 PUSH1 0x8A SHL PUSH1 0x44 DUP3 ADD MSTORE PUSH1 0x64 SWAP1 REVERT JUMPDEST PUSH1 0x40 MLOAD PUSH3 0x461BCD PUSH1 0xE5 SHL DUP2 MSTORE PUSH1 0x4 DUP2 ADD DUP6 SWAP1 MSTORE PUSH1 0x1D PUSH1 0x24 DUP3 ADD MSTORE PUSH32 0x496E73756666696369656E7420636F6E74726163742062616C616E6365000000 PUSH1 0x44 DUP3 ADD MSTORE PUSH1 0x64 SWAP1 REVERT JUMPDEST PUSH1 0x40 MLOAD PUSH3 0x461BCD PUSH1 0xE5 SHL DUP2 MSTORE PUSH1 0x4 DUP2 ADD DUP5 SWAP1 MSTORE PUSH1 0xC PUSH1 0x24 DUP3 ADD MSTORE PUSH12 0x105B1C9958591E481C185A59 PUSH1 0xA2 SHL PUSH1 0x44 DUP3 ADD MSTORE PUSH1 0x64 SWAP1 REVERT JUMPDEST PUSH1 0x40 MLOAD PUSH3 0x461BCD PUSH1 0xE5 SHL DUP2 MSTORE PUSH1 0x4 DUP2 ADD DUP4 SWAP1 MSTORE PUSH1 0x13 PUSH1 0x24 DUP3 ADD MSTORE PUSH19 0x10D85CD948191BD95CC81B9BDD08195E1A5CDD PUSH1 0x6A SHL PUSH1 0x44 DUP3 ADD MSTORE PUSH1 0x64 SWAP1 REVERT JUMPDEST SWAP1 PUSH1 0x1F DUP1 NOT SWAP2 ADD AND DUP2 ADD SWAP1 DUP2 LT PUSH8 0xFFFFFFFFFFFFFFFF DUP3 GT OR PUSH2 0x535 JUMPI PUSH1 0x40 MSTORE JUMP JUMPDEST PUSH8 0xFFFFFFFFFFFFFFFF DUP2 GT PUSH2 0x535 JUMPI PUSH1 0x1F ADD PUSH1 0x1F NOT AND PUSH1 0x20 ADD SWAP1 JUMP JUMPDEST DUP2 PUSH1 0x1F DUP3 ADD SLT ISZERO PUSH2 0xD2 JUMPI DUP1 CALLDATALOAD SWAP1 PUSH2 0x8E1 DUP3 PUSH2 0x8AE JUMP JUMPDEST SWAP3 PUSH2 0x8EF PUSH1 0x40 MLOAD SWAP5 DUP6 PUSH2 0x88C JUMP JUMPDEST DUP3 DUP5 MSTORE PUSH1 0x20 DUP4 DUP4 ADD ADD GT PUSH2 0xD2 JUMPI DUP2 PUSH0 SWAP3 PUSH1 0x20 DUP1 SWAP4 ADD DUP4 DUP7 ADD CALLDATACOPY DUP4 ADD ADD MSTORE SWAP1 JUMP JUMPDEST SWAP2 SWAP1 DUP3 MLOAD SWAP3 DUP4 DUP3 MSTORE PUSH0 JUMPDEST DUP5 DUP2 LT PUSH2 0x93A JUMPI POP POP DUP3 PUSH0 PUSH1 0x20 DUP1 SWAP5 SWAP6 DUP5 ADD ADD MSTORE PUSH1 0x1F DUP1 NOT SWAP2 ADD AND ADD ADD SWAP1 JUMP JUMPDEST PUSH1 0x20 DUP2 DUP4 ADD DUP2 ADD MLOAD DUP5 DUP4 ADD DUP3 ADD MSTORE ADD PUSH2 0x91A JUMP JUMPDEST SWAP2 PUSH2 0x979 SWAP1 PUSH2 0x96B PUSH1 0x80 SWAP6 SWAP9 SWAP8 SWAP7 SWAP4 PUSH1 0xA0 DUP7 MSTORE PUSH1 0xA0 DUP7 ADD SWAP1 PUSH2 0x910 JUMP JUMPDEST SWAP1 DUP5 DUP3 SUB PUSH1 0x20 DUP7 ADD MSTORE PUSH2 0x910 JUMP JUMPDEST PUSH1 0x1 PUSH1 0x1 PUSH1 0xA0 SHL SUB SWAP1 SWAP7 AND PUSH1 0x40 DUP4 ADD MSTORE ISZERO ISZERO PUSH1 0x60 DUP3 ADD MSTORE ADD MSTORE JUMP JUMPDEST SWAP1 PUSH1 0x1 DUP3 DUP2 SHR SWAP3 AND DUP1 ISZERO PUSH2 0x9C2 JUMPI JUMPDEST PUSH1 0x20 DUP4 LT EQ PUSH2 0x9AE JUMPI JUMP JUMPDEST PUSH4 0x4E487B71 PUSH1 0xE0 SHL PUSH0 MSTORE PUSH1 0x22 PUSH1 0x4 MSTORE PUSH1 0x24 PUSH0 REVERT JUMPDEST SWAP2 PUSH1 0x7F AND SWAP2 PUSH2 0x9A3 JUMP JUMPDEST SWAP1 PUSH1 0x40 MLOAD SWAP2 DUP3 PUSH0 DUP3 SLOAD PUSH2 0x9DE DUP2 PUSH2 0x994 JUMP JUMPDEST SWAP1 DUP2 DUP5 MSTORE PUSH1 0x20 SWAP5 PUSH1 0x1 SWAP2 PUSH1 0x1 DUP2 AND SWAP1 DUP2 PUSH0 EQ PUSH2 0xA4C JUMPI POP PUSH1 0x1 EQ PUSH2 0xA0E JUMPI JUMPDEST POP POP POP PUSH2 0xA0C SWAP3 POP SUB DUP4 PUSH2 0x88C JUMP JUMPDEST JUMP JUMPDEST PUSH0 SWAP1 DUP2 MSTORE DUP6 DUP2 KECCAK256 SWAP6 SWAP4 POP SWAP2 SWAP1 JUMPDEST DUP2 DUP4 LT PUSH2 0xA34 JUMPI POP POP PUSH2 0xA0C SWAP4 POP DUP3 ADD ADD PUSH0 DUP1 DUP1 PUSH2 0x9FD JUMP JUMPDEST DUP6 SLOAD DUP9 DUP5 ADD DUP6 ADD MSTORE SWAP5 DUP6 ADD SWAP5 DUP8 SWAP5 POP SWAP2 DUP4 ADD SWAP2 PUSH2 0xA1B JUMP JUMPDEST SWAP3 POP POP POP PUSH2 0xA0C SWAP5 SWAP3 POP PUSH1 0xFF NOT AND DUP3 DUP5 ADD MSTORE ISZERO ISZERO PUSH1 0x5 SHL DUP3 ADD ADD PUSH0 DUP1 DUP1 PUSH2 0x9FD JUMP JUMPDEST ISZERO PUSH2 0xA75 JUMPI JUMP JUMPDEST PUSH1 0x40 MLOAD PUSH3 0x461BCD PUSH1 0xE5 SHL DUP2 MSTORE PUSH1 0x20 PUSH1 0x4 DUP3 ADD MSTORE PUSH1 0x9 PUSH1 0x24 DUP3 ADD MSTORE PUSH9 0x2737BA1037BBB732B9 PUSH1 0xB9 SHL PUSH1 0x44 DUP3 ADD MSTORE PUSH1 0x64 SWAP1 REVERT JUMPDEST RETURNDATASIZE ISZERO PUSH2 0xAD0 JUMPI RETURNDATASIZE SWAP1 PUSH2 0xAB7 DUP3 PUSH2 0x8AE JUMP JUMPDEST SWAP2 PUSH2 0xAC5 PUSH1 0x40 MLOAD SWAP4 DUP5 PUSH2 0x88C JUMP JUMPDEST DUP3 MSTORE RETURNDATASIZE PUSH0 PUSH1 0x20 DUP5 ADD RETURNDATACOPY JUMP JUMPDEST PUSH1 0x60 SWAP1 JUMP INVALID LOG2 PUSH5 0x6970667358 0x22 SLT KECCAK256 0xBB TSTORE DIV 0x25 0xB5 0xDE 0xC3 0xD7 0x28 0xF8 0xAB SWAP16 COINBASE PUSH27 0xA5781D700E1C35E23F975A26268B8651E6764736F6C6343000818 STOP CALLER "},"methodIdentifiers":{"approveAndPay(uint256)":"07897007","caseCount()":"da2d7e95","cases(uint256)":"f09790dd","getCase(uint256)":"a91a1080","owner()":"8da5cb5b","submitCase(string,string,address)":"20a32e06","withdraw()":"3ccfd60b"}}}}}