{
  "_format": "hh-sol-artifact-1",
  "contractName": "MenoDAOCases",
  "sourceName": "src/MenoDAOCases.sol",
  "abi": [
    {
      "inputs": [],
      "stateMutability": "nonpayable",
      "type": "constructor"
    },
    {
      "anonymous": false,
      "inputs": [
        {
          "indexed": true,
          "internalType": "uint256",
          "name": "id",
          "type": "uint256"
        },
        {
          "indexed": false,
          "internalType": "string",
          "name": "beforeCID",
          "type": "string"
        },
        {
          "indexed": false,
          "internalType": "string",
          "name": "afterCID",
          "type": "string"
        },
        {
          "indexed": true,
          "internalType": "address",
          "name": "clinic",
          "type": "address"
        }
      ],
      "name": "CaseSubmitted",
      "type": "event"
    },
    {
      "anonymous": false,
      "inputs": [
        {
          "indexed": true,
          "internalType": "uint256",
          "name": "id",
          "type": "uint256"
        },
        {
          "indexed": true,
          "internalType": "address",
          "name": "agent",
          "type": "address"
        }
      ],
      "name": "CaseVerified",
      "type": "event"
    },
    {
      "anonymous": false,
      "inputs": [
        {
          "indexed": true,
          "internalType": "uint256",
          "name": "id",
          "type": "uint256"
        },
        {
          "indexed": true,
          "internalType": "address",
          "name": "clinic",
          "type": "address"
        },
        {
          "indexed": false,
          "internalType": "uint256",
          "name": "amount",
          "type": "uint256"
        }
      ],
      "name": "Paid",
      "type": "event"
    },
    {
      "inputs": [
        {
          "internalType": "uint256",
          "name": "id",
          "type": "uint256"
        }
      ],
      "name": "approveAndPay",
      "outputs": [],
      "stateMutability": "nonpayable",
      "type": "function"
    },
    {
      "inputs": [
        {
          "internalType": "uint256",
          "name": "id",
          "type": "uint256"
        },
        {
          "internalType": "uint256",
          "name": "payoutAmount",
          "type": "uint256"
        }
      ],
      "name": "approveAndPay",
      "outputs": [],
      "stateMutability": "nonpayable",
      "type": "function"
    },
    {
      "inputs": [],
      "name": "caseCount",
      "outputs": [
        {
          "internalType": "uint256",
          "name": "",
          "type": "uint256"
        }
      ],
      "stateMutability": "view",
      "type": "function"
    },
    {
      "inputs": [
        {
          "internalType": "uint256",
          "name": "",
          "type": "uint256"
        }
      ],
      "name": "cases",
      "outputs": [
        {
          "internalType": "string",
          "name": "beforeCID",
          "type": "string"
        },
        {
          "internalType": "string",
          "name": "afterCID",
          "type": "string"
        },
        {
          "internalType": "address",
          "name": "clinic",
          "type": "address"
        },
        {
          "internalType": "bool",
          "name": "paid",
          "type": "bool"
        },
        {
          "internalType": "uint256",
          "name": "submittedAt",
          "type": "uint256"
        }
      ],
      "stateMutability": "view",
      "type": "function"
    },
    {
      "inputs": [
        {
          "internalType": "uint256",
          "name": "id",
          "type": "uint256"
        }
      ],
      "name": "getCase",
      "outputs": [
        {
          "internalType": "string",
          "name": "beforeCID",
          "type": "string"
        },
        {
          "internalType": "string",
          "name": "afterCID",
          "type": "string"
        },
        {
          "internalType": "address",
          "name": "clinic",
          "type": "address"
        },
        {
          "internalType": "bool",
          "name": "paid",
          "type": "bool"
        },
        {
          "internalType": "uint256",
          "name": "submittedAt",
          "type": "uint256"
        }
      ],
      "stateMutability": "view",
      "type": "function"
    },
    {
      "inputs": [],
      "name": "owner",
      "outputs": [
        {
          "internalType": "address",
          "name": "",
          "type": "address"
        }
      ],
      "stateMutability": "view",
      "type": "function"
    },
    {
      "inputs": [
        {
          "internalType": "string",
          "name": "beforeCID",
          "type": "string"
        },
        {
          "internalType": "string",
          "name": "afterCID",
          "type": "string"
        },
        {
          "internalType": "address",
          "name": "clinic",
          "type": "address"
        }
      ],
      "name": "submitCase",
      "outputs": [
        {
          "internalType": "uint256",
          "name": "",
          "type": "uint256"
        }
      ],
      "stateMutability": "nonpayable",
      "type": "function"
    },
    {
      "inputs": [],
      "name": "withdraw",
      "outputs": [],
      "stateMutability": "nonpayable",
      "type": "function"
    },
    {
      "stateMutability": "payable",
      "type": "receive"
    }
  ],
  "bytecode": "0x6080806040523461002857600280546001600160a01b03191633179055610c37908161002d8239f35b5f80fdfe6080604052600436101561001a575b3615610018575f80fd5b005b5f3560e01c8063078970071461088e57806320a32e06146103c55780633ccfd60b1461035057806344c750ec146101875780638da5cb5b1461015f578063a91a1080146100fe578063da2d7e95146100e15763f09790dd0361000e57346100dd5760203660031901126100dd576004355f525f60205260405f2061009d81610af8565b906100d96100ad60018301610af8565b6002830154600390930154604051948594919260a083901c60ff16926001600160a01b03169186610a7a565b0390f35b5f80fd5b346100dd575f3660031901126100dd576020600154604051908152f35b346100dd5760203660031901126100dd576004355f525f60205260405f2060028101546100d9600383015461013e600161013786610af8565b9501610af8565b60405194859460a081901c60ff16926001600160a01b039091169186610a7a565b346100dd575f3660031901126100dd576002546040516001600160a01b039091168152602090f35b346100dd5760403660031901126100dd576004356024359060018060a01b036101b581600254163314610b9a565b815f526020905f825260405f206101cc8154610ac0565b1561031557600201805460ff8160a01c166102e15785471061029c575f808088868295600160a01b60ff60a01b198216178855338b7f55ee10b99a5cf621d250aed126e0aff341f551a869130f94c53191147307915b8680a3165af1610230610bd2565b5015610265575460405194855216927f4f2d18324ee95128de091ed2adc501295479000ce4c2cec607aeb1b67e189e2f9190a3005b60405162461bcd60e51b815260048101849052600f60248201526e151c985b9cd9995c8819985a5b1959608a1b6044820152606490fd5b60405162461bcd60e51b815260048101859052601d60248201527f496e73756666696369656e7420636f6e74726163742062616c616e63650000006044820152606490fd5b60405162461bcd60e51b815260048101859052600c60248201526b105b1c9958591e481c185a5960a21b6044820152606490fd5b60405162461bcd60e51b815260048101849052601360248201527210d85cd948191bd95cc81b9bdd08195e1a5cdd606a1b6044820152606490fd5b346100dd575f3660031901126100dd575f80808060018060a01b036002541661037a813314610b9a565b47905af1610386610bd2565b501561038e57005b60405162461bcd60e51b815260206004820152600f60248201526e15da5d1a191c985dc819985a5b1959608a1b6044820152606490fd5b346100dd5760603660031901126100dd5760043567ffffffffffffffff81116100dd576103f69036906004016109f6565b60243567ffffffffffffffff81116100dd576104169036906004016109f6565b60443591906001600160a01b03831683036100dd578151156108545780511561081b576001600160a01b038316156107dd57600154916040519360a0850185811067ffffffffffffffff8211176107095760405281855282602086015260018060a01b03811660408601525f6060860152426080860152835f525f60205260405f20855180519067ffffffffffffffff82116107095781906104b88454610ac0565b601f8111610790575b50602090601f8311600114610728575f9261071d575b50508160011b915f199060031b1c19161781555b602086015195865167ffffffffffffffff81116107095761050f6001840154610ac0565b97601f89116106c5575b8798505f97969750602090601f83116001146106285760806105e994846105d098957f343679030c1cb25799494a00f49045e8e7744e6aace907062230de94bc134f669a98956003955f9261061d575b50505f1982861b1c1916600191821b17908501555b6002840160018060a01b0360408301511681549060ff60a01b6060850151151560a01b16916affffffffffffffffffffff60a81b16171790550151910155604051938493604085526040850190610a3c565b83810360208501526001600160a01b0390911696610a3c565b0390a3600154905f19821461060957600160209201600155604051908152f35b634e487b7160e01b5f52601160045260245ffd5b015190508e80610569565b90600185015f5260205f20915f5b601f19851681106106aa57506105e9946001857f343679030c1cb25799494a00f49045e8e7744e6aace907062230de94bc134f669a98956003956080956105d09c99601f19811610610693575b505050811b01600185015561057e565b01515f1983881b60f8161c191690558e8080610683565b8183015184558b995060019093019260209283019201610636565b600184015f5260205f20601f830160051c810160208410610702575b601f8b0160051c820181106106f7575050610519565b5f81556001016106e1565b50806106e1565b634e487b7160e01b5f52604160045260245ffd5b0151905088806104d7565b9250835f5260205f20905f935b601f1984168510610775576001945083601f1981161061075d575b505050811b0181556104eb565b01515f1960f88460031b161c19169055888080610750565b81810151835560209485019460019093019290910190610735565b909150835f5260205f20601f840160051c8101602085106107d6575b90849392915b601f830160051c820181106107c85750506104c1565b5f81558594506001016107b2565b50806107ac565b60405162461bcd60e51b8152602060048201526016602482015275496e76616c696420636c696e6963206164647265737360501b6044820152606490fd5b60405162461bcd60e51b815260206004820152601160248201527018599d195c90d251081c995c5d5a5c9959607a1b6044820152606490fd5b60405162461bcd60e51b81526020600482015260126024820152711899599bdc9950d251081c995c5d5a5c995960721b6044820152606490fd5b346100dd576020806003193601126100dd576002546001600160a01b0391600435916108c690841633146108c181610b9a565b610b9a565b815f525f815260405f206108da8154610ac0565b1561097d576002019283549360ff8560a01c166109495766038d7ea4c680009485471061029c575f808088868295600160a01b60ff60a01b198216178855338b7f55ee10b99a5cf621d250aed126e0aff341f551a869130f94c53191147307915b8680a3165af1610230610bd2565b60405162461bcd60e51b815260048101849052600c60248201526b105b1c9958591e481c185a5960a21b6044820152606490fd5b60405162461bcd60e51b815260048101839052601360248201527210d85cd948191bd95cc81b9bdd08195e1a5cdd606a1b6044820152606490fd5b90601f8019910116810190811067ffffffffffffffff82111761070957604052565b67ffffffffffffffff811161070957601f01601f191660200190565b81601f820112156100dd57803590610a0d826109da565b92610a1b60405194856109b8565b828452602083830101116100dd57815f926020809301838601378301015290565b91908251928382525f5b848110610a66575050825f602080949584010152601f8019910116010190565b602081830181015184830182015201610a46565b91610aa590610a976080959897969360a0865260a0860190610a3c565b908482036020860152610a3c565b6001600160a01b039096166040830152151560608201520152565b90600182811c92168015610aee575b6020831014610ada57565b634e487b7160e01b5f52602260045260245ffd5b91607f1691610acf565b9060405191825f8254610b0a81610ac0565b908184526020946001916001811690815f14610b785750600114610b3a575b505050610b38925003836109b8565b565b5f90815285812095935091905b818310610b60575050610b3893508201015f8080610b29565b85548884018501529485019487945091830191610b47565b92505050610b3894925060ff191682840152151560051b8201015f8080610b29565b15610ba157565b60405162461bcd60e51b81526020600482015260096024820152682737ba1037bbb732b960b91b6044820152606490fd5b3d15610bfc573d90610be3826109da565b91610bf160405193846109b8565b82523d5f602084013e565b60609056fea264697066735822122023a16fc23e98d0fee3844fb8ab16d88cc75737b1831ed3d93cd7a40f3d3413a864736f6c63430008180033",
  "linkReferences": {},
  "deployedLinkReferences": {}
}