{
  "_format": "hh-sol-artifact-1",
  "contractName": "MenoDAOCases",
  "sourceName": "src/MenoDAOCases.sol",
  "abi": [
    {
      "inputs": [],
      "stateMutability": "nonpayable",
      "type": "constructor"
    },
    {
      "anonymous": false,
      "inputs": [
        {
          "indexed": true,
          "internalType": "uint256",
          "name": "id",
          "type": "uint256"
        },
        {
          "indexed": false,
          "internalType": "string",
          "name": "beforeCID",
          "type": "string"
        },
        {
          "indexed": false,
          "internalType": "string",
          "name": "afterCID",
          "type": "string"
        },
        {
          "indexed": true,
          "internalType": "address",
          "name": "clinic",
          "type": "address"
        }
      ],
      "name": "CaseSubmitted",
      "type": "event"
    },
    {
      "anonymous": false,
      "inputs": [
        {
          "indexed": true,
          "internalType": "uint256",
          "name": "id",
          "type": "uint256"
        },
        {
          "indexed": true,
          "internalType": "address",
          "name": "agent",
          "type": "address"
        }
      ],
      "name": "CaseVerified",
      "type": "event"
    },
    {
      "anonymous": false,
      "inputs": [
        {
          "indexed": true,
          "internalType": "uint256",
          "name": "id",
          "type": "uint256"
        },
        {
          "indexed": true,
          "internalType": "address",
          "name": "clinic",
          "type": "address"
        },
        {
          "indexed": false,
          "internalType": "uint256",
          "name": "amount",
          "type": "uint256"
        }
      ],
      "name": "Paid",
      "type": "event"
    },
    {
      "inputs": [
        {
          "internalType": "uint256",
          "name": "id",
          "type": "uint256"
        }
      ],
      "name": "approveAndPay",
      "outputs": [],
      "stateMutability": "nonpayable",
      "type": "function"
    },
    {
      "inputs": [],
      "name": "caseCount",
      "outputs": [
        {
          "internalType": "uint256",
          "name": "",
          "type": "uint256"
        }
      ],
      "stateMutability": "view",
      "type": "function"
    },
    {
      "inputs": [
        {
          "internalType": "uint256",
          "name": "",
          "type": "uint256"
        }
      ],
      "name": "cases",
      "outputs": [
        {
          "internalType": "string",
          "name": "beforeCID",
          "type": "string"
        },
        {
          "internalType": "string",
          "name": "afterCID",
          "type": "string"
        },
        {
          "internalType": "address",
          "name": "clinic",
          "type": "address"
        },
        {
          "internalType": "bool",
          "name": "paid",
          "type": "bool"
        },
        {
          "internalType": "uint256",
          "name": "submittedAt",
          "type": "uint256"
        }
      ],
      "stateMutability": "view",
      "type": "function"
    },
    {
      "inputs": [
        {
          "internalType": "uint256",
          "name": "id",
          "type": "uint256"
        }
      ],
      "name": "getCase",
      "outputs": [
        {
          "internalType": "string",
          "name": "beforeCID",
          "type": "string"
        },
        {
          "internalType": "string",
          "name": "afterCID",
          "type": "string"
        },
        {
          "internalType": "address",
          "name": "clinic",
          "type": "address"
        },
        {
          "internalType": "bool",
          "name": "paid",
          "type": "bool"
        },
        {
          "internalType": "uint256",
          "name": "submittedAt",
          "type": "uint256"
        }
      ],
      "stateMutability": "view",
      "type": "function"
    },
    {
      "inputs": [],
      "name": "owner",
      "outputs": [
        {
          "internalType": "address",
          "name": "",
          "type": "address"
        }
      ],
      "stateMutability": "view",
      "type": "function"
    },
    {
      "inputs": [
        {
          "internalType": "string",
          "name": "beforeCID",
          "type": "string"
        },
        {
          "internalType": "string",
          "name": "afterCID",
          "type": "string"
        },
        {
          "internalType": "address",
          "name": "clinic",
          "type": "address"
        }
      ],
      "name": "submitCase",
      "outputs": [
        {
          "internalType": "uint256",
          "name": "",
          "type": "uint256"
        }
      ],
      "stateMutability": "nonpayable",
      "type": "function"
    },
    {
      "inputs": [],
      "name": "withdraw",
      "outputs": [],
      "stateMutability": "nonpayable",
      "type": "function"
    },
    {
      "stateMutability": "payable",
      "type": "receive"
    }
  ],
  "bytecode": "0x6080806040523461002857600280546001600160a01b03191633179055610b0b908161002d8239f35b5f80fdfe6080604052600436101561001a575b3615610018575f80fd5b005b5f3560e01c806307897007146106ba57806320a32e06146101f15780633ccfd60b1461017c5780638da5cb5b14610154578063a91a1080146100f3578063da2d7e95146100d65763f09790dd0361000e57346100d25760203660031901126100d2576004355f525f60205260405f20610092816109cc565b906100ce6100a2600183016109cc565b6002830154600390930154604051948594919260a083901c60ff16926001600160a01b0316918661094e565b0390f35b5f80fd5b346100d2575f3660031901126100d2576020600154604051908152f35b346100d25760203660031901126100d2576004355f525f60205260405f2060028101546100ce6003830154610133600161012c866109cc565b95016109cc565b60405194859460a081901c60ff16926001600160a01b03909116918661094e565b346100d2575f3660031901126100d2576002546040516001600160a01b039091168152602090f35b346100d2575f3660031901126100d2575f80808060018060a01b03600254166101a6813314610a6e565b47905af16101b2610aa6565b50156101ba57005b60405162461bcd60e51b815260206004820152600f60248201526e15da5d1a191c985dc819985a5b1959608a1b6044820152606490fd5b346100d25760603660031901126100d25760043567ffffffffffffffff81116100d2576102229036906004016108ca565b60243567ffffffffffffffff81116100d2576102429036906004016108ca565b60443591906001600160a01b03831683036100d25781511561068057805115610647576001600160a01b0383161561060957600154916040519360a0850185811067ffffffffffffffff8211176105355760405281855282602086015260018060a01b03811660408601525f6060860152426080860152835f525f60205260405f20855180519067ffffffffffffffff82116105355781906102e48454610994565b601f81116105bc575b50602090601f8311600114610554575f92610549575b50508160011b915f199060031b1c19161781555b602086015195865167ffffffffffffffff81116105355761033b6001840154610994565b97601f89116104f1575b8798505f97969750602090601f831160011461045457608061041594846103fc98957f343679030c1cb25799494a00f49045e8e7744e6aace907062230de94bc134f669a98956003955f92610449575b50505f1982861b1c1916600191821b17908501555b6002840160018060a01b0360408301511681549060ff60a01b6060850151151560a01b16916affffffffffffffffffffff60a81b16171790550151910155604051938493604085526040850190610910565b83810360208501526001600160a01b0390911696610910565b0390a3600154905f19821461043557600160209201600155604051908152f35b634e487b7160e01b5f52601160045260245ffd5b015190508e80610395565b90600185015f5260205f20915f5b601f19851681106104d65750610415946001857f343679030c1cb25799494a00f49045e8e7744e6aace907062230de94bc134f669a98956003956080956103fc9c99601f198116106104bf575b505050811b0160018501556103aa565b01515f1983881b60f8161c191690558e80806104af565b8183015184558b995060019093019260209283019201610462565b600184015f5260205f20601f830160051c81016020841061052e575b601f8b0160051c82018110610523575050610345565b5f815560010161050d565b508061050d565b634e487b7160e01b5f52604160045260245ffd5b015190508880610303565b9250835f5260205f20905f935b601f19841685106105a1576001945083601f19811610610589575b505050811b018155610317565b01515f1960f88460031b161c1916905588808061057c565b81810151835560209485019460019093019290910190610561565b909150835f5260205f20601f840160051c810160208510610602575b90849392915b601f830160051c820181106105f45750506102ed565b5f81558594506001016105de565b50806105d8565b60405162461bcd60e51b8152602060048201526016602482015275496e76616c696420636c696e6963206164647265737360501b6044820152606490fd5b60405162461bcd60e51b815260206004820152601160248201527018599d195c90d251081c995c5d5a5c9959607a1b6044820152606490fd5b60405162461bcd60e51b81526020600482015260126024820152711899599bdc9950d251081c995c5d5a5c995960721b6044820152606490fd5b346100d2576020806003193601126100d2576002546001600160a01b0391600435916106e99084163314610a6e565b815f525f815260405f206106fd8154610994565b15610851576002019283549360ff8560a01c1661081d57662386f26fc10000948547106107d8575f808088868295600160a01b60ff60a01b198216178855338b7f55ee10b99a5cf621d250aed126e0aff341f551a869130f94c53191147307915b8680a3165af161076c610aa6565b50156107a1575460405194855216927f4f2d18324ee95128de091ed2adc501295479000ce4c2cec607aeb1b67e189e2f9190a3005b60405162461bcd60e51b815260048101849052600f60248201526e151c985b9cd9995c8819985a5b1959608a1b6044820152606490fd5b60405162461bcd60e51b815260048101859052601d60248201527f496e73756666696369656e7420636f6e74726163742062616c616e63650000006044820152606490fd5b60405162461bcd60e51b815260048101849052600c60248201526b105b1c9958591e481c185a5960a21b6044820152606490fd5b60405162461bcd60e51b815260048101839052601360248201527210d85cd948191bd95cc81b9bdd08195e1a5cdd606a1b6044820152606490fd5b90601f8019910116810190811067ffffffffffffffff82111761053557604052565b67ffffffffffffffff811161053557601f01601f191660200190565b81601f820112156100d2578035906108e1826108ae565b926108ef604051948561088c565b828452602083830101116100d257815f926020809301838601378301015290565b91908251928382525f5b84811061093a575050825f602080949584010152601f8019910116010190565b60208183018101518483018201520161091a565b916109799061096b6080959897969360a0865260a0860190610910565b908482036020860152610910565b6001600160a01b039096166040830152151560608201520152565b90600182811c921680156109c2575b60208310146109ae57565b634e487b7160e01b5f52602260045260245ffd5b91607f16916109a3565b9060405191825f82546109de81610994565b908184526020946001916001811690815f14610a4c5750600114610a0e575b505050610a0c9250038361088c565b565b5f90815285812095935091905b818310610a34575050610a0c93508201015f80806109fd565b85548884018501529485019487945091830191610a1b565b92505050610a0c94925060ff191682840152151560051b8201015f80806109fd565b15610a7557565b60405162461bcd60e51b81526020600482015260096024820152682737ba1037bbb732b960b91b6044820152606490fd5b3d15610ad0573d90610ab7826108ae565b91610ac5604051938461088c565b82523d5f602084013e565b60609056fea2646970667358221220bb5d0425b5dec3d728f8ab9f417a0a5781d700e1c35e23f975a26268b8651e6764736f6c63430008180033",
  "linkReferences": {},
  "deployedLinkReferences": {}
}